00100000         2005090260001600028320920014       0338200000000052841 MUTUA DE ASSISTENCIA DOS PROFIBANCO DO BRASIL                         21501202602065900561203000000303877689PROCESSAMEN                                                 
00100011T0100020 20005090260001600028320920014       0338200000000052841 MUTUA DE ASSISTENCIA DOS PROFI                                                                                000000001501202600000000  000000000                      
0010001300001T 060424980000000031720 28106278201773137   78201773137     15012026000000000010400001001295                         0900000000000010040000000000000000000000000000000000000   000000000000000000000027034        170272810627     
0010001300002U 060000000000000000000000000000000000000000000000000000000000000000000000104000000000000101300000000000000000000000000000001501202616012026            000000000000000                              000                           
0010001300003T 060424980000000031720 28106278201778184   78201778184     15012026000000000010400001076252                         0900000000000010040000000000000000000000000000000000000   000000000000000000000027034        170272810627     
0010001300004U 060000000000000000000000000000000000000000000000000000000000000000000000104000000000000101300000000000000000000000000000001501202616012026            000000000000000                              000                           
0010001300005T 060424980000000031720 28106278201779103   78201779103     15012026000000000010400104070230                         0900000000000010100000000000000000000000000000000000000   000000000000000000000027004        170272810627     
0010001300006U 060000000000000000000000000000000000000000000000000000000000000000000000104000000000000101300000000000000000000000000000001501202616012026            000000000000000                              000                           
0010001300007T 060424980000000031720 28106278201779105   78201779105     15012026000000000010400104070230                         0900000000000010100000000000000000000000000000000000000   000000000000000000000027004        170272810627     
0010001300008U 060000000000000000000000000000000000000000000000000000000000000000000000104000000000000101300000000000000000000000000000001501202616012026            000000000000000                              000                           
0010001300009T 060424980000000031720 28106278201779107   78201779107     15012026000000000010400104070230                         0900000000000010100000000000000000000000000000000000000   000000000000000000000027004        170272810627     
0010001300010U 060000000000000000000000000000000000000000000000000000000000000000000000104000000000000101300000000000000000000000000000001501202616012026            000000000000000                              000                           
0010001300011T 060424980000000031720 28106278201779109   78201779109     15012026000000000010400104070230                         0900000000000010100000000000000000000000000000000000000   000000000000000000000027004        170272810627     
0010001300012U 060000000000000000000000000000000000000000000000000000000000000000000000104000000000000101300000000000000000000000000000001501202616012026            000000000000000                              000                           
0010001300013T 060424980000000031720 28106278201779111   78201779111     15012026000000000010400104013830                         0900000000000010100000000000000000000000000000000000000   000000000000000000000027004        170272810627     
0010001300014U 060000000000000000000000000000000000000000000000000000000000000000000000104000000000000101300000000000000000000000000000001501202616012026            000000000000000                              000                           
0010001300015T 060424980000000031720 28106278201779308   78201779308     15012026000000000010400104006390                         0900000000000010100000000000000000000000000000000000000   000000000000000000000027004        170272810627     
0010001300016U 060000000000000000000000000000000000000000000000000000000000000000000000104000000000000101300000000000000000000000000000001501202616012026            000000000000000                              000                           
0010001300017T 060424980000000031720 28106278201779367   78201779367     15012026000000000010400341009110                         0900000000000010100000000000000000000000000000000000000   000000000000000000000027004        170272810627     
0010001300018U 060000000000000000000000000000000000000000000000000000000000000000000000104000000000000101300000000000000000000000000000001501202616012026            000000000000000                              000                           
0010001300019T 060424980000000031720 28106278201781211   78201781211     15012026000000000010400001032859                         0900000000000010040000000000000000000000000000000000000   000000000000000000000027034        170272810627     
0010001300020U 060000000000000000000000000000000000000000000000000000000000000000000000104000000000000101300000000000000000000000000000001501202616012026            000000000000000                              000                           
0010001300021T 060424980000000031720 28106278201781290   78201781290     15012026000000000010400260000010                         0900000000000010100000000000000000000000000000000000000   000000000000000000000027004        170272810627     
0010001300022U 060000000000000000000000000000000000000000000000000000000000000000000000104000000000000101300000000000000000000000000000001501202616012026            000000000000000                              000                           
0010001300023T 060424980000000031720 28106278201781330   78201781330     15012026000000000010400001008958                         0900000000000010040000000000000000000000000000000000000   000000000000000000000027034        170272810627     
0010001300024U 060000000000000000000000000000000000000000000000000000000000000000000000104000000000000101300000000000000000000000000000001501202616012026            000000000000000                              000                           
0010001300025T 060424980000000031720 28106278201781340   78201781340     15012026000000000010400001008958                         0900000000000010040000000000000000000000000000000000000   000000000000000000000027034        170272810627     
0010001300026U 060000000000000000000000000000000000000000000000000000000000000000000000104000000000000101300000000000000000000000000000001501202616012026            000000000000000                              000                           
0010001300027T 060424980000000031720 28106278201781583   78201781583     15012026000000000010400104038290                         0900000000000010100000000000000000000000000000000000000   000000000000000000000027004        170272810627     
0010001300028U 060000000000000000000000000000000000000000000000000000000000000000000000104000000000000101300000000000000000000000000000001501202616012026            000000000000000                              000                           
0010001300029T 060424980000000031720 28106278201781608   78201781608     15012026000000000010400341009110                         0900000000000010100000000000000000000000000000000000000   000000000000000000000027004        170272810627     
0010001300030U 060000000000000000000000000000000000000000000000000000000000000000000000104000000000000101300000000000000000000000000000001501202616012026            000000000000000                              000                           
0010001300031T 060424980000000031720 28106278201782072   78201782072     15012026000000000010400001008958                         0900000000000010040000000000000000000000000000000000000   000000000000000000000027034        170272810627     
0010001300032U 060000000000000000000000000000000000000000000000000000000000000000000000104000000000000101300000000000000000000000000000001501202616012026            000000000000000                              000                           
0010001300033T 060424980000000031720 28106278201782074   78201782074     15012026000000000010400001008958                         0900000000000010040000000000000000000000000000000000000   000000000000000000000027034        170272810627     
0010001300034U 060000000000000000000000000000000000000000000000000000000000000000000000104000000000000101300000000000000000000000000000001501202616012026            000000000000000                              000                           
0010001300035T 060424980000000031720 28106278201783235   78201783235     15012026000000000010839341013380                         0900000000000010100000000000000000000000000000000000000   000000000000000000000027004        170272810627     
0010001300036U 060000000000000000000000000000000000000000000000000000000000000000000000108390000000000105690000000000000000000000000000001501202616012026            000000000000000                              000                           
0010001300037T 060424980000000031720 28106278201783282   78201783282     15012026000000000010839341013380                         0900000000000010100000000000000000000000000000000000000   000000000000000000000027004        170272810627     
0010001300038U 060000000000000000000000000000000000000000000000000000000000000000000000108390000000000105690000000000000000000000000000001501202616012026            000000000000000                              000                           
0010001300039T 060424980000000031720 28106278201783484   78201783484     15012026000000000010839077000010                         0900000000000010610000000000000000000000000000000000000   000000000000000000000022561        170272810627     
0010001300040U 060000000000000000000000000000000000000000000000000000000000000000000000108390000000000106140000000000000000000000000000001501202615012026            000000000000000                              000                           
0010001300041T 060424980000000031720 28106278201783490   78201783490     15012026000000000010839748073640                         0900000000000010100000000000000000000000000000000000000   000000000000000000000027004        170272810627     
0010001300042U 060000000000000000000000000000000000000000000000000000000000000000000000108390000000000105690000000000000000000000000000001501202616012026            000000000000000                              000                           
0010001300043T 060424980000000031720 28106278201783639   78201783639     15012026000000000010839104007280                         0900000000000010610000000000000000000000000000000000000   000000000000000000000022561        170272810627     
0010001300044U 060000000000000000000000000000000000000000000000000000000000000000000000108390000000000106140000000000000000000000000000001501202615012026            000000000000000                              000                           
0010001300045T 060424980000000031720 28106278201783653   78201783653     15012026000000000010839077000010                         0900000000000010610000000000000000000000000000000000000   000000000000000000000022561        170272810627     
0010001300046U 060000000000000000000000000000000000000000000000000000000000000000000000108390000000000106140000000000000000000000000000001501202615012026            000000000000000                              000                           
0010001300047T 060424980000000031720 28106278201783713   78201783713     15012026000000000010839077000010                         0900000000000010610000000000000000000000000000000000000   000000000000000000000022561        170272810627     
0010001300048U 060000000000000000000000000000000000000000000000000000000000000000000000108390000000000106140000000000000000000000000000001501202615012026            000000000000000                              000                           
0010001300049T 060424980000000031720 28106278201783943   78201783943     15012026000000000010839260000010                         0900000000000010100000000000000000000000000000000000000   000000000000000000000027004        170272810627     
0010001300050U 060000000000000000000000000000000000000000000000000000000000000000000000108390000000000105690000000000000000000000000000001501202616012026            000000000000000                              000                           
0010001300051T 060424980000000031720 28106278201784094   78201784094     15012026000000000010920341085410                         0900000000000010100000000000000000000000000000000000000   000000000000000000000027004        170272810627     
0010001300052U 060000000000000000000000000000000000000000000000000000000000000000000000109200000000000106500000000000000000000000000000001501202616012026            000000000000000                              000                           
0010001300053T 060424980000000031720 28106278201784349   78201784349     1601202600000000001083900101981X                         0900000000000010610000000000000000000000000000000000000   000000000000000000000022561        170272810627     
0010001300054U 060000000000000000000000000000000000000000000000000000000000000000000000108390000000000106140000000000000000000000000000001501202615012026            000000000000000                              000                           
0010001300055T 060424980000000031720 28106278201784513   78201784513     16012026000000000028559001026603                         0900000000000010060000000000000000000000000000000000000   000000000000000000000027033        170272810627     
0010001300056U 060000000000000000000000000000000000000000000000000000000000000000000000285590000000000282890000000000000000000000000000001501202616012026            000000000000000                              000                           
0010001300057T 060424980000000031720 28106278201785023   78201785023     16012026000000000010839260000010                         0900000000000010610000000000000000000000000000000000000   000000000000000000000022561        170272810627     
0010001300058U 060000000000000000000000000000000000000000000000000000000000000000000000108390000000000106140000000000000000000000000000001501202615012026            000000000000000                              000                           
0010001300059T 060424980000000031720 28106278201785656   78201785656     17012026000000000028559104016070                         0900000000000010610000000000000000000000000000000000000   000000000000000000000022561        170272810627     
0010001300060U 060000000000000000000000000000000000000000000000000000000000000000000000285590000000000283340000000000000000000000000000001501202615012026            000000000000000                              000                           
0010001300061T 060424980000000031720 28106278201787144   78201787144     1901202600000000001083900101981X                         0900000000000010610000000000000000000000000000000000000   000000000000000000000022561        170272810627     
0010001300062U 060000000000000000000000000000000000000000000000000000000000000000000000108390000000000106140000000000000000000000000000001501202615012026            000000000000000                              000                           
0010001300063T 060424980000000031720 28106278201787349   78201787349     19012026000000000010839290000010                         0900000000000010610000000000000000000000000000000000000   000000000000000000000022561        170272810627     
0010001300064U 060000000000000000000000000000000000000000000000000000000000000000000000108390000000000106140000000000000000000000000000001501202615012026            000000000000000                              000                           
0010001300065T 060424980000000031720 28106278201787497   78201787497     19012026000000000010839077000010                         0900000000000010100000000000000000000000000000000000000   000000000000000000000027004        170272810627     
0010001300066U 060000000000000000000000000000000000000000000000000000000000000000000000108390000000000105690000000000000000000000000000001501202616012026            000000000000000                              000                           
0010001300067T 060424980000000031720 28106278201787545   78201787545     19012026000000000010839077000010                         0900000000000010610000000000000000000000000000000000000   000000000000000000000022561        170272810627     
0010001300068U 060000000000000000000000000000000000000000000000000000000000000000000000108390000000000106140000000000000000000000000000001501202615012026            000000000000000                              000                           
0010001300069T 060424980000000031720 28106278201787551   78201787551     19012026000000000010839079000010                         0900000000000010100000000000000000000000000000000000000   000000000000000000000027004        170272810627     
0010001300070U 060000000000000000000000000000000000000000000000000000000000000000000000108390000000000105690000000000000000000000000000001501202616012026            000000000000000                              000                           
0010001300071T 060424980000000031720 28106278201787594   78201787594     19012026000000000010839208000500                         0900000000000010610000000000000000000000000000000000000   000000000000000000000022561        170272810627     
0010001300072U 060000000000000000000000000000000000000000000000000000000000000000000000108390000000000106140000000000000000000000000000001501202615012026            000000000000000                              000                           
0010001300073T 060424980000000031720 28106278201787635   78201787635     19012026000000000028559001016373                         0900000000000010060000000000000000000000000000000000000   000000000000000000000027033        170272810627     
0010001300074U 060000000000000000000000000000000000000000000000000000000000000000000000285590000000000282890000000000000000000000000000001501202616012026            000000000000000                              000                           
0010001300075T 060424980000000031720 28106278201787779   78201787779     19012026000000000010839260000010                         0900000000000010610000000000000000000000000000000000000   000000000000000000000022561        170272810627     
0010001300076U 060000000000000000000000000000000000000000000000000000000000000000000000108390000000000106140000000000000000000000000000001501202615012026            000000000000000                              000                           
0010001300077T 060424980000000031720 28106278201788052   78201788052     2001202600000000001083900105027X                         0900000000000010060000000000000000000000000000000000000   000000000000000000000027033        170272810627     
0010001300078U 060000000000000000000000000000000000000000000000000000000000000000000000108390000000000105690000000000000000000000000000001501202616012026            000000000000000                              000                           
0010001300079T 060424980000000031720 28106278201788136   78201788136     20012026000000000010839260000010                         0900000000000010610000000000000000000000000000000000000   000000000000000000000022561        170272810627     
0010001300080U 060000000000000000000000000000000000000000000000000000000000000000000000108390000000000106140000000000000000000000000000001501202615012026            000000000000000                              000                           
0010001300081T 060424980000000031720 28106278201788233   78201788233     21012026000000000010839341077760                         0900000000000010100000000000000000000000000000000000000   000000000000000000000027004        170272810627     
0010001300082U 060000000000000000000000000000000000000000000000000000000000000000000000108390000000000105690000000000000000000000000000001501202616012026            000000000000000                              000                           
0010001300083T 060424980000000031720 28106278201788275   78201788275     22012026000000000028559104006380                         0900000000000010100000000000000000000000000000000000000   000000000000000000000027004        170272810627     
0010001300084U 060000000000000000000000000000000000000000000000000000000000000000000000285590000000000282890000000000000000000000000000001501202616012026            000000000000000                              000                           
0010001300085T 060424980000000031720 28106278201788463   78201788463     22012026000000000010839341007060                         0900000000000010100000000000000000000000000000000000000   000000000000000000000027004        170272810627     
0010001300086U 060000000000000000000000000000000000000000000000000000000000000000000000108390000000000105690000000000000000000000000000001501202616012026            000000000000000                              000                           
0010001300087T 060424980000000031720 28106278201788486   78201788486     22012026000000000010839341007060                         0900000000000010100000000000000000000000000000000000000   000000000000000000000027004        170272810627     
0010001300088U 060000000000000000000000000000000000000000000000000000000000000000000000108390000000000105690000000000000000000000000000001501202616012026            000000000000000                              000                           
0010001300089T 060424980000000031720 28106278201788805   78201788805     2201202600000000002855900101981X                         0900000000000010610000000000000000000000000000000000000   000000000000000000000022561        170272810627     
0010001300090U 060000000000000000000000000000000000000000000000000000000000000000000000285590000000000283340000000000000000000000000000001501202615012026            000000000000000                              000                           
0010001300091T 060424980000000031720 28106278201789656   78201789656     2301202600000000002855900101981X                         0900000000000010610000000000000000000000000000000000000   000000000000000000000022561        170272810627     
0010001300092U 060000000000000000000000000000000000000000000000000000000000000000000000285590000000000283340000000000000000000000000000001501202615012026            000000000000000                              000                           
0010001300093T 060424980000000031720 28106278201789785   78201789785     2301202600000000001083900100023X                         0900000000000010060000000000000000000000000000000000000   000000000000000000000027033        170272810627     
0010001300094U 060000000000000000000000000000000000000000000000000000000000000000000000108390000000000105690000000000000000000000000000001501202616012026            000000000000000                              000                           
0010001300095T 060424980000000031720 28106278201789788   78201789788     23012026000000000028559323000010                         0900000000000010610000000000000000000000000000000000000   000000000000000000000022561        170272810627     
0010001300096U 060000000000000000000000000000000000000000000000000000000000000000000000285590000000000283340000000000000000000000000000001501202615012026            000000000000000                              000                           
0010001300097T 060424980000000031720 28106278201789806   78201789806     23012026000000000010839001016403                         0900000000000010040000000000000000000000000000000000000   000000000000000000000027034        170272810627     
0010001300098U 060000000000000000000000000000000000000000000000000000000000000000000000108390000000000105690000000000000000000000000000001501202616012026            000000000000000                              000                           
0010001300099T 060424980000000031720 28106278201789831   78201789831     23012026000000000010839001009636                         0900000000000010020000000000000000000000000000000000000   000000000000000000000027033        170272810627     
0010001300100U 060000000000000000000000000000000000000000000000000000000000000000000000108390000000000105690000000000000000000000000000001501202616012026            000000000000000                              000                           
0010001300101T 060424980000000031720 28106278201789847   78201789847     23012026000000000010839341065400                         0900000000000010100000000000000000000000000000000000000   000000000000000000000027004        170272810627     
0010001300102U 060000000000000000000000000000000000000000000000000000000000000000000000108390000000000105690000000000000000000000000000001501202616012026            000000000000000                              000                           
0010001300103T 060424980000000031720 28106278201789849   78201789849     23012026000000000010839001008958                         0900000000000010040000000000000000000000000000000000000   000000000000000000000027034        170272810627     
0010001300104U 060000000000000000000000000000000000000000000000000000000000000000000000108390000000000105690000000000000000000000000000001501202616012026            000000000000000                              000                           
0010001300105T 060424980000000031720 28106278201789853   78201789853     23012026000000000010839341065400                         0900000000000010100000000000000000000000000000000000000   000000000000000000000027004        170272810627     
0010001300106U 060000000000000000000000000000000000000000000000000000000000000000000000108390000000000105690000000000000000000000000000001501202616012026            000000000000000                              000                           
0010001300107T 060424980000000031720 28106278201789863   78201789863     23012026000000000010839341065400                         0900000000000010100000000000000000000000000000000000000   000000000000000000000027004        170272810627     
0010001300108U 060000000000000000000000000000000000000000000000000000000000000000000000108390000000000105690000000000000000000000000000001501202616012026            000000000000000                              000                           
0010001300109T 060575090000000001945 37110568306713854   78306713854     15012026000000000010839748007360                         0900000000000010100000000000000000000000000000000000000   000000000000000000000018304        170273711056     
0010001300110U 060000000000000000000000000000000000000000000000000000000000000000000000108390000000000106560000000000000000000000000000001501202616012026            000000000000000                              000                           
0010001300111T 060424980000000031720 28106278201789869   78201789869     2301202600000000001083900100023X                         0900000000000010060000000000000000000000000000000000000   000000000000000000000027033        170272810627     
0010001300112U 060000000000000000000000000000000000000000000000000000000000000000000000108390000000000105690000000000000000000000000000001501202616012026            000000000000000                              000                           
0010001300113T 060575090000000001945 37110568306715710   78306715710     15012026000000000010839104024420                         0900000000000010100000000000000000000000000000000000000   000000000000000000000018304        170273711056     
0010001300114U 060000000000000000000000000000000000000000000000000000000000000000000000108390000000000106560000000000000000000000000000001501202616012026            000000000000000                              000                           
0010001300115T 060424980000000031720 28106278201789881   78201789881     23012026000000000010839077000010                         0900000000000010610000000000000000000000000000000000000   000000000000000000000022561        170272810627     
0010001300116U 060000000000000000000000000000000000000000000000000000000000000000000000108390000000000106140000000000000000000000000000001501202615012026            000000000000000                              000                           
0010001300117T 060575090000000001945 37110568306715986   78306715986     15012026000000000010839237036860                         0900000000000010100000000000000000000000000000000000000   000000000000000000000018304        170273711056     
0010001300118U 060000000000000000000000000000000000000000000000000000000000000000000000108390000000000106560000000000000000000000000000001501202616012026            000000000000000                              000                           
0010001300119T 060424980000000031720 28106278201789953   78201789953     2301202600000000001083900101981X                         0900000000000010610000000000000000000000000000000000000   000000000000000000000022561        170272810627     
0010001300120U 060000000000000000000000000000000000000000000000000000000000000000000000108390000000000106140000000000000000000000000000001501202615012026            000000000000000                              000                           
0010001300121T 060575090000000001945 37110568306716666   78306716666     15012026000000000028559001014141                         0900000000000010060000000000000000000000000000000000000   000000000000000000000018333        170273711056     
0010001300122U 060000000000000000000000000000000000000000000000000000000000000000000000285590000000000283760000000000000000000000000000001501202616012026            000000000000000                              000                           
0010001300123T 060424980000000031720 28106278201790022   78201790022     23012026000000000010839509000010                         0900000000000010100000000000000000000000000000000000000   000000000000000000000027004        170272810627     
0010001300124U 060000000000000000000000000000000000000000000000000000000000000000000000108390000000000105690000000000000000000000000000001501202616012026            000000000000000                              000                           
0010001300125T 060575090000000001945 37110568306717391   78306717391     1501202600000000002855900101981X                         0900000000000010610000000000000000000000000000000000000   000000000000000000000018361        170273711056     
0010001300126U 060000000000000000000000000000000000000000000000000000000000000000000000285590000000000283760000000000000000000000000000001501202616012026            000000000000000                              000                           
0010001300127T 060424980000000031720 28106278201790194   78201790194     16012026000000000010839077000010                         0900000000000010610000000000000000000000000000000000000   000000000000000000000022561        170272810627     
0010001300128U 060000000000000000000000000000000000000000000000000000000000000000000000108390000000000106140000000000000000000000000000001501202615012026            000000000000000                              000                           
0010001300129T 060575090000000001945 37110568306717743   78306717743     15012026000000000010839341078590                         0900000000000010100000000000000000000000000000000000000   000000000000000000000018304        170273711056     
0010001300130U 060000000000000000000000000000000000000000000000000000000000000000000000108390000000000106560000000000000000000000000000001501202616012026            000000000000000                              000                           
0010001300131T 060424980000000031720 28106278201790260   78201790260     23012026000000000028559077000010                         0900000000000010610000000000000000000000000000000000000   000000000000000000000022561        170272810627     
0010001300132U 060000000000000000000000000000000000000000000000000000000000000000000000285590000000000283340000000000000000000000000000001501202615012026            000000000000000                              000                           
0010001300133T 060575090000000001945 37110568306717917   78306717917     15012026000000000010839033024860                         0900000000000010100000000000000000000000000000000000000   000000000000000000000018304        170273711056     
0010001300134U 060000000000000000000000000000000000000000000000000000000000000000000000108390000000000106560000000000000000000000000000001501202616012026            000000000000000                              000                           
0010001300135T 060424980000000031720 28106278201790273   78201790273     23012026000000000010839001022039                         0900000000000010060000000000000000000000000000000000000   000000000000000000000027033        170272810627     
0010001300136U 060000000000000000000000000000000000000000000000000000000000000000000000108390000000000105690000000000000000000000000000001501202616012026            000000000000000                              000                           
0010001300137T 060575090000000001945 37110568306719268   78306719268     27022026000000000010839033030750                         0900000000000010100000000000000000000000000000000000000   000000000000000000000018304        170273711056     
0010001300138U 060000000000000000000000000000000000000000000000000000000000000000000000108390000000000106560000000000000000000000000000001501202616012026            000000000000000                              000                           
0010001300139T 060424980000000031720 28106278201790275   78201790275     23012026000000000010839001022039                         0900000000000010060000000000000000000000000000000000000   000000000000000000000027033        170272810627     
0010001300140U 060000000000000000000000000000000000000000000000000000000000000000000000108390000000000105690000000000000000000000000000001501202616012026            000000000000000                              000                           
0010001300141T 060575090000000001945 37110568306720149   78306720149     16012026000000000010839341014030                         0900000000000010100000000000000000000000000000000000000   000000000000000000000018304        170273711056     
0010001300142U 060000000000000000000000000000000000000000000000000000000000000000000000108390000000000106560000000000000000000000000000001501202616012026            000000000000000                              000                           
0010001300143T 060424980000000031720 28106278201790277   78201790277     23012026000000000010839001022039                         0900000000000010060000000000000000000000000000000000000   000000000000000000000027033        170272810627     
0010001300144U 060000000000000000000000000000000000000000000000000000000000000000000000108390000000000105690000000000000000000000000000001501202616012026            000000000000000                              000                           
0010001300145T 060575090000000001945 37110568306720171   78306720171     16012026000000000010839341014030                         0900000000000010100000000000000000000000000000000000000   000000000000000000000018304        170273711056     
0010001300146U 060000000000000000000000000000000000000000000000000000000000000000000000108390000000000106560000000000000000000000000000001501202616012026            000000000000000                              000                           
0010001300147T 060424980000000031720 28106278201790280   78201790280     23012026000000000010839001022039                         0900000000000010060000000000000000000000000000000000000   000000000000000000000027033        170272810627     
0010001300148U 060000000000000000000000000000000000000000000000000000000000000000000000108390000000000105690000000000000000000000000000001501202616012026            000000000000000                              000                           
0010001300149T 060575090000000001945 37110568306721144   78306721144     16012026000000000010839001036498                         0900000000000010040000000000000000000000000000000000000   000000000000000000000018334        170273711056     
0010001300150U 060000000000000000000000000000000000000000000000000000000000000000000000108390000000000106560000000000000000000000000000001501202616012026            000000000000000                              000                           
0010001300151T 060424980000000031720 28106278201790425   78201790425     23012026000000000028559001027618                         0900000000000010060000000000000000000000000000000000000   000000000000000000000027033        170272810627     
0010001300152U 060000000000000000000000000000000000000000000000000000000000000000000000285590000000000282890000000000000000000000000000001501202616012026            000000000000000                              000                           
0010001300153T 060575090000000001945 37110568306721850   78306721850     16012026000000000010839001036498                         0900000000000010040000000000000000000000000000000000000   000000000000000000000018334        170273711056     
0010001300154U 060000000000000000000000000000000000000000000000000000000000000000000000108390000000000106560000000000000000000000000000001501202616012026            000000000000000                              000                           
0010001300155T 060424980000000031720 28106278201790496   78201790496     24012026000000000010839336000010                         0900000000000010610000000000000000000000000000000000000   000000000000000000000022561        170272810627     
0010001300156U 060000000000000000000000000000000000000000000000000000000000000000000000108390000000000106140000000000000000000000000000001501202615012026            000000000000000                              000                           
0010001300157T 060575090000000001945 37110568306721879   78306721879     16012026000000000010839077000010                         0900000000000010610000000000000000000000000000000000000   000000000000000000000018361        170273711056     
0010001300158U 060000000000000000000000000000000000000000000000000000000000000000000000108390000000000106560000000000000000000000000000001501202616012026            000000000000000                              000                           
0010001300159T 060424980000000031720 28106278201790526   78201790526     24012026000000000010839542000010                         0900000000000010610000000000000000000000000000000000000   000000000000000000000022561        170272810627     
0010001300160U 060000000000000000000000000000000000000000000000000000000000000000000000108390000000000106140000000000000000000000000000001501202615012026            000000000000000                              000                           
0010001300161T 060575090000000001945 37110568306721925   78306721925     16012026000000000010839077000010                         0900000000000010610000000000000000000000000000000000000   000000000000000000000018361        170273711056     
0010001300162U 060000000000000000000000000000000000000000000000000000000000000000000000108390000000000106560000000000000000000000000000001501202616012026            000000000000000                              000                           
0010001300163T 060424980000000031720 28106278201790559   78201790559     2401202600000000001083900101981X                         0900000000000010610000000000000000000000000000000000000   000000000000000000000022561        170272810627     
0010001300164U 060000000000000000000000000000000000000000000000000000000000000000000000108390000000000106140000000000000000000000000000001501202615012026            000000000000000                              000                           
0010001300165T 060575090000000001945 37110568306721942   78306721942     16012026000000000028559001057312                         0900000000000010060000000000000000000000000000000000000   000000000000000000000018333        170273711056     
0010001300166U 060000000000000000000000000000000000000000000000000000000000000000000000285590000000000283760000000000000000000000000000001501202616012026            000000000000000                              000                           
0010001300167T 060424980000000031720 28106278201790566   78201790566     2401202600000000001083900101981X                         0900000000000010610000000000000000000000000000000000000   000000000000000000000022561        170272810627     
0010001300168U 060000000000000000000000000000000000000000000000000000000000000000000000108390000000000106140000000000000000000000000000001501202615012026            000000000000000                              000                           
0010001300169T 060575090000000001945 37110568306725098   78306725098     17012026000000000010839001051217                         0900000000000010090000000000000000000000000000000000000   000000000000000000000018306        170273711056     
0010001300170U 060000000000000000000000000000000000000000000000000000000000000000000000108390000000000106560000000000000000000000000000001501202616012026            000000000000000                              000                           
0010001300171T 060424980000000031720 28106278201790604   78201790604     2401202600000000001083900101981X                         0900000000000010610000000000000000000000000000000000000   000000000000000000000022561        170272810627     
0010001300172U 060000000000000000000000000000000000000000000000000000000000000000000000108390000000000106140000000000000000000000000000001501202615012026            000000000000000                              000                           
0010001300173T 060575090000000001945 37110568306725584   78306725584     17012026000000000010839001036498                         0900000000000010040000000000000000000000000000000000000   000000000000000000000018334        170273711056     
0010001300174U 060000000000000000000000000000000000000000000000000000000000000000000000108390000000000106560000000000000000000000000000001501202616012026            000000000000000                              000                           
0010001300175T 060424980000000031720 28106278201790612   78201790612     2401202600000000001083900101981X                         0900000000000010610000000000000000000000000000000000000   000000000000000000000022561        170272810627     
0010001300176U 060000000000000000000000000000000000000000000000000000000000000000000000108390000000000106140000000000000000000000000000001501202615012026            000000000000000                              000                           
0010001300177T 060575090000000001945 37110568306727145   78306727145     18012026000000000010839341045250                         0900000000000010100000000000000000000000000000000000000   000000000000000000000018304        170273711056     
0010001300178U 060000000000000000000000000000000000000000000000000000000000000000000000108390000000000106560000000000000000000000000000001501202616012026            000000000000000                              000                           
0010001300179T 060424980000000031720 28106278201790614   78201790614     24012026000000000010839001022039                         0900000000000010060000000000000000000000000000000000000   000000000000000000000027033        170272810627     
0010001300180U 060000000000000000000000000000000000000000000000000000000000000000000000108390000000000105690000000000000000000000000000001501202616012026            000000000000000                              000                           
0010001300181T 060575090000000001945 37110568306727207   78306727207     1801202600000000001083900101981X                         0900000000000010610000000000000000000000000000000000000   000000000000000000000018361        170273711056     
0010001300182U 060000000000000000000000000000000000000000000000000000000000000000000000108390000000000106560000000000000000000000000000001501202616012026            000000000000000                              000                           
0010001300183T 060424980000000031720 28106278201790617   78201790617     24012026000000000028559077000010                         0900000000000010100000000000000000000000000000000000000   000000000000000000000027004        170272810627     
0010001300184U 060000000000000000000000000000000000000000000000000000000000000000000000285590000000000282890000000000000000000000000000001501202616012026            000000000000000                              000                           
0010001300185T 060575090000000001945 37110568306728090   78306728090     18012026000000000010839077000010                         0900000000000010610000000000000000000000000000000000000   000000000000000000000018361        170273711056     
0010001300186U 060000000000000000000000000000000000000000000000000000000000000000000000108390000000000106560000000000000000000000000000001501202616012026            000000000000000                              000                           
0010001300187T 060424980000000031720 28106278201790640   78201790640     24012026000000000010839237009710                         0900000000000010610000000000000000000000000000000000000   000000000000000000000022561        170272810627     
0010001300188U 060000000000000000000000000000000000000000000000000000000000000000000000108390000000000106140000000000000000000000000000001501202615012026            000000000000000                              000                           
0010001300189T 060575090000000001945 37110568306728826   78306728826     1801202600000000002855900101981X                         0900000000000010610000000000000000000000000000000000000   000000000000000000000018361        170273711056     
0010001300190U 060000000000000000000000000000000000000000000000000000000000000000000000285590000000000283760000000000000000000000000000001501202616012026            000000000000000                              000                           
0010001300191T 060424980000000031720 28106278201790643   78201790643     2401202600000000001083900101981X                         0900000000000010610000000000000000000000000000000000000   000000000000000000000022561        170272810627     
0010001300192U 060000000000000000000000000000000000000000000000000000000000000000000000108390000000000106140000000000000000000000000000001501202615012026            000000000000000                              000                           
0010001300193T 060575090000000001945 37110568306729204   78306729204     18012026000000000010839104038280                         0900000000000010100000000000000000000000000000000000000   000000000000000000000018304        170273711056     
0010001300194U 060000000000000000000000000000000000000000000000000000000000000000000000108390000000000106560000000000000000000000000000001501202616012026            000000000000000                              000                           
0010001300195T 060424980000000031720 28106278201790648   78201790648     24012026000000000010839104043660                         0900000000000010100000000000000000000000000000000000000   000000000000000000000027004        170272810627     
0010001300196U 060000000000000000000000000000000000000000000000000000000000000000000000108390000000000105690000000000000000000000000000001501202616012026            000000000000000                              000                           
0010001300197T 060575090000000001945 37110568306729864   78306729864     1801202600000000001083900101981X                         0900000000000010610000000000000000000000000000000000000   000000000000000000000018361        170273711056     
0010001300198U 060000000000000000000000000000000000000000000000000000000000000000000000108390000000000106560000000000000000000000000000001501202616012026            000000000000000                              000                           
0010001300199T 060424980000000031720 28106278201790680   78201790680     2401202600000000001083900101981X                         0900000000000010610000000000000000000000000000000000000   000000000000000000000022561        170272810627     
0010001300200U 060000000000000000000000000000000000000000000000000000000000000000000000108390000000000106140000000000000000000000000000001501202615012026            000000000000000                              000                           
0010001300201T 060575090000000001945 37110568306730854   78306730854     19012026000000000010839237017510                         0900000000000010610000000000000000000000000000000000000   000000000000000000000018361        170273711056     
0010001300202U 060000000000000000000000000000000000000000000000000000000000000000000000108390000000000106560000000000000000000000000000001501202616012026            000000000000000                              000                           
0010001300203T 060424980000000031720 28106278201790724   78201790724     2401202600000000001083900101981X                         0900000000000010610000000000000000000000000000000000000   000000000000000000000022561        170272810627     
0010001300204U 060000000000000000000000000000000000000000000000000000000000000000000000108390000000000106140000000000000000000000000000001501202615012026            000000000000000                              000                           
0010001300205T 060575090000000001945 37110568306730859   78306730859     19012026000000000010839290000010                         0900000000000010610000000000000000000000000000000000000   000000000000000000000018361        170273711056     
0010001300206U 060000000000000000000000000000000000000000000000000000000000000000000000108390000000000106560000000000000000000000000000001501202616012026            000000000000000                              000                           
0010001300207T 060424980000000031720 28106278201790726   78201790726     24012026000000000010839001002542                         0900000000000010040000000000000000000000000000000000000   000000000000000000000027034        170272810627     
0010001300208U 060000000000000000000000000000000000000000000000000000000000000000000000108390000000000105690000000000000000000000000000001501202616012026            000000000000000                              000                           
0010001300209T 060575090000000001945 37110568306731225   78306731225     19012026000000000010839001011193                         0900000000000010040000000000000000000000000000000000000   000000000000000000000018334        170273711056     
0010001300210U 060000000000000000000000000000000000000000000000000000000000000000000000108390000000000106560000000000000000000000000000001501202616012026            000000000000000                              000                           
0010001300211T 060424980000000031720 28106278201790741   78201790741     24012026000000000028559001027618                         0900000000000010060000000000000000000000000000000000000   000000000000000000000027033        170272810627     
0010001300212U 060000000000000000000000000000000000000000000000000000000000000000000000285590000000000282890000000000000000000000000000001501202616012026            000000000000000                              000                           
0010001300213T 060575090000000001945 37110568306731362   78306731362     19012026000000000028559341031300                         0900000000000010100000000000000000000000000000000000000   000000000000000000000018304        170273711056     
0010001300214U 060000000000000000000000000000000000000000000000000000000000000000000000285590000000000283760000000000000000000000000000001501202616012026            000000000000000                              000                           
0010001300215T 060424980000000031720 28106278201790771   78201790771     24012026000000000010839001001295                         0900000000000010070000000000000000000000000000000000000   000000000000000000000027031        170272810627     
0010001300216U 060000000000000000000000000000000000000000000000000000000000000000000000108390000000000105690000000000000000000000000000001501202616012026            000000000000000                              000                           
0010001300217T 060575090000000001945 37110568306731475   78306731475     19012026000000000010839001002429                         0900000000000010060000000000000000000000000000000000000   000000000000000000000018333        170273711056     
0010001300218U 060000000000000000000000000000000000000000000000000000000000000000000000108390000000000106560000000000000000000000000000001501202616012026            000000000000000                              000                           
0010001300219T 060424980000000031720 28106278201790846   78201790846     24012026000000000028559104006390                         0900000000000010610000000000000000000000000000000000000   000000000000000000000022561        170272810627     
0010001300220U 060000000000000000000000000000000000000000000000000000000000000000000000285590000000000283340000000000000000000000000000001501202615012026            000000000000000                              000                           
0010001300221T 060575090000000001945 37110568306732004   78306732004     1901202600000000001083900101981X                         0900000000000010610000000000000000000000000000000000000   000000000000000000000018361        170273711056     
0010001300222U 060000000000000000000000000000000000000000000000000000000000000000000000108390000000000106560000000000000000000000000000001501202616012026            000000000000000                              000                           
0010001300223T 060424980000000031720 28106278201790868   78201790868     2401202600000000002855900101981X                         0900000000000010610000000000000000000000000000000000000   000000000000000000000022561        170272810627     
0010001300224U 060000000000000000000000000000000000000000000000000000000000000000000000285590000000000283340000000000000000000000000000001501202615012026            000000000000000                              000                           
0010001300225T 060575090000000001945 37110568306732129   78306732129     1901202600000000001083900101981X                         0900000000000010610000000000000000000000000000000000000   000000000000000000000018361        170273711056     
0010001300226U 060000000000000000000000000000000000000000000000000000000000000000000000108390000000000106560000000000000000000000000000001501202616012026            000000000000000                              000                           
0010001300227T 060424980000000031720 28106278201790872   78201790872     2401202600000000002855900101981X                         0900000000000010610000000000000000000000000000000000000   000000000000000000000022561        170272810627     
0010001300228U 060000000000000000000000000000000000000000000000000000000000000000000000285590000000000283340000000000000000000000000000001501202615012026            000000000000000                              000                           
0010001300229T 060575090000000001945 37110568306732178   78306732178     1901202600000000001083900101981X                         0900000000000010610000000000000000000000000000000000000   000000000000000000000018361        170273711056     
0010001300230U 060000000000000000000000000000000000000000000000000000000000000000000000108390000000000106560000000000000000000000000000001501202616012026            000000000000000                              000                           
0010001300231T 060424980000000031720 28106278201790874   78201790874     24012026000000000010839104007280                         0900000000000010610000000000000000000000000000000000000   000000000000000000000022561        170272810627     
0010001300232U 060000000000000000000000000000000000000000000000000000000000000000000000108390000000000106140000000000000000000000000000001501202615012026            000000000000000                              000                           
0010001300233T 060575090000000001945 37110568306732261   78306732261     1901202600000000001083900101981X                         0900000000000010610000000000000000000000000000000000000   000000000000000000000018361        170273711056     
0010001300234U 060000000000000000000000000000000000000000000000000000000000000000000000108390000000000106560000000000000000000000000000001501202616012026            000000000000000                              000                           
0010001300235T 060424980000000031720 28106278201790885   78201790885     24012026000000000010839104007280                         0900000000000010610000000000000000000000000000000000000   000000000000000000000022561        170272810627     
0010001300236U 060000000000000000000000000000000000000000000000000000000000000000000000108390000000000106140000000000000000000000000000001501202615012026            000000000000000                              000                           
0010001300237T 060575090000000001945 37110568306732468   78306732468     19012026000000000010839341009110                         0900000000000010100000000000000000000000000000000000000   000000000000000000000018304        170273711056     
0010001300238U 060000000000000000000000000000000000000000000000000000000000000000000000108390000000000106560000000000000000000000000000001501202616012026            000000000000000                              000                           
0010001300239T 060424980000000031720 28106278201790899   78201790899     24012026000000000028559260000010                         0900000000000010610000000000000000000000000000000000000   000000000000000000000022561        170272810627     
0010001300240U 060000000000000000000000000000000000000000000000000000000000000000000000285590000000000283340000000000000000000000000000001501202615012026            000000000000000                              000                           
0010001300241T 060575090000000001945 37110568306732642   78306732642     19012026000000000010839341009110                         0900000000000010100000000000000000000000000000000000000   000000000000000000000018304        170273711056     
0010001300242U 060000000000000000000000000000000000000000000000000000000000000000000000108390000000000106560000000000000000000000000000001501202616012026            000000000000000                              000                           
0010001300243T 060424980000000031720 28106278201790913   78201790913     24012026000000000010839104008550                         0900000000000010100000000000000000000000000000000000000   000000000000000000000027004        170272810627     
0010001300244U 060000000000000000000000000000000000000000000000000000000000000000000000108390000000000105690000000000000000000000000000001501202616012026            000000000000000                              000                           
0010001300245T 060575090000000001945 37110568306732643   78306732643     19012026000000000010839341009110                         0900000000000010100000000000000000000000000000000000000   000000000000000000000018304        170273711056     
0010001300246U 060000000000000000000000000000000000000000000000000000000000000000000000108390000000000106560000000000000000000000000000001501202616012026            000000000000000                              000                           
0010001300247T 060424980000000031720 28106278201790939   78201790939     2401202600000000002855900101981X                         0900000000000010610000000000000000000000000000000000000   000000000000000000000022561        170272810627     
0010001300248U 060000000000000000000000000000000000000000000000000000000000000000000000285590000000000283340000000000000000000000000000001501202615012026            000000000000000                              000                           
0010001300249T 060575090000000001945 37110568306766888   78306766888     21012026000000000010839341007060                         0900000000000010100000000000000000000000000000000000000   000000000000000000000018304        170273711056     
0010001300250U 060000000000000000000000000000000000000000000000000000000000000000000000108390000000000106560000000000000000000000000000001501202616012026            000000000000000                              000                           
0010001300251T 060424980000000031720 28106278201790942   78201790942     24012026000000000010839260000010                         0900000000000010610000000000000000000000000000000000000   000000000000000000000022561        170272810627     
0010001300252U 060000000000000000000000000000000000000000000000000000000000000000000000108390000000000106140000000000000000000000000000001501202615012026            000000000000000                              000                           
0010001300253T 060575090000000001945 37110568306766893   78306766893     21012026000000000010839341007060                         0900000000000010100000000000000000000000000000000000000   000000000000000000000018304        170273711056     
0010001300254U 060000000000000000000000000000000000000000000000000000000000000000000000108390000000000106560000000000000000000000000000001501202616012026            000000000000000                              000                           
0010001300255T 060424980000000031720 28106278201790952   78201790952     2401202600000000002855900101981X                         0900000000000010610000000000000000000000000000000000000   000000000000000000000022561        170272810627     
0010001300256U 060000000000000000000000000000000000000000000000000000000000000000000000285590000000000283340000000000000000000000000000001501202615012026            000000000000000                              000                           
0010001300257T 060575090000000001945 37110568306767143   78306767143     2101202600000000001083900101981X                         0900000000000010610000000000000000000000000000000000000   000000000000000000000018361        170273711056     
0010001300258U 060000000000000000000000000000000000000000000000000000000000000000000000108390000000000106560000000000000000000000000000001501202616012026            000000000000000                              000                           
0010001300259T 060424980000000031720 28106278201790956   78201790956     2401202600000000002855900101981X                         0900000000000010610000000000000000000000000000000000000   000000000000000000000022561        170272810627     
0010001300260U 060000000000000000000000000000000000000000000000000000000000000000000000285590000000000283340000000000000000000000000000001501202615012026            000000000000000                              000                           
0010001300261T 060575090000000001945 37110568306767236   78306767236     22012026000000000010839208000500                         0900000000000010100000000000000000000000000000000000000   000000000000000000000018304        170273711056     
0010001300262U 060000000000000000000000000000000000000000000000000000000000000000000000108390000000000106560000000000000000000000000000001501202616012026            000000000000000                              000                           
0010001300263T 060424980000000031720 28106278201790959   78201790959     24012026000000000010839341076960                         0900000000000010610000000000000000000000000000000000000   000000000000000000000022561        170272810627     
0010001300264U 060000000000000000000000000000000000000000000000000000000000000000000000108390000000000106140000000000000000000000000000001501202615012026            000000000000000                              000                           
0010001300265T 060575090000000001945 37110568306767592   78306767592     22012026000000000010839001030074                         0900000000000010090000000000000000000000000000000000000   000000000000000000000018306        170273711056     
0010001300266U 060000000000000000000000000000000000000000000000000000000000000000000000108390000000000106560000000000000000000000000000001501202616012026            000000000000000                              000                           
0010001300267T 060424980000000031720 28106278201790994   78201790994     24012026000000000028559033045410                         0900000000000010100000000000000000000000000000000000000   000000000000000000000027004        170272810627     
0010001300268U 060000000000000000000000000000000000000000000000000000000000000000000000285590000000000282890000000000000000000000000000001501202616012026            000000000000000                              000                           
0010001300269T 060575090000000001945 37110568306767629   78306767629     2201202600000000001083900101981X                         0900000000000010610000000000000000000000000000000000000   000000000000000000000018361        170273711056     
0010001300270U 060000000000000000000000000000000000000000000000000000000000000000000000108390000000000106560000000000000000000000000000001501202616012026            000000000000000                              000                           
0010001300271T 060424980000000031720 28106278201790996   78201790996     24012026000000000010839748027210                         0900000000000010100000000000000000000000000000000000000   000000000000000000000027004        170272810627     
0010001300272U 060000000000000000000000000000000000000000000000000000000000000000000000108390000000000105690000000000000000000000000000001501202616012026            000000000000000                              000                           
0010001300273T 060575090000000001945 37110568306767965   78306767965     22012026000000000010839033030670                         0900000000000010100000000000000000000000000000000000000   000000000000000000000018304        170273711056     
0010001300274U 060000000000000000000000000000000000000000000000000000000000000000000000108390000000000106560000000000000000000000000000001501202616012026            000000000000000                              000                           
0010001300275T 060424980000000031720 28106278201791017   78201791017     2401202600000000001083900101981X                         0900000000000010610000000000000000000000000000000000000   000000000000000000000022561        170272810627     
0010001300276U 060000000000000000000000000000000000000000000000000000000000000000000000108390000000000106140000000000000000000000000000001501202615012026            000000000000000                              000                           
0010001300277T 060575090000000001945 37110568306768392   78306768392     22012026000000000028559001016772                         0900000000000010040000000000000000000000000000000000000   000000000000000000000018334        170273711056     
0010001300278U 060000000000000000000000000000000000000000000000000000000000000000000000285590000000000283760000000000000000000000000000001501202616012026            000000000000000                              000                           
0010001300279T 060424980000000031720 28106278201791018   78201791018     24012026000000000028559104047270                         0900000000000010610000000000000000000000000000000000000   000000000000000000000022561        170272810627     
0010001300280U 060000000000000000000000000000000000000000000000000000000000000000000000285590000000000283340000000000000000000000000000001501202615012026            000000000000000                              000                           
0010001300281T 060575090000000001945 37110568306768393   78306768393     2201202600000000001083900101981X                         0900000000000010610000000000000000000000000000000000000   000000000000000000000018361        170273711056     
0010001300282U 060000000000000000000000000000000000000000000000000000000000000000000000108390000000000106560000000000000000000000000000001501202616012026            000000000000000                              000                           
0010001300283T 060424980000000031720 28106278201791024   78201791024     24012026000000000010839341048610                         0900000000000010610000000000000000000000000000000000000   000000000000000000000022561        170272810627     
0010001300284U 060000000000000000000000000000000000000000000000000000000000000000000000108390000000000106140000000000000000000000000000001501202615012026            000000000000000                              000                           
0010001300285T 060575090000000001945 37110568306768825   78306768825     22012026000000000010839197000010                         0900000000000010610000000000000000000000000000000000000   000000000000000000000018361        170273711056     
0010001300286U 060000000000000000000000000000000000000000000000000000000000000000000000108390000000000106560000000000000000000000000000001501202616012026            000000000000000                              000                           
0010001300287T 060424980000000031720 28106278201791025   78201791025     24012026000000000028559104006990                         0900000000000010610000000000000000000000000000000000000   000000000000000000000022561        170272810627     
0010001300288U 060000000000000000000000000000000000000000000000000000000000000000000000285590000000000283340000000000000000000000000000001501202615012026            000000000000000                              000                           
0010001300289T 060575090000000001945 37110568306768842   78306768842     2201202600000000002855900101981X                         0900000000000010610000000000000000000000000000000000000   000000000000000000000018361        170273711056     
0010001300290U 060000000000000000000000000000000000000000000000000000000000000000000000285590000000000283760000000000000000000000000000001501202616012026            000000000000000                              000                           
0010001300291T 060424980000000031720 28106278201791034   78201791034     2401202600000000001083900101981X                         0900000000000010610000000000000000000000000000000000000   000000000000000000000022561        170272810627     
0010001300292U 060000000000000000000000000000000000000000000000000000000000000000000000108390000000000106140000000000000000000000000000001501202615012026            000000000000000                              000                           
0010001300293T 060575090000000001945 37110568306768902   78306768902     2201202600000000002855900101981X                         0900000000000010610000000000000000000000000000000000000   000000000000000000000018361        170273711056     
0010001300294U 060000000000000000000000000000000000000000000000000000000000000000000000285590000000000283760000000000000000000000000000001501202616012026            000000000000000                              000                           
0010001300295T 060424980000000031720 28106278201791056   78201791056     24012026000000000010839260000010                         0900000000000010610000000000000000000000000000000000000   000000000000000000000022561        170272810627     
0010001300296U 060000000000000000000000000000000000000000000000000000000000000000000000108390000000000106140000000000000000000000000000001501202615012026            000000000000000                              000                           
0010001300297T 060575090000000001945 37110568306768953   78306768953     22012026000000000028559001044458                         0900000000000010040000000000000000000000000000000000000   000000000000000000000018334        170273711056     
0010001300298U 060000000000000000000000000000000000000000000000000000000000000000000000285590000000000283760000000000000000000000000000001501202616012026            000000000000000                              000                           
0010001300299T 060424980000000031720 28106278201791088   78201791088     2401202600000000001083900103178X                         0900000000000010060000000000000000000000000000000000000   000000000000000000000027033        170272810627     
0010001300300U 060000000000000000000000000000000000000000000000000000000000000000000000108390000000000105690000000000000000000000000000001501202616012026            000000000000000                              000                           
0010001300301T 060575090000000001945 37110568306769055   78306769055     22012026000000000028559001044458                         0900000000000010040000000000000000000000000000000000000   000000000000000000000018334        170273711056     
0010001300302U 060000000000000000000000000000000000000000000000000000000000000000000000285590000000000283760000000000000000000000000000001501202616012026            000000000000000                              000                           
0010001300303T 060424980000000031720 28106278201791106   78201791106     24012026000000000010839104013830                         0900000000000010610000000000000000000000000000000000000   000000000000000000000022561        170272810627     
0010001300304U 060000000000000000000000000000000000000000000000000000000000000000000000108390000000000106140000000000000000000000000000001501202615012026            000000000000000                              000                           
0010001300305T 060575090000000001945 37110568306769526   78306769526     22012026000000000010839237007860                         0900000000000010610000000000000000000000000000000000000   000000000000000000000018361        170273711056     
0010001300306U 060000000000000000000000000000000000000000000000000000000000000000000000108390000000000106560000000000000000000000000000001501202616012026            000000000000000                              000                           
0010001300307T 060424980000000031720 28106278201791118   78201791118     2401202600000000002855900101981X                         0900000000000010610000000000000000000000000000000000000   000000000000000000000022561        170272810627     
0010001300308U 060000000000000000000000000000000000000000000000000000000000000000000000285590000000000283340000000000000000000000000000001501202615012026            000000000000000                              000                           
0010001300309T 060575090000000001945 37110568306769688   78306769688     22012026000000000028559001057339                         0900000000000010040000000000000000000000000000000000000   000000000000000000000018334        170273711056     
0010001300310U 060000000000000000000000000000000000000000000000000000000000000000000000285590000000000283760000000000000000000000000000001501202616012026            000000000000000                              000                           
0010001300311T 060424980000000031720 28106278201791121   78201791121     24012026000000000010839341076960                         0900000000000010610000000000000000000000000000000000000   000000000000000000000022561        170272810627     
0010001300312U 060000000000000000000000000000000000000000000000000000000000000000000000108390000000000106140000000000000000000000000000001501202615012026            000000000000000                              000                           
0010001300313T 060575090000000001945 37110568306769758   78306769758     22012026000000000010839260000010                         0900000000000010610000000000000000000000000000000000000   000000000000000000000018361        170273711056     
0010001300314U 060000000000000000000000000000000000000000000000000000000000000000000000108390000000000106560000000000000000000000000000001501202616012026            000000000000000                              000                           
0010001300315T 060424980000000031720 28106278201791122   78201791122     24012026000000000028559380000010                         0900000000000010610000000000000000000000000000000000000   000000000000000000000022561        170272810627     
0010001300316U 060000000000000000000000000000000000000000000000000000000000000000000000285590000000000283340000000000000000000000000000001501202615012026            000000000000000                              000                           
0010001300317T 060575090000000001945 37110568306769765   78306769765     22012026000000000010839237010620                         0900000000000010100000000000000000000000000000000000000   000000000000000000000018304        170273711056     
0010001300318U 060000000000000000000000000000000000000000000000000000000000000000000000108390000000000106560000000000000000000000000000001501202616012026            000000000000000                              000                           
0010001300319T 060424980000000031720 28106278201791124   78201791124     24012026000000000010839104000300                         0900000000000010100000000000000000000000000000000000000   000000000000000000000027004        170272810627     
0010001300320U 060000000000000000000000000000000000000000000000000000000000000000000000108390000000000105690000000000000000000000000000001501202616012026            000000000000000                              000                           
0010001300321T 060575090000000001945 37110568306770017   78306770017     23012026000000000010839237009570                         0900000000000010610000000000000000000000000000000000000   000000000000000000000018361        170273711056     
0010001300322U 060000000000000000000000000000000000000000000000000000000000000000000000108390000000000106560000000000000000000000000000001501202616012026            000000000000000                              000                           
0010001300323T 060424980000000031720 28106278201791126   78201791126     24012026000000000010839001001295                         0900000000000010060000000000000000000000000000000000000   000000000000000000000027033        170272810627     
0010001300324U 060000000000000000000000000000000000000000000000000000000000000000000000108390000000000105690000000000000000000000000000001501202616012026            000000000000000                              000                           
0010001300325T 060575090000000001945 37110568306770038   78306770038     23012026000000000010839237009570                         0900000000000010610000000000000000000000000000000000000   000000000000000000000018361        170273711056     
0010001300326U 060000000000000000000000000000000000000000000000000000000000000000000000108390000000000106560000000000000000000000000000001501202616012026            000000000000000                              000                           
0010001300327T 060424980000000031720 28106278201791129   78201791129     24012026000000000028559001016403                         0900000000000010070000000000000000000000000000000000000   000000000000000000000027031        170272810627     
0010001300328U 060000000000000000000000000000000000000000000000000000000000000000000000285590000000000282890000000000000000000000000000001501202616012026            000000000000000                              000                           
0010001300329T 060575090000000001945 37110568306770118   78306770118     23012026000000000010839260000010                         0900000000000010610000000000000000000000000000000000000   000000000000000000000018361        170273711056     
0010001300330U 060000000000000000000000000000000000000000000000000000000000000000000000108390000000000106560000000000000000000000000000001501202616012026            000000000000000                              000                           
0010001300331T 060424980000000031720 28106278201791135   78201791135     24012026000000000010839001001295                         0900000000000010060000000000000000000000000000000000000   000000000000000000000027033        170272810627     
0010001300332U 060000000000000000000000000000000000000000000000000000000000000000000000108390000000000105690000000000000000000000000000001501202616012026            000000000000000                              000                           
0010001300333T 060575090000000001945 37110568306770140   78306770140     23012026000000000010839237009570                         0900000000000010610000000000000000000000000000000000000   000000000000000000000018361        170273711056     
0010001300334U 060000000000000000000000000000000000000000000000000000000000000000000000108390000000000106560000000000000000000000000000001501202616012026            000000000000000                              000                           
0010001300335T 060424980000000031720 28106278201791137   78201791137     24012026000000000010839001001295                         0900000000000010060000000000000000000000000000000000000   000000000000000000000027033        170272810627     
0010001300336U 060000000000000000000000000000000000000000000000000000000000000000000000108390000000000105690000000000000000000000000000001501202616012026            000000000000000                              000                           
0010001300337T 060575090000000001945 37110568306770157   78306770157     23012026000000000010839237009570                         0900000000000010610000000000000000000000000000000000000   000000000000000000000018361        170273711056     
0010001300338U 060000000000000000000000000000000000000000000000000000000000000000000000108390000000000106560000000000000000000000000000001501202616012026            000000000000000                              000                           
0010001300339T 060424980000000031720 28106278201791140   78201791140     24012026000000000028559260000010                         0900000000000010610000000000000000000000000000000000000   000000000000000000000022561        170272810627     
0010001300340U 060000000000000000000000000000000000000000000000000000000000000000000000285590000000000283340000000000000000000000000000001501202615012026            000000000000000                              000                           
0010001300341T 060575090000000001945 37110568306770172   78306770172     23012026000000000010839237009570                         0900000000000010610000000000000000000000000000000000000   000000000000000000000018361        170273711056     
0010001300342U 060000000000000000000000000000000000000000000000000000000000000000000000108390000000000106560000000000000000000000000000001501202616012026            000000000000000                              000                           
0010001300343T 060424980000000031720 28106278201791153   78201791153     24012026000000000010839104035630                         0900000000000010610000000000000000000000000000000000000   000000000000000000000022561        170272810627     
0010001300344U 060000000000000000000000000000000000000000000000000000000000000000000000108390000000000106140000000000000000000000000000001501202615012026            000000000000000                              000                           
0010001300345T 060575090000000001945 37110568306770175   78306770175     23012026000000000010839237009570                         0900000000000010610000000000000000000000000000000000000   000000000000000000000018361        170273711056     
0010001300346U 060000000000000000000000000000000000000000000000000000000000000000000000108390000000000106560000000000000000000000000000001501202616012026            000000000000000                              000                           
0010001300347T 060424980000000031720 28106278201791169   78201791169     2401202600000000001083900101981X                         0900000000000010610000000000000000000000000000000000000   000000000000000000000022561        170272810627     
0010001300348U 060000000000000000000000000000000000000000000000000000000000000000000000108390000000000106140000000000000000000000000000001501202615012026            000000000000000                              000                           
0010001300349T 060575090000000001945 37110568306770279   78306770279     23012026000000000010839077000010                         0900000000000010610000000000000000000000000000000000000   000000000000000000000018361        170273711056     
0010001300350U 060000000000000000000000000000000000000000000000000000000000000000000000108390000000000106560000000000000000000000000000001501202616012026            000000000000000                              000                           
0010001300351T 060424980000000031720 28106278201791172   78201791172     24012026000000000010839001016403                         0900000000000010060000000000000000000000000000000000000   000000000000000000000027033        170272810627     
0010001300352U 060000000000000000000000000000000000000000000000000000000000000000000000108390000000000105690000000000000000000000000000001501202616012026            000000000000000                              000                           
0010001300353T 060575090000000001945 37110568306770308   78306770308     23012026000000000010839260000010                         0900000000000010100000000000000000000000000000000000000   000000000000000000000018304        170273711056     
0010001300354U 060000000000000000000000000000000000000000000000000000000000000000000000108390000000000106560000000000000000000000000000001501202616012026            000000000000000                              000                           
0010001300355T 060424980000000031720 28106278201791175   78201791175     24012026000000000028559341049960                         0900000000000010610000000000000000000000000000000000000   000000000000000000000022561        170272810627     
0010001300356U 060000000000000000000000000000000000000000000000000000000000000000000000285590000000000283340000000000000000000000000000001501202615012026            000000000000000                              000                           
0010001300357T 060575090000000001945 37110568306770328   78306770328     23012026000000000010839341014030                         0900000000000010100000000000000000000000000000000000000   000000000000000000000018304        170273711056     
0010001300358U 060000000000000000000000000000000000000000000000000000000000000000000000108390000000000106560000000000000000000000000000001501202616012026            000000000000000                              000                           
0010001300359T 060424980000000031720 28106278201791178   78201791178     2401202600000000001083900101981X                         0900000000000010610000000000000000000000000000000000000   000000000000000000000022561        170272810627     
0010001300360U 060000000000000000000000000000000000000000000000000000000000000000000000108390000000000106140000000000000000000000000000001501202615012026            000000000000000                              000                           
0010001300361T 060575090000000001945 37110568306770493   78306770493     23012026000000000010839033047340                         0900000000000010100000000000000000000000000000000000000   000000000000000000000018304        170273711056     
0010001300362U 060000000000000000000000000000000000000000000000000000000000000000000000108390000000000106560000000000000000000000000000001501202616012026            000000000000000                              000                           
0010001300363T 060424980000000031720 28106278201791199   78201791199     24012026000000000028559104007450                         0900000000000010610000000000000000000000000000000000000   000000000000000000000022561        170272810627     
0010001300364U 060000000000000000000000000000000000000000000000000000000000000000000000285590000000000283340000000000000000000000000000001501202615012026            000000000000000                              000                           
0010001300365T 060575090000000001945 37110568306770506   78306770506     23012026000000000010839104035190                         0900000000000010100000000000000000000000000000000000000   000000000000000000000018304        170273711056     
0010001300366U 060000000000000000000000000000000000000000000000000000000000000000000000108390000000000106560000000000000000000000000000001501202616012026            000000000000000                              000                           
0010001300367T 060424980000000031720 28106278201791201   78201791201     24012026000000000028559341076960                         0900000000000010610000000000000000000000000000000000000   000000000000000000000022561        170272810627     
0010001300368U 060000000000000000000000000000000000000000000000000000000000000000000000285590000000000283340000000000000000000000000000001501202615012026            000000000000000                              000                           
0010001300369T 060575090000000001945 37110568306770644   78306770644     23012026000000000010839001086185                         0900000000000010060000000000000000000000000000000000000   000000000000000000000018333        170273711056     
0010001300370U 060000000000000000000000000000000000000000000000000000000000000000000000108390000000000106560000000000000000000000000000001501202616012026            000000000000000                              000                           
0010001300371T 060424980000000031720 28106278201791204   78201791204     24012026000000000010839001032859                         0900000000000010060000000000000000000000000000000000000   000000000000000000000027033        170272810627     
0010001300372U 060000000000000000000000000000000000000000000000000000000000000000000000108390000000000105690000000000000000000000000000001501202616012026            000000000000000                              000                           
0010001300373T 060575090000000001945 37110568306770917   78306770917     23012026000000000010839104006440                         0900000000000010100000000000000000000000000000000000000   000000000000000000000018304        170273711056     
0010001300374U 060000000000000000000000000000000000000000000000000000000000000000000000108390000000000106560000000000000000000000000000001501202616012026            000000000000000                              000                           
0010001300375T 060424980000000031720 28106278201791205   78201791205     24012026000000000010839509000010                         0900000000000010100000000000000000000000000000000000000   000000000000000000000027004        170272810627     
0010001300376U 060000000000000000000000000000000000000000000000000000000000000000000000108390000000000105690000000000000000000000000000001501202616012026            000000000000000                              000                           
0010001300377T 060575090000000001945 37110568306770931   78306770931     23012026000000000010839033047340                         0900000000000010100000000000000000000000000000000000000   000000000000000000000018304        170273711056     
0010001300378U 060000000000000000000000000000000000000000000000000000000000000000000000108390000000000106560000000000000000000000000000001501202616012026            000000000000000                              000                           
0010001300379T 060424980000000031720 28106278201791206   78201791206     24012026000000000010839001000442                         0900000000000010060000000000000000000000000000000000000   000000000000000000000027033        170272810627     
0010001300380U 060000000000000000000000000000000000000000000000000000000000000000000000108390000000000105690000000000000000000000000000001501202616012026            000000000000000                              000                           
0010001300381T 060575090000000001945 37110568306770973   78306770973     23012026000000000010839208000500                         0900000000000010100000000000000000000000000000000000000   000000000000000000000018304        170273711056     
0010001300382U 060000000000000000000000000000000000000000000000000000000000000000000000108390000000000106560000000000000000000000000000001501202616012026            000000000000000                              000                           
0010001300383T 060424980000000031720 28106278201791207   78201791207     25012026000000000010839341056260                         0900000000000010610000000000000000000000000000000000000   000000000000000000000022561        170272810627     
0010001300384U 060000000000000000000000000000000000000000000000000000000000000000000000108390000000000106140000000000000000000000000000001501202615012026            000000000000000                              000                           
0010001300385T 060575090000000001945 37110568306771005   78306771005     2301202600000000001083900101981X                         0900000000000010610000000000000000000000000000000000000   000000000000000000000018361        170273711056     
0010001300386U 060000000000000000000000000000000000000000000000000000000000000000000000108390000000000106560000000000000000000000000000001501202616012026            000000000000000                              000                           
0010001300387T 060424980000000031720 28106278201791208   78201791208     25012026000000000010839380000010                         0900000000000010610000000000000000000000000000000000000   000000000000000000000022561        170272810627     
0010001300388U 060000000000000000000000000000000000000000000000000000000000000000000000108390000000000106140000000000000000000000000000001501202615012026            000000000000000                              000                           
0010001300389T 060575090000000001945 37110568306771140   78306771140     23012026000000000028559104006440                         0900000000000010610000000000000000000000000000000000000   000000000000000000000018361        170273711056     
0010001300390U 060000000000000000000000000000000000000000000000000000000000000000000000285590000000000283760000000000000000000000000000001501202616012026            000000000000000                              000                           
0010001300391T 060424980000000031720 28106278201791209   78201791209     25012026000000000010839077000010                         0900000000000010610000000000000000000000000000000000000   000000000000000000000022561        170272810627     
0010001300392U 060000000000000000000000000000000000000000000000000000000000000000000000108390000000000106140000000000000000000000000000001501202615012026            000000000000000                              000                           
0010001300393T 060575090000000001945 37110568306771293   78306771293     23012026000000000010839003000810                         0900000000000010100000000000000000000000000000000000000   000000000000000000000018304        170273711056     
0010001300394U 060000000000000000000000000000000000000000000000000000000000000000000000108390000000000106560000000000000000000000000000001501202616012026            000000000000000                              000                           
0010001300395T 060424980000000031720 28106278201791210   78201791210     25012026000000000028559260000010                         0900000000000010610000000000000000000000000000000000000   000000000000000000000022561        170272810627     
0010001300396U 060000000000000000000000000000000000000000000000000000000000000000000000285590000000000283340000000000000000000000000000001501202615012026            000000000000000                              000                           
0010001300397T 060575090000000001945 37110568306771385   78306771385     23012026000000000028559077000010                         0900000000000010610000000000000000000000000000000000000   000000000000000000000018361        170273711056     
0010001300398U 060000000000000000000000000000000000000000000000000000000000000000000000285590000000000283760000000000000000000000000000001501202616012026            000000000000000                              000                           
0010001300399T 060424980000000031720 28106278201791212   78201791212     25012026000000000010839260000010                         0900000000000010610000000000000000000000000000000000000   000000000000000000000022561        170272810627     
0010001300400U 060000000000000000000000000000000000000000000000000000000000000000000000108390000000000106140000000000000000000000000000001501202615012026            000000000000000                              000                           
0010001300401T 060575090000000001945 37110568306771790   78306771790     23012026000000000010839633000010                         0900000000000010100000000000000000000000000000000000000   000000000000000000000018304        170273711056     
0010001300402U 060000000000000000000000000000000000000000000000000000000000000000000000108390000000000106560000000000000000000000000000001501202616012026            000000000000000                              000                           
0010001300403T 060424980000000031720 28106278201791213   78201791213     25012026000000000010839077000010                         0900000000000010610000000000000000000000000000000000000   000000000000000000000022561        170272810627     
0010001300404U 060000000000000000000000000000000000000000000000000000000000000000000000108390000000000106140000000000000000000000000000001501202615012026            000000000000000                              000                           
0010001300405T 060575090000000001945 37110568306771865   78306771865     23012026000000000010839341058630                         0900000000000010100000000000000000000000000000000000000   000000000000000000000018304        170273711056     
0010001300406U 060000000000000000000000000000000000000000000000000000000000000000000000108390000000000106560000000000000000000000000000001501202616012026            000000000000000                              000                           
0010001300407T 060424980000000031720 28106278201791214   78201791214     2501202600000000001083900101981X                         0900000000000010610000000000000000000000000000000000000   000000000000000000000022561        170272810627     
0010001300408U 060000000000000000000000000000000000000000000000000000000000000000000000108390000000000106140000000000000000000000000000001501202615012026            000000000000000                              000                           
0010001300409T 060575090000000001945 37110568306771930   78306771930     2301202600000000001083900101981X                         0900000000000010610000000000000000000000000000000000000   000000000000000000000018361        170273711056     
0010001300410U 060000000000000000000000000000000000000000000000000000000000000000000000108390000000000106560000000000000000000000000000001501202616012026            000000000000000                              000                           
0010001300411T 060424980000000031720 28106278201791215   78201791215     2501202600000000002855900101981X                         0900000000000010610000000000000000000000000000000000000   000000000000000000000022561        170272810627     
0010001300412U 060000000000000000000000000000000000000000000000000000000000000000000000285590000000000283340000000000000000000000000000001501202615012026            000000000000000                              000                           
