00100000         2005090260001600028320920014       0338200000000052841 MUTUA DE ASSISTENCIA DOS PROFIBANCO DO BRASIL                         20501202602160400558803000000303877689PROCESSAMEN                                                 
00100011T0100020 20005090260001600028320920014       0338200000000052841 MUTUA DE ASSISTENCIA DOS PROFI                                                                                000000000501202600000000  000000000                      
0010001300001T 060424980000000031720 28106278201780369   78201780369     1501202600000000001040000101981X                         0900000000000010610000000000000000000000000000000000000   000000000000000000000022561        170272810627     
0010001300002U 060000000000000000000000000000000000000000000000000000000000000000000000104000000000000101750000000000000000000000000000000501202605012026            000000000000000                              000                           
0010001300003T 060424980000000031720 28106278201782091   78201782091     01012026000000000010920001042498                         0900000000000010040000000000000000000000000000000000000   000000000000000000000027034        170272810627     
0010001300004U 060000000000000000000000000000000000000000000000000000000000000000000000109200000000000106500000000000000000000000000000000501202606012026            000000000000000                              000                           
0010001300005T 060424980000000031720 28106278201782375   78201782375     1201202600000000001083900101981X                         0900000000000010610000000000000000000000000000000000000   000000000000000000000022561        170272810627     
0010001300006U 060000000000000000000000000000000000000000000000000000000000000000000000108390000000000106140000000000000000000000000000000501202605012026            000000000000000                              000                           
0010001300007T 060424980000000031720 28106278201782377   78201782377     1201202600000000001083900101981X                         0900000000000010610000000000000000000000000000000000000   000000000000000000000022561        170272810627     
0010001300008U 060000000000000000000000000000000000000000000000000000000000000000000000108390000000000106140000000000000000000000000000000501202605012026            000000000000000                              000                           
0010001300009T 060424980000000031720 28106278201782388   78201782388     15022026000000000010920104027800                         0900000000000010100000000000000000000000000000000000000   000000000000000000000027004        170272810627     
0010001300010U 060000000000000000000000000000000000000000000000000000000000000000000000109200000000000106500000000000000000000000000000000501202606012026            000000000000000                              000                           
0010001300011T 060424980000000031720 28106278201782399   78201782399     12012026000000000010839079000010                         0900000000000010100000000000000000000000000000000000000   000000000000000000000027004        170272810627     
0010001300012U 060000000000000000000000000000000000000000000000000000000000000000000000108390000000000105690000000000000000000000000000000501202606012026            000000000000000                              000                           
0010001300013T 060424980000000031720 28106278201782437   78201782437     12012026000000000010839001028444                         0900000000000010060000000000000000000000000000000000000   000000000000000000000027033        170272810627     
0010001300014U 060000000000000000000000000000000000000000000000000000000000000000000000108390000000000105690000000000000000000000000000000501202606012026            000000000000000                              000                           
0010001300015T 060424980000000031720 28106278201782447   78201782447     12012026000000000010839001028444                         0900000000000010060000000000000000000000000000000000000   000000000000000000000027033        170272810627     
0010001300016U 060000000000000000000000000000000000000000000000000000000000000000000000108390000000000105690000000000000000000000000000000501202606012026            000000000000000                              000                           
0010001300017T 060424980000000031720 28106278201782450   78201782450     12012026000000000010839033024580                         0900000000000010610000000000000000000000000000000000000   000000000000000000000022561        170272810627     
0010001300018U 060000000000000000000000000000000000000000000000000000000000000000000000108390000000000106140000000000000000000000000000000501202605012026            000000000000000                              000                           
0010001300019T 060424980000000031720 28106278201782452   78201782452     12012026000000000010839033024580                         0900000000000010610000000000000000000000000000000000000   000000000000000000000022561        170272810627     
0010001300020U 060000000000000000000000000000000000000000000000000000000000000000000000108390000000000106140000000000000000000000000000000501202605012026            000000000000000                              000                           
0010001300021T 060424980000000031720 28106278201782473   78201782473     12012026000000000028559748073590                         0900000000000010100000000000000000000000000000000000000   000000000000000000000027004        170272810627     
0010001300022U 060000000000000000000000000000000000000000000000000000000000000000000000285590000000000282890000000000000000000000000000000501202606012026            000000000000000                              000                           
0010001300023T 060424980000000031720 28106278201782480   78201782480     12012026000000000028559748073590                         0900000000000010100000000000000000000000000000000000000   000000000000000000000027004        170272810627     
0010001300024U 060000000000000000000000000000000000000000000000000000000000000000000000285590000000000282890000000000000000000000000000000501202606012026            000000000000000                              000                           
0010001300025T 060424980000000031720 28106278201782490   78201782490     1201202600000000001083900103178X                         0900000000000010060000000000000000000000000000000000000   000000000000000000000027033        170272810627     
0010001300026U 060000000000000000000000000000000000000000000000000000000000000000000000108390000000000105690000000000000000000000000000000501202606012026            000000000000000                              000                           
0010001300027T 060424980000000031720 28106278201782564   78201782564     12012026000000000010839509000010                         0900000000000010100000000000000000000000000000000000000   000000000000000000000027004        170272810627     
0010001300028U 060000000000000000000000000000000000000000000000000000000000000000000000108390000000000105690000000000000000000000000000000501202606012026            000000000000000                              000                           
0010001300029T 060424980000000031720 28106278201782569   78201782569     15022026000000000010920748039530                         0900000000000010100000000000000000000000000000000000000   000000000000000000000027004        170272810627     
0010001300030U 060000000000000000000000000000000000000000000000000000000000000000000000109200000000000106500000000000000000000000000000000501202606012026            000000000000000                              000                           
0010001300031T 060424980000000031720 28106278201782574   78201782574     12012026000000000010839001028444                         0900000000000010060000000000000000000000000000000000000   000000000000000000000027033        170272810627     
0010001300032U 060000000000000000000000000000000000000000000000000000000000000000000000108390000000000105690000000000000000000000000000000501202606012026            000000000000000                              000                           
0010001300033T 060424980000000031720 28106278201782577   78201782577     12012026000000000010839237009370                         0900000000000010610000000000000000000000000000000000000   000000000000000000000022561        170272810627     
0010001300034U 060000000000000000000000000000000000000000000000000000000000000000000000108390000000000106140000000000000000000000000000000501202605012026            000000000000000                              000                           
0010001300035T 060424980000000031720 28106278201782585   78201782585     15022026000000000010920748039530                         0900000000000010100000000000000000000000000000000000000   000000000000000000000027004        170272810627     
0010001300036U 060000000000000000000000000000000000000000000000000000000000000000000000109200000000000106500000000000000000000000000000000501202606012026            000000000000000                              000                           
0010001300037T 060424980000000031720 28106278201782592   78201782592     12012026000000000010839077000010                         0900000000000010610000000000000000000000000000000000000   000000000000000000000022561        170272810627     
0010001300038U 060000000000000000000000000000000000000000000000000000000000000000000000108390000000000106140000000000000000000000000000000501202605012026            000000000000000                              000                           
0010001300039T 060424980000000031720 28106278201782625   78201782625     12012026000000000010839001007889                         0900000000000010060000000000000000000000000000000000000   000000000000000000000027033        170272810627     
0010001300040U 060000000000000000000000000000000000000000000000000000000000000000000000108390000000000105690000000000000000000000000000000501202606012026            000000000000000                              000                           
0010001300041T 060424980000000031720 28106278201782634   78201782634     13012026000000000010839348000010                         0900000000000010610000000000000000000000000000000000000   000000000000000000000022561        170272810627     
0010001300042U 060000000000000000000000000000000000000000000000000000000000000000000000108390000000000106140000000000000000000000000000000501202605012026            000000000000000                              000                           
0010001300043T 060424980000000031720 28106278201782644   78201782644     15022026000000000010920748039530                         0900000000000010100000000000000000000000000000000000000   000000000000000000000027004        170272810627     
0010001300044U 060000000000000000000000000000000000000000000000000000000000000000000000109200000000000106500000000000000000000000000000000501202606012026            000000000000000                              000                           
0010001300045T 060424980000000031720 28106278201782663   78201782663     13012026000000000010839077000010                         0900000000000010610000000000000000000000000000000000000   000000000000000000000022561        170272810627     
0010001300046U 060000000000000000000000000000000000000000000000000000000000000000000000108390000000000106140000000000000000000000000000000501202605012026            000000000000000                              000                           
0010001300047T 060424980000000031720 28106278201782664   78201782664     12012026000000000010839077000010                         0900000000000010610000000000000000000000000000000000000   000000000000000000000022561        170272810627     
0010001300048U 060000000000000000000000000000000000000000000000000000000000000000000000108390000000000106140000000000000000000000000000000501202605012026            000000000000000                              000                           
0010001300049T 060424980000000031720 28106278201782666   78201782666     15022026000000000010920748039530                         0900000000000010100000000000000000000000000000000000000   000000000000000000000027004        170272810627     
0010001300050U 060000000000000000000000000000000000000000000000000000000000000000000000109200000000000106500000000000000000000000000000000501202606012026            000000000000000                              000                           
0010001300051T 060424980000000031720 28106278201782667   78201782667     1301202600000000001083900101981X                         0900000000000010610000000000000000000000000000000000000   000000000000000000000022561        170272810627     
0010001300052U 060000000000000000000000000000000000000000000000000000000000000000000000108390000000000106140000000000000000000000000000000501202605012026            000000000000000                              000                           
0010001300053T 060424980000000031720 28106278201782669   78201782669     1301202600000000001083900101981X                         0900000000000010610000000000000000000000000000000000000   000000000000000000000022561        170272810627     
0010001300054U 060000000000000000000000000000000000000000000000000000000000000000000000108390000000000106140000000000000000000000000000000501202605012026            000000000000000                              000                           
0010001300055T 060424980000000031720 28106278201782671   78201782671     1301202600000000001083900101981X                         0900000000000010610000000000000000000000000000000000000   000000000000000000000022561        170272810627     
0010001300056U 060000000000000000000000000000000000000000000000000000000000000000000000108390000000000106140000000000000000000000000000000501202605012026            000000000000000                              000                           
0010001300057T 060424980000000031720 28106278201782675   78201782675     1301202600000000001083900101981X                         0900000000000010610000000000000000000000000000000000000   000000000000000000000022561        170272810627     
0010001300058U 060000000000000000000000000000000000000000000000000000000000000000000000108390000000000106140000000000000000000000000000000501202605012026            000000000000000                              000                           
0010001300059T 060424980000000031720 28106278201782679   78201782679     15022026000000000010920748039530                         0900000000000010100000000000000000000000000000000000000   000000000000000000000027004        170272810627     
0010001300060U 060000000000000000000000000000000000000000000000000000000000000000000000109200000000000106500000000000000000000000000000000501202606012026            000000000000000                              000                           
0010001300061T 060424980000000031720 28106278201782680   78201782680     13012026000000000010839104016060                         0900000000000010100000000000000000000000000000000000000   000000000000000000000027004        170272810627     
0010001300062U 060000000000000000000000000000000000000000000000000000000000000000000000108390000000000105690000000000000000000000000000000501202606012026            000000000000000                              000                           
0010001300063T 060424980000000031720 28106278201782682   78201782682     13012026000000000028559104006390                         0900000000000010610000000000000000000000000000000000000   000000000000000000000022561        170272810627     
0010001300064U 060000000000000000000000000000000000000000000000000000000000000000000000285590000000000283340000000000000000000000000000000501202605012026            000000000000000                              000                           
0010001300065T 060424980000000031720 28106278201782684   78201782684     15022026000000000010920748039530                         0900000000000010100000000000000000000000000000000000000   000000000000000000000027004        170272810627     
0010001300066U 060000000000000000000000000000000000000000000000000000000000000000000000109200000000000106500000000000000000000000000000000501202606012026            000000000000000                              000                           
0010001300067T 060424980000000031720 28106278201782694   78201782694     13012026000000000010839260000010                         0900000000000010610000000000000000000000000000000000000   000000000000000000000022561        170272810627     
0010001300068U 060000000000000000000000000000000000000000000000000000000000000000000000108390000000000106140000000000000000000000000000000501202605012026            000000000000000                              000                           
0010001300069T 060424980000000031720 28106278201782705   78201782705     13012026000000000010839260000010                         0900000000000010610000000000000000000000000000000000000   000000000000000000000022561        170272810627     
0010001300070U 060000000000000000000000000000000000000000000000000000000000000000000000108390000000000106140000000000000000000000000000000501202605012026            000000000000000                              000                           
0010001300071T 060424980000000031720 28106278201782706   78201782706     13012026000000000010839104038290                         0900000000000010610000000000000000000000000000000000000   000000000000000000000022561        170272810627     
0010001300072U 060000000000000000000000000000000000000000000000000000000000000000000000108390000000000106140000000000000000000000000000000501202605012026            000000000000000                              000                           
0010001300073T 060424980000000031720 28106278201782714   78201782714     13012026000000000010839290000010                         0900000000000010610000000000000000000000000000000000000   000000000000000000000022561        170272810627     
0010001300074U 060000000000000000000000000000000000000000000000000000000000000000000000108390000000000106140000000000000000000000000000000501202605012026            000000000000000                              000                           
0010001300075T 060424980000000031720 28106278201782718   78201782718     13012026000000000010839104033890                         0900000000000010610000000000000000000000000000000000000   000000000000000000000022561        170272810627     
0010001300076U 060000000000000000000000000000000000000000000000000000000000000000000000108390000000000106140000000000000000000000000000000501202605012026            000000000000000                              000                           
0010001300077T 060424980000000031720 28106278201782724   78201782724     1301202600000000002855900101981X                         0900000000000010610000000000000000000000000000000000000   000000000000000000000022561        170272810627     
0010001300078U 060000000000000000000000000000000000000000000000000000000000000000000000285590000000000283340000000000000000000000000000000501202605012026            000000000000000                              000                           
0010001300079T 060424980000000031720 28106278201782736   78201782736     13012026000000000010839260000010                         0900000000000010610000000000000000000000000000000000000   000000000000000000000022561        170272810627     
0010001300080U 060000000000000000000000000000000000000000000000000000000000000000000000108390000000000106140000000000000000000000000000000501202605012026            000000000000000                              000                           
0010001300081T 060424980000000031720 28106278201782737   78201782737     13012026000000000010839260000010                         0900000000000010610000000000000000000000000000000000000   000000000000000000000022561        170272810627     
0010001300082U 060000000000000000000000000000000000000000000000000000000000000000000000108390000000000106140000000000000000000000000000000501202605012026            000000000000000                              000                           
0010001300083T 060424980000000031720 28106278201782743   78201782743     13012026000000000010839260000010                         0900000000000010610000000000000000000000000000000000000   000000000000000000000022561        170272810627     
0010001300084U 060000000000000000000000000000000000000000000000000000000000000000000000108390000000000106140000000000000000000000000000000501202605012026            000000000000000                              000                           
0010001300085T 060424980000000031720 28106278201782747   78201782747     13012026000000000028559237058080                         0900000000000010610000000000000000000000000000000000000   000000000000000000000022561        170272810627     
0010001300086U 060000000000000000000000000000000000000000000000000000000000000000000000285590000000000283340000000000000000000000000000000501202605012026            000000000000000                              000                           
0010001300087T 060424980000000031720 28106278201782748   78201782748     13012026000000000010839077000010                         0900000000000010610000000000000000000000000000000000000   000000000000000000000022561        170272810627     
0010001300088U 060000000000000000000000000000000000000000000000000000000000000000000000108390000000000106140000000000000000000000000000000501202605012026            000000000000000                              000                           
0010001300089T 060424980000000031720 28106278201782749   78201782749     1301202600000000001083900101981X                         0900000000000010610000000000000000000000000000000000000   000000000000000000000022561        170272810627     
0010001300090U 060000000000000000000000000000000000000000000000000000000000000000000000108390000000000106140000000000000000000000000000000501202605012026            000000000000000                              000                           
0010001300091T 060424980000000031720 28106278201782750   78201782750     13012026000000000010839260000010                         0900000000000010610000000000000000000000000000000000000   000000000000000000000022561        170272810627     
0010001300092U 060000000000000000000000000000000000000000000000000000000000000000000000108390000000000106140000000000000000000000000000000501202605012026            000000000000000                              000                           
0010001300093T 060424980000000031720 28106278201782757   78201782757     13012026000000000010839033025280                         0900000000000010100000000000000000000000000000000000000   000000000000000000000027004        170272810627     
0010001300094U 060000000000000000000000000000000000000000000000000000000000000000000000108390000000000105690000000000000000000000000000000501202606012026            000000000000000                              000                           
0010001300095T 060424980000000031720 28106278201782760   78201782760     13012026000000000010839033025280                         0900000000000010100000000000000000000000000000000000000   000000000000000000000027004        170272810627     
0010001300096U 060000000000000000000000000000000000000000000000000000000000000000000000108390000000000105690000000000000000000000000000000501202606012026            000000000000000                              000                           
0010001300097T 060424980000000031720 28106278201782770   78201782770     13012026000000000013170104038290                         0900000000000010610000000000000000000000000000000000000   000000000000000000000022561        170272810627     
0010001300098U 060000000000000000000000000000000000000000000000000000000000000000000000131700000000000129450000000000000000000000000000000501202605012026            000000000000000                              000                           
0010001300099T 060424980000000031720 28106278201782771   78201782771     1301202600000000002855900101981X                         0900000000000010610000000000000000000000000000000000000   000000000000000000000022561        170272810627     
0010001300100U 060000000000000000000000000000000000000000000000000000000000000000000000285590000000000283340000000000000000000000000000000501202605012026            000000000000000                              000                           
0010001300101T 060424980000000031720 28106278201782774   78201782774     13012026000000000010839260000010                         0900000000000010610000000000000000000000000000000000000   000000000000000000000022561        170272810627     
0010001300102U 060000000000000000000000000000000000000000000000000000000000000000000000108390000000000106140000000000000000000000000000000501202605012026            000000000000000                              000                           
0010001300103T 060424980000000031720 28106278201782792   78201782792     1401202600000000001083900101981X                         0900000000000010610000000000000000000000000000000000000   000000000000000000000022561        170272810627     
0010001300104U 060000000000000000000000000000000000000000000000000000000000000000000000108390000000000106140000000000000000000000000000000501202605012026            000000000000000                              000                           
0010001300105T 060424980000000031720 28106278201782794   78201782794     13012026000000000010839077000010                         0900000000000010610000000000000000000000000000000000000   000000000000000000000022561        170272810627     
0010001300106U 060000000000000000000000000000000000000000000000000000000000000000000000108390000000000106140000000000000000000000000000000501202605012026            000000000000000                              000                           
0010001300107T 060424980000000031720 28106278201782803   78201782803     14012026000000000010839104000300                         0900000000000010100000000000000000000000000000000000000   000000000000000000000027004        170272810627     
0010001300108U 060000000000000000000000000000000000000000000000000000000000000000000000108390000000000105690000000000000000000000000000000501202606012026            000000000000000                              000                           
0010001300109T 060424980000000031720 28106278201782807   78201782807     13012026000000000010839077000010                         0900000000000010610000000000000000000000000000000000000   000000000000000000000022561        170272810627     
0010001300110U 060000000000000000000000000000000000000000000000000000000000000000000000108390000000000106140000000000000000000000000000000501202605012026            000000000000000                              000                           
0010001300111T 060424980000000031720 28106278201782810   78201782810     1401202600000000002855900101981X                         0900000000000010610000000000000000000000000000000000000   000000000000000000000022561        170272810627     
0010001300112U 060000000000000000000000000000000000000000000000000000000000000000000000285590000000000283340000000000000000000000000000000501202605012026            000000000000000                              000                           
0010001300113T 060424980000000031720 28106278201782832   78201782832     1401202600000000002855900101981X                         0900000000000010610000000000000000000000000000000000000   000000000000000000000022561        170272810627     
0010001300114U 060000000000000000000000000000000000000000000000000000000000000000000000285590000000000283340000000000000000000000000000000501202605012026            000000000000000                              000                           
0010001300115T 060424980000000031720 28106278201782854   78201782854     1401202600000000002855900101981X                         0900000000000010610000000000000000000000000000000000000   000000000000000000000022561        170272810627     
0010001300116U 060000000000000000000000000000000000000000000000000000000000000000000000285590000000000283340000000000000000000000000000000501202605012026            000000000000000                              000                           
0010001300117T 060424980000000031720 28106278201782855   78201782855     14012026000000000028559104034360                         0900000000000010100000000000000000000000000000000000000   000000000000000000000027004        170272810627     
0010001300118U 060000000000000000000000000000000000000000000000000000000000000000000000285590000000000282890000000000000000000000000000000501202606012026            000000000000000                              000                           
0010001300119T 060424980000000031720 28106278201782867   78201782867     1401202600000000002855900101981X                         0900000000000010610000000000000000000000000000000000000   000000000000000000000022561        170272810627     
0010001300120U 060000000000000000000000000000000000000000000000000000000000000000000000285590000000000283340000000000000000000000000000000501202605012026            000000000000000                              000                           
0010001300121T 060424980000000031720 28106278201782868   78201782868     14012026000000000010839260000010                         0900000000000010610000000000000000000000000000000000000   000000000000000000000022561        170272810627     
0010001300122U 060000000000000000000000000000000000000000000000000000000000000000000000108390000000000106140000000000000000000000000000000501202605012026            000000000000000                              000                           
0010001300123T 060424980000000031720 28106278201782870   78201782870     1401202600000000001083900101981X                         0900000000000010610000000000000000000000000000000000000   000000000000000000000022561        170272810627     
0010001300124U 060000000000000000000000000000000000000000000000000000000000000000000000108390000000000106140000000000000000000000000000000501202605012026            000000000000000                              000                           
0010001300125T 060424980000000031720 28106278201782871   78201782871     1401202600000000001083900101981X                         0900000000000010610000000000000000000000000000000000000   000000000000000000000022561        170272810627     
0010001300126U 060000000000000000000000000000000000000000000000000000000000000000000000108390000000000106140000000000000000000000000000000501202605012026            000000000000000                              000                           
0010001300127T 060424980000000031720 28106278201782872   78201782872     1401202600000000001083900101981X                         0900000000000010610000000000000000000000000000000000000   000000000000000000000022561        170272810627     
0010001300128U 060000000000000000000000000000000000000000000000000000000000000000000000108390000000000106140000000000000000000000000000000501202605012026            000000000000000                              000                           
0010001300129T 060424980000000031720 28106278201782875   78201782875     14012026000000000010839104027280                         0900000000000010610000000000000000000000000000000000000   000000000000000000000022561        170272810627     
0010001300130U 060000000000000000000000000000000000000000000000000000000000000000000000108390000000000106140000000000000000000000000000000501202605012026            000000000000000                              000                           
0010001300131T 060424980000000031720 28106278201782883   78201782883     14012026000000000010839260000010                         0900000000000010610000000000000000000000000000000000000   000000000000000000000022561        170272810627     
0010001300132U 060000000000000000000000000000000000000000000000000000000000000000000000108390000000000106140000000000000000000000000000000501202605012026            000000000000000                              000                           
0010001300133T 060424980000000031720 28106278201782901   78201782901     14012026000000000010839104013830                         0900000000000010610000000000000000000000000000000000000   000000000000000000000022561        170272810627     
0010001300134U 060000000000000000000000000000000000000000000000000000000000000000000000108390000000000106140000000000000000000000000000000501202605012026            000000000000000                              000                           
0010001300135T 060424980000000031720 28106278201782902   78201782902     1401202600000000001083900101981X                         0900000000000010610000000000000000000000000000000000000   000000000000000000000022561        170272810627     
0010001300136U 060000000000000000000000000000000000000000000000000000000000000000000000108390000000000106140000000000000000000000000000000501202605012026            000000000000000                              000                           
0010001300137T 060424980000000031720 28106278201782904   78201782904     14012026000000000010839260000010                         0900000000000010610000000000000000000000000000000000000   000000000000000000000022561        170272810627     
0010001300138U 060000000000000000000000000000000000000000000000000000000000000000000000108390000000000106140000000000000000000000000000000501202605012026            000000000000000                              000                           
0010001300139T 060424980000000031720 28106278201782906   78201782906     14012026000000000010839341088400                         0900000000000010610000000000000000000000000000000000000   000000000000000000000022561        170272810627     
0010001300140U 060000000000000000000000000000000000000000000000000000000000000000000000108390000000000106140000000000000000000000000000000501202605012026            000000000000000                              000                           
0010001300141T 060424980000000031720 28106278201782907   78201782907     14012026000000000010839260000010                         0900000000000010610000000000000000000000000000000000000   000000000000000000000022561        170272810627     
0010001300142U 060000000000000000000000000000000000000000000000000000000000000000000000108390000000000106140000000000000000000000000000000501202605012026            000000000000000                              000                           
0010001300143T 060424980000000031720 28106278201782916   78201782916     14012026000000000010839380000010                         0900000000000010610000000000000000000000000000000000000   000000000000000000000022561        170272810627     
0010001300144U 060000000000000000000000000000000000000000000000000000000000000000000000108390000000000106140000000000000000000000000000000501202605012026            000000000000000                              000                           
0010001300145T 060424980000000031720 28106278201782917   78201782917     14012026000000000028559260000010                         0900000000000010610000000000000000000000000000000000000   000000000000000000000022561        170272810627     
0010001300146U 060000000000000000000000000000000000000000000000000000000000000000000000285590000000000283340000000000000000000000000000000501202605012026            000000000000000                              000                           
0010001300147T 060424980000000031720 28106278201782918   78201782918     14012026000000000010839633000010                         0900000000000010100000000000000000000000000000000000000   000000000000000000000027004        170272810627     
0010001300148U 060000000000000000000000000000000000000000000000000000000000000000000000108390000000000105690000000000000000000000000000000501202606012026            000000000000000                              000                           
0010001300149T 060424980000000031720 28106278201782920   78201782920     14012026000000000010839104016070                         0900000000000010610000000000000000000000000000000000000   000000000000000000000022561        170272810627     
0010001300150U 060000000000000000000000000000000000000000000000000000000000000000000000108390000000000106140000000000000000000000000000000501202605012026            000000000000000                              000                           
0010001300151T 060424980000000031720 28106278201782921   78201782921     14012026000000000010839380000010                         0900000000000010610000000000000000000000000000000000000   000000000000000000000022561        170272810627     
0010001300152U 060000000000000000000000000000000000000000000000000000000000000000000000108390000000000106140000000000000000000000000000000501202605012026            000000000000000                              000                           
0010001300153T 060424980000000031720 28106278201782922   78201782922     15012026000000000010839208000200                         0900000000000010610000000000000000000000000000000000000   000000000000000000000022561        170272810627     
0010001300154U 060000000000000000000000000000000000000000000000000000000000000000000000108390000000000106140000000000000000000000000000000501202605012026            000000000000000                              000                           
0010001300155T 060424980000000031720 28106278201782924   78201782924     15012026000000000028559104006380                         0900000000000010100000000000000000000000000000000000000   000000000000000000000027004        170272810627     
0010001300156U 060000000000000000000000000000000000000000000000000000000000000000000000285590000000000282890000000000000000000000000000000501202606012026            000000000000000                              000                           
0010001300157T 060424980000000031720 28106278201782925   78201782925     1501202600000000001083900101981X                         0900000000000010610000000000000000000000000000000000000   000000000000000000000022561        170272810627     
0010001300158U 060000000000000000000000000000000000000000000000000000000000000000000000108390000000000106140000000000000000000000000000000501202605012026            000000000000000                              000                           
0010001300159T 060424980000000031720 28106278201782935   78201782935     15012026000000000028559237006740                         0900000000000010610000000000000000000000000000000000000   000000000000000000000022561        170272810627     
0010001300160U 060000000000000000000000000000000000000000000000000000000000000000000000285590000000000283340000000000000000000000000000000501202605012026            000000000000000                              000                           
0010001300161T 060424980000000031720 28106278201782940   78201782940     15012026000000000010839237038990                         0900000000000010610000000000000000000000000000000000000   000000000000000000000022561        170272810627     
0010001300162U 060000000000000000000000000000000000000000000000000000000000000000000000108390000000000106140000000000000000000000000000000501202605012026            000000000000000                              000                           
0010001300163T 060424980000000031720 28106278201782957   78201782957     15012026000000000010839033029700                         0900000000000010610000000000000000000000000000000000000   000000000000000000000022561        170272810627     
0010001300164U 060000000000000000000000000000000000000000000000000000000000000000000000108390000000000106140000000000000000000000000000000501202605012026            000000000000000                              000                           
0010001300165T 060424980000000031720 28106278201782985   78201782985     15012026000000000010839260000010                         0900000000000010610000000000000000000000000000000000000   000000000000000000000022561        170272810627     
0010001300166U 060000000000000000000000000000000000000000000000000000000000000000000000108390000000000106140000000000000000000000000000000501202605012026            000000000000000                              000                           
0010001300167T 060424980000000031720 28106278201782986   78201782986     1501202600000000001083900101981X                         0900000000000010610000000000000000000000000000000000000   000000000000000000000022561        170272810627     
0010001300168U 060000000000000000000000000000000000000000000000000000000000000000000000108390000000000106140000000000000000000000000000000501202605012026            000000000000000                              000                           
0010001300169T 060424980000000031720 28106278201782993   78201782993     12012026000000000010839336000010                         0900000000000010610000000000000000000000000000000000000   000000000000000000000022561        170272810627     
0010001300170U 060000000000000000000000000000000000000000000000000000000000000000000000108390000000000106140000000000000000000000000000000501202605012026            000000000000000                              000                           
0010001300171T 060424980000000031720 28106278201783002   78201783002     15012026000000000010839290000010                         0900000000000010610000000000000000000000000000000000000   000000000000000000000022561        170272810627     
0010001300172U 060000000000000000000000000000000000000000000000000000000000000000000000108390000000000106140000000000000000000000000000000501202605012026            000000000000000                              000                           
0010001300173T 060424980000000031720 28106278201783005   78201783005     15012026000000000010839260000010                         0900000000000010610000000000000000000000000000000000000   000000000000000000000022561        170272810627     
0010001300174U 060000000000000000000000000000000000000000000000000000000000000000000000108390000000000106140000000000000000000000000000000501202605012026            000000000000000                              000                           
0010001300175T 060424980000000031720 28106278201783007   78201783007     15012026000000000010839001017779                         0900000000000010070000000000000000000000000000000000000   000000000000000000000027031        170272810627     
0010001300176U 060000000000000000000000000000000000000000000000000000000000000000000000108390000000000105690000000000000000000000000000000501202606012026            000000000000000                              000                           
0010001300177T 060424980000000031720 28106278201783008   78201783008     15012026000000000010839104006390                         0900000000000010610000000000000000000000000000000000000   000000000000000000000022561        170272810627     
0010001300178U 060000000000000000000000000000000000000000000000000000000000000000000000108390000000000106140000000000000000000000000000000501202605012026            000000000000000                              000                           
0010001300179T 060424980000000031720 28106278201783024   78201783024     1501202600000000001083900101981X                         0900000000000010610000000000000000000000000000000000000   000000000000000000000022561        170272810627     
0010001300180U 060000000000000000000000000000000000000000000000000000000000000000000000108390000000000106140000000000000000000000000000000501202605012026            000000000000000                              000                           
0010001300181T 060424980000000031720 28106278201783028   78201783028     15012026000000000010839077000010                         0900000000000010610000000000000000000000000000000000000   000000000000000000000022561        170272810627     
0010001300182U 060000000000000000000000000000000000000000000000000000000000000000000000108390000000000106140000000000000000000000000000000501202605012026            000000000000000                              000                           
0010001300183T 060424980000000031720 28106278201783043   78201783043     1501202600000000002855900101981X                         0900000000000010610000000000000000000000000000000000000   000000000000000000000022561        170272810627     
0010001300184U 060000000000000000000000000000000000000000000000000000000000000000000000285590000000000283340000000000000000000000000000000501202605012026            000000000000000                              000                           
0010001300185T 060424980000000031720 28106278201783048   78201783048     1501202600000000001083900101981X                         0900000000000010610000000000000000000000000000000000000   000000000000000000000022561        170272810627     
0010001300186U 060000000000000000000000000000000000000000000000000000000000000000000000108390000000000106140000000000000000000000000000000501202605012026            000000000000000                              000                           
0010001300187T 060424980000000031720 28106278201783050   78201783050     1401202600000000002855900101981X                         0900000000000010610000000000000000000000000000000000000   000000000000000000000022561        170272810627     
0010001300188U 060000000000000000000000000000000000000000000000000000000000000000000000285590000000000283340000000000000000000000000000000501202605012026            000000000000000                              000                           
0010001300189T 060424980000000031720 28106278201783051   78201783051     15012026000000000028559341088400                         0900000000000010610000000000000000000000000000000000000   000000000000000000000022561        170272810627     
0010001300190U 060000000000000000000000000000000000000000000000000000000000000000000000285590000000000283340000000000000000000000000000000501202605012026            000000000000000                              000                           
0010001300191T 060424980000000031720 28106278201783062   78201783062     15012026000000000028559001011487                         0900000000000010060000000000000000000000000000000000000   000000000000000000000027033        170272810627     
0010001300192U 060000000000000000000000000000000000000000000000000000000000000000000000285590000000000282890000000000000000000000000000000501202606012026            000000000000000                              000                           
0010001300193T 060424980000000031720 28106278201783063   78201783063     15012026000000000010839260000010                         0900000000000010100000000000000000000000000000000000000   000000000000000000000027004        170272810627     
0010001300194U 060000000000000000000000000000000000000000000000000000000000000000000000108390000000000105690000000000000000000000000000000501202606012026            000000000000000                              000                           
0010001300195T 060424980000000031720 28106278201783064   78201783064     1301202600000000001083900101981X                         0900000000000010610000000000000000000000000000000000000   000000000000000000000022561        170272810627     
0010001300196U 060000000000000000000000000000000000000000000000000000000000000000000000108390000000000106140000000000000000000000000000000501202605012026            000000000000000                              000                           
0010001300197T 060424980000000031720 28106278201783067   78201783067     15012026000000000028559001006009                         0900000000000010060000000000000000000000000000000000000   000000000000000000000027033        170272810627     
0010001300198U 060000000000000000000000000000000000000000000000000000000000000000000000285590000000000282890000000000000000000000000000000501202606012026            000000000000000                              000                           
0010001300199T 060424980000000031720 28106278201783078   78201783078     15012026000000000010839104038340                         0900000000000010610000000000000000000000000000000000000   000000000000000000000022561        170272810627     
0010001300200U 060000000000000000000000000000000000000000000000000000000000000000000000108390000000000106140000000000000000000000000000000501202605012026            000000000000000                              000                           
0010001300201T 060424980000000031720 28106278201783081   78201783081     15012026000000000010839336000010                         0900000000000010610000000000000000000000000000000000000   000000000000000000000022561        170272810627     
0010001300202U 060000000000000000000000000000000000000000000000000000000000000000000000108390000000000106140000000000000000000000000000000501202605012026            000000000000000                              000                           
0010001300203T 060424980000000031720 28106278201783082   78201783082     15012026000000000010839104027760                         0900000000000010610000000000000000000000000000000000000   000000000000000000000022561        170272810627     
0010001300204U 060000000000000000000000000000000000000000000000000000000000000000000000108390000000000106140000000000000000000000000000000501202605012026            000000000000000                              000                           
0010001300205T 060424980000000031720 28106278201783089   78201783089     15012026000000000010839260000010                         0900000000000010610000000000000000000000000000000000000   000000000000000000000022561        170272810627     
0010001300206U 060000000000000000000000000000000000000000000000000000000000000000000000108390000000000106140000000000000000000000000000000501202605012026            000000000000000                              000                           
0010001300207T 060424980000000031720 28106278201783091   78201783091     15012026000000000010839001026603                         0900000000000010060000000000000000000000000000000000000   000000000000000000000027033        170272810627     
0010001300208U 060000000000000000000000000000000000000000000000000000000000000000000000108390000000000105690000000000000000000000000000000501202606012026            000000000000000                              000                           
0010001300209T 060424980000000031720 28106278201783092   78201783092     1501202600000000001083900101981X                         0900000000000010610000000000000000000000000000000000000   000000000000000000000022561        170272810627     
0010001300210U 060000000000000000000000000000000000000000000000000000000000000000000000108390000000000106140000000000000000000000000000000501202605012026            000000000000000                              000                           
0010001300211T 060424980000000031720 28106278201783099   78201783099     1501202600000000001083900101981X                         0900000000000010610000000000000000000000000000000000000   000000000000000000000022561        170272810627     
0010001300212U 060000000000000000000000000000000000000000000000000000000000000000000000108390000000000106140000000000000000000000000000000501202605012026            000000000000000                              000                           
0010001300213T 060424980000000031720 28106278201783101   78201783101     15012026000000000010839341074100                         0900000000000010100000000000000000000000000000000000000   000000000000000000000027004        170272810627     
0010001300214U 060000000000000000000000000000000000000000000000000000000000000000000000108390000000000105690000000000000000000000000000000501202606012026            000000000000000                              000                           
0010001300215T 060424980000000031720 28106278201783109   78201783109     15012026000000000028559001032190                         0900000000000010040000000000000000000000000000000000000   000000000000000000000027034        170272810627     
0010001300216U 060000000000000000000000000000000000000000000000000000000000000000000000285590000000000282890000000000000000000000000000000501202606012026            000000000000000                              000                           
0010001300217T 060424980000000031720 28106278201783137   78201783137     15012026000000000010839077000010                         0900000000000010610000000000000000000000000000000000000   000000000000000000000022561        170272810627     
0010001300218U 060000000000000000000000000000000000000000000000000000000000000000000000108390000000000106140000000000000000000000000000000501202605012026            000000000000000                              000                           
0010001300219T 060424980000000031720 28106278201783153   78201783153     15012026000000000010839260000010                         0900000000000010610000000000000000000000000000000000000   000000000000000000000022561        170272810627     
0010001300220U 060000000000000000000000000000000000000000000000000000000000000000000000108390000000000106140000000000000000000000000000000501202605012026            000000000000000                              000                           
0010001300221T 060424980000000031720 28106278201783154   78201783154     1501202600000000001083900101981X                         0900000000000010610000000000000000000000000000000000000   000000000000000000000022561        170272810627     
0010001300222U 060000000000000000000000000000000000000000000000000000000000000000000000108390000000000106140000000000000000000000000000000501202605012026            000000000000000                              000                           
0010001300223T 060424980000000031720 28106278201783169   78201783169     15012026000000000010839001019445                         0900000000000010060000000000000000000000000000000000000   000000000000000000000027033        170272810627     
0010001300224U 060000000000000000000000000000000000000000000000000000000000000000000000108390000000000105690000000000000000000000000000000501202606012026            000000000000000                              000                           
0010001300225T 060424980000000031720 28106278201783186   78201783186     15012026000000000010839104070230                         0900000000000010610000000000000000000000000000000000000   000000000000000000000022561        170272810627     
0010001300226U 060000000000000000000000000000000000000000000000000000000000000000000000108390000000000106140000000000000000000000000000000501202605012026            000000000000000                              000                           
0010001300227T 060424980000000031720 28106278201783201   78201783201     04022026000000000010839001005967                         0900000000000010040000000000000000000000000000000000000   000000000000000000000027034        170272810627     
0010001300228U 060000000000000000000000000000000000000000000000000000000000000000000000108390000000000105690000000000000000000000000000000501202606012026            000000000000000                              000                           
0010001300229T 060424980000000031720 28106278201783204   78201783204     14012026000000000010839536006550                         0900000000000010610000000000000000000000000000000000000   000000000000000000000022561        170272810627     
0010001300230U 060000000000000000000000000000000000000000000000000000000000000000000000108390000000000106140000000000000000000000000000000501202605012026            000000000000000                              000                           
0010001300231T 060424980000000031720 28106278201783213   78201783213     1501202600000000001083900101981X                         0900000000000010610000000000000000000000000000000000000   000000000000000000000022561        170272810627     
0010001300232U 060000000000000000000000000000000000000000000000000000000000000000000000108390000000000106140000000000000000000000000000000501202605012026            000000000000000                              000                           
0010001300233T 060424980000000031720 28106278201783218   78201783218     1501202600000000001083900101981X                         0900000000000010610000000000000000000000000000000000000   000000000000000000000022561        170272810627     
0010001300234U 060000000000000000000000000000000000000000000000000000000000000000000000108390000000000106140000000000000000000000000000000501202605012026            000000000000000                              000                           
0010001300235T 060424980000000031720 28106278201783219   78201783219     15012026000000000010839260000010                         0900000000000010610000000000000000000000000000000000000   000000000000000000000022561        170272810627     
0010001300236U 060000000000000000000000000000000000000000000000000000000000000000000000108390000000000106140000000000000000000000000000000501202605012026            000000000000000                              000                           
0010001300237T 060424980000000031720 28106278201783221   78201783221     1501202600000000002855900101981X                         0900000000000010610000000000000000000000000000000000000   000000000000000000000022561        170272810627     
0010001300238U 060000000000000000000000000000000000000000000000000000000000000000000000285590000000000283340000000000000000000000000000000501202605012026            000000000000000                              000                           
0010001300239T 060424980000000031720 28106278201783238   78201783238     1501202600000000001083900101981X                         0900000000000010610000000000000000000000000000000000000   000000000000000000000022561        170272810627     
0010001300240U 060000000000000000000000000000000000000000000000000000000000000000000000108390000000000106140000000000000000000000000000000501202605012026            000000000000000                              000                           
0010001300241T 060424980000000031720 28106278201783244   78201783244     1501202600000000001083900101981X                         0900000000000010610000000000000000000000000000000000000   000000000000000000000022561        170272810627     
0010001300242U 060000000000000000000000000000000000000000000000000000000000000000000000108390000000000106140000000000000000000000000000000501202605012026            000000000000000                              000                           
0010001300243T 060424980000000031720 28106278201783252   78201783252     15012026000000000028559001047104                         0900000000000010060000000000000000000000000000000000000   000000000000000000000027033        170272810627     
0010001300244U 060000000000000000000000000000000000000000000000000000000000000000000000285590000000000282890000000000000000000000000000000501202606012026            000000000000000                              000                           
0010001300245T 060424980000000031720 28106278201783254   78201783254     04022026000000000010839001005967                         0900000000000010040000000000000000000000000000000000000   000000000000000000000027034        170272810627     
0010001300246U 060000000000000000000000000000000000000000000000000000000000000000000000108390000000000105690000000000000000000000000000000501202606012026            000000000000000                              000                           
0010001300247T 060424980000000031720 28106278201783264   78201783264     04022026000000000010839001005967                         0900000000000010040000000000000000000000000000000000000   000000000000000000000027034        170272810627     
0010001300248U 060000000000000000000000000000000000000000000000000000000000000000000000108390000000000105690000000000000000000000000000000501202606012026            000000000000000                              000                           
0010001300249T 060424980000000031720 28106278201783272   78201783272     15012026000000000028559001042498                         0900000000000010060000000000000000000000000000000000000   000000000000000000000027033        170272810627     
0010001300250U 060000000000000000000000000000000000000000000000000000000000000000000000285590000000000282890000000000000000000000000000000501202606012026            000000000000000                              000                           
0010001300251T 060424980000000031720 28106278201783278   78201783278     15012026000000000010839260000010                         0900000000000010610000000000000000000000000000000000000   000000000000000000000022561        170272810627     
0010001300252U 060000000000000000000000000000000000000000000000000000000000000000000000108390000000000106140000000000000000000000000000000501202605012026            000000000000000                              000                           
0010001300253T 060424980000000031720 28106278201783279   78201783279     15012026000000000010839260000010                         0900000000000010610000000000000000000000000000000000000   000000000000000000000022561        170272810627     
0010001300254U 060000000000000000000000000000000000000000000000000000000000000000000000108390000000000106140000000000000000000000000000000501202605012026            000000000000000                              000                           
0010001300255T 060424980000000031720 28106278201783280   78201783280     15012026000000000028559001042498                         0900000000000010060000000000000000000000000000000000000   000000000000000000000027033        170272810627     
0010001300256U 060000000000000000000000000000000000000000000000000000000000000000000000285590000000000282890000000000000000000000000000000501202606012026            000000000000000                              000                           
0010001300257T 060424980000000031720 28106278201783281   78201783281     15012026000000000010839104038870                         0900000000000010610000000000000000000000000000000000000   000000000000000000000022561        170272810627     
0010001300258U 060000000000000000000000000000000000000000000000000000000000000000000000108390000000000106140000000000000000000000000000000501202605012026            000000000000000                              000                           
0010001300259T 060424980000000031720 28106278201783284   78201783284     04022026000000000010839001005967                         0900000000000010040000000000000000000000000000000000000   000000000000000000000027034        170272810627     
0010001300260U 060000000000000000000000000000000000000000000000000000000000000000000000108390000000000105690000000000000000000000000000000501202606012026            000000000000000                              000                           
0010001300261T 060424980000000031720 28106278201783296   78201783296     15012026000000000010839001012092                         0900000000000010040000000000000000000000000000000000000   000000000000000000000027034        170272810627     
0010001300262U 060000000000000000000000000000000000000000000000000000000000000000000000108390000000000105690000000000000000000000000000000501202606012026            000000000000000                              000                           
0010001300263T 060424980000000031720 28106278201783303   78201783303     04022026000000000010839001005967                         0900000000000010040000000000000000000000000000000000000   000000000000000000000027034        170272810627     
0010001300264U 060000000000000000000000000000000000000000000000000000000000000000000000108390000000000105690000000000000000000000000000000501202606012026            000000000000000                              000                           
0010001300265T 060424980000000031720 28106278201783317   78201783317     04022026000000000010839001005967                         0900000000000010040000000000000000000000000000000000000   000000000000000000000027034        170272810627     
0010001300266U 060000000000000000000000000000000000000000000000000000000000000000000000108390000000000105690000000000000000000000000000000501202606012026            000000000000000                              000                           
0010001300267T 060424980000000031720 28106278201783319   78201783319     04022026000000000010839001005967                         0900000000000010040000000000000000000000000000000000000   000000000000000000000027034        170272810627     
0010001300268U 060000000000000000000000000000000000000000000000000000000000000000000000108390000000000105690000000000000000000000000000000501202606012026            000000000000000                              000                           
0010001300269T 060424980000000031720 28106278201783327   78201783327     04022026000000000010839001005967                         0900000000000010040000000000000000000000000000000000000   000000000000000000000027034        170272810627     
0010001300270U 060000000000000000000000000000000000000000000000000000000000000000000000108390000000000105690000000000000000000000000000000501202606012026            000000000000000                              000                           
0010001300271T 060424980000000031720 28106278201783329   78201783329     1501202600000000001083900101981X                         0900000000000010610000000000000000000000000000000000000   000000000000000000000022561        170272810627     
0010001300272U 060000000000000000000000000000000000000000000000000000000000000000000000108390000000000106140000000000000000000000000000000501202605012026            000000000000000                              000                           
0010001300273T 060424980000000031720 28106278201783330   78201783330     15012026000000000010839323000010                         0900000000000010610000000000000000000000000000000000000   000000000000000000000022561        170272810627     
0010001300274U 060000000000000000000000000000000000000000000000000000000000000000000000108390000000000106140000000000000000000000000000000501202605012026            000000000000000                              000                           
0010001300275T 060424980000000031720 28106278201783331   78201783331     15012026000000000010839260000010                         0900000000000010610000000000000000000000000000000000000   000000000000000000000022561        170272810627     
0010001300276U 060000000000000000000000000000000000000000000000000000000000000000000000108390000000000106140000000000000000000000000000000501202605012026            000000000000000                              000                           
0010001300277T 060424980000000031720 28106278201783333   78201783333     15012026000000000028559001000442                         0900000000000010040000000000000000000000000000000000000   000000000000000000000027034        170272810627     
0010001300278U 060000000000000000000000000000000000000000000000000000000000000000000000285590000000000282890000000000000000000000000000000501202606012026            000000000000000                              000                           
0010001300279T 060424980000000031720 28106278201783334   78201783334     04022026000000000010839001005967                         0900000000000010040000000000000000000000000000000000000   000000000000000000000027034        170272810627     
0010001300280U 060000000000000000000000000000000000000000000000000000000000000000000000108390000000000105690000000000000000000000000000000501202606012026            000000000000000                              000                           
0010001300281T 060424980000000031720 28106278201783338   78201783338     15012026000000000010839341076960                         0900000000000010610000000000000000000000000000000000000   000000000000000000000022561        170272810627     
0010001300282U 060000000000000000000000000000000000000000000000000000000000000000000000108390000000000106140000000000000000000000000000000501202605012026            000000000000000                              000                           
0010001300283T 060424980000000031720 28106278201783349   78201783349     15012026000000000028559001076252                         0900000000000010060000000000000000000000000000000000000   000000000000000000000027033        170272810627     
0010001300284U 060000000000000000000000000000000000000000000000000000000000000000000000285590000000000282890000000000000000000000000000000501202606012026            000000000000000                              000                           
0010001300285T 060424980000000031720 28106278201783359   78201783359     1501202600000000001083900101981X                         0900000000000010610000000000000000000000000000000000000   000000000000000000000022561        170272810627     
0010001300286U 060000000000000000000000000000000000000000000000000000000000000000000000108390000000000106140000000000000000000000000000000501202605012026            000000000000000                              000                           
0010001300287T 060424980000000031720 28106278201783363   78201783363     15012026000000000010839001005967                         0900000000000010040000000000000000000000000000000000000   000000000000000000000027034        170272810627     
0010001300288U 060000000000000000000000000000000000000000000000000000000000000000000000108390000000000105690000000000000000000000000000000501202606012026            000000000000000                              000                           
0010001300289T 060424980000000031720 28106278201783369   78201783369     15012026000000000010839001042498                         0900000000000010060000000000000000000000000000000000000   000000000000000000000027033        170272810627     
0010001300290U 060000000000000000000000000000000000000000000000000000000000000000000000108390000000000105690000000000000000000000000000000501202606012026            000000000000000                              000                           
0010001300291T 060424980000000031720 28106278201783370   78201783370     04022026000000000010839001005967                         0900000000000010040000000000000000000000000000000000000   000000000000000000000027034        170272810627     
0010001300292U 060000000000000000000000000000000000000000000000000000000000000000000000108390000000000105690000000000000000000000000000000501202606012026            000000000000000                              000                           
0010001300293T 060424980000000031720 28106278201783371   78201783371     15012026000000000010839237038480                         0900000000000010610000000000000000000000000000000000000   000000000000000000000022561        170272810627     
0010001300294U 060000000000000000000000000000000000000000000000000000000000000000000000108390000000000106140000000000000000000000000000000501202605012026            000000000000000                              000                           
0010001300295T 060424980000000031720 28106278201783388   78201783388     15012026000000000028559341056260                         0900000000000010610000000000000000000000000000000000000   000000000000000000000022561        170272810627     
0010001300296U 060000000000000000000000000000000000000000000000000000000000000000000000285590000000000283340000000000000000000000000000000501202605012026            000000000000000                              000                           
0010001300297T 060424980000000031720 28106278201783394   78201783394     15012026000000000010839237009710                         0900000000000010610000000000000000000000000000000000000   000000000000000000000022561        170272810627     
0010001300298U 060000000000000000000000000000000000000000000000000000000000000000000000108390000000000106140000000000000000000000000000000501202605012026            000000000000000                              000                           
0010001300299T 060424980000000031720 28106278201783404   78201783404     15012026000000000028559077000010                         0900000000000010610000000000000000000000000000000000000   000000000000000000000022561        170272810627     
0010001300300U 060000000000000000000000000000000000000000000000000000000000000000000000285590000000000283340000000000000000000000000000000501202605012026            000000000000000                              000                           
0010001300301T 060424980000000031720 28106278201783408   78201783408     1501202600000000001083900101981X                         0900000000000010610000000000000000000000000000000000000   000000000000000000000022561        170272810627     
0010001300302U 060000000000000000000000000000000000000000000000000000000000000000000000108390000000000106140000000000000000000000000000000501202605012026            000000000000000                              000                           
0010001300303T 060424980000000031720 28106278201783410   78201783410     15012026000000000010839336000010                         0900000000000010610000000000000000000000000000000000000   000000000000000000000022561        170272810627     
0010001300304U 060000000000000000000000000000000000000000000000000000000000000000000000108390000000000106140000000000000000000000000000000501202605012026            000000000000000                              000                           
0010001300305T 060424980000000031720 28106278201783427   78201783427     15012026000000000010839104047270                         0900000000000010610000000000000000000000000000000000000   000000000000000000000022561        170272810627     
0010001300306U 060000000000000000000000000000000000000000000000000000000000000000000000108390000000000106140000000000000000000000000000000501202605012026            000000000000000                              000                           
0010001300307T 060424980000000031720 28106278201783429   78201783429     1501202600000000001083900101981X                         0900000000000010610000000000000000000000000000000000000   000000000000000000000022561        170272810627     
0010001300308U 060000000000000000000000000000000000000000000000000000000000000000000000108390000000000106140000000000000000000000000000000501202605012026            000000000000000                              000                           
0010001300309T 060424980000000031720 28106278201783431   78201783431     1501202600000000001083900101981X                         0900000000000010610000000000000000000000000000000000000   000000000000000000000022561        170272810627     
0010001300310U 060000000000000000000000000000000000000000000000000000000000000000000000108390000000000106140000000000000000000000000000000501202605012026            000000000000000                              000                           
0010001300311T 060424980000000031720 28106278201783432   78201783432     15012026000000000010839104000290                         0900000000000010100000000000000000000000000000000000000   000000000000000000000027004        170272810627     
0010001300312U 060000000000000000000000000000000000000000000000000000000000000000000000108390000000000105690000000000000000000000000000000501202606012026            000000000000000                              000                           
0010001300313T 060424980000000031720 28106278201783433   78201783433     15012026000000000010839380000010                         0900000000000010610000000000000000000000000000000000000   000000000000000000000022561        170272810627     
0010001300314U 060000000000000000000000000000000000000000000000000000000000000000000000108390000000000106140000000000000000000000000000000501202605012026            000000000000000                              000                           
0010001300315T 060424980000000031720 28106278201783439   78201783439     15012026000000000010839237013100                         0900000000000010100000000000000000000000000000000000000   000000000000000000000027004        170272810627     
0010001300316U 060000000000000000000000000000000000000000000000000000000000000000000000108390000000000105690000000000000000000000000000000501202606012026            000000000000000                              000                           
0010001300317T 060424980000000031720 28106278201783441   78201783441     15012026000000000028559633000010                         0900000000000010100000000000000000000000000000000000000   000000000000000000000027004        170272810627     
0010001300318U 060000000000000000000000000000000000000000000000000000000000000000000000285590000000000282890000000000000000000000000000000501202606012026            000000000000000                              000                           
0010001300319T 060424980000000031720 28106278201783452   78201783452     04022026000000000010839001005967                         0900000000000010040000000000000000000000000000000000000   000000000000000000000027034        170272810627     
0010001300320U 060000000000000000000000000000000000000000000000000000000000000000000000108390000000000105690000000000000000000000000000000501202606012026            000000000000000                              000                           
0010001300321T 060424980000000031720 28106278201783455   78201783455     04022026000000000010839001005967                         0900000000000010040000000000000000000000000000000000000   000000000000000000000027034        170272810627     
0010001300322U 060000000000000000000000000000000000000000000000000000000000000000000000108390000000000105690000000000000000000000000000000501202606012026            000000000000000                              000                           
0010001300323T 060424980000000031720 28106278201783456   78201783456     1501202600000000002855900101981X                         0900000000000010610000000000000000000000000000000000000   000000000000000000000022561        170272810627     
0010001300324U 060000000000000000000000000000000000000000000000000000000000000000000000285590000000000283340000000000000000000000000000000501202605012026            000000000000000                              000                           
0010001300325T 060424980000000031720 28106278201783457   78201783457     04022026000000000010839001005967                         0900000000000010040000000000000000000000000000000000000   000000000000000000000027034        170272810627     
0010001300326U 060000000000000000000000000000000000000000000000000000000000000000000000108390000000000105690000000000000000000000000000000501202606012026            000000000000000                              000                           
0010001300327T 060424980000000031720 28106278201783458   78201783458     15012026000000000010839001016373                         0900000000000010040000000000000000000000000000000000000   000000000000000000000027034        170272810627     
0010001300328U 060000000000000000000000000000000000000000000000000000000000000000000000108390000000000105690000000000000000000000000000000501202606012026            000000000000000                              000                           
0010001300329T 060424980000000031720 28106278201783459   78201783459     04022026000000000010839001005967                         0900000000000010040000000000000000000000000000000000000   000000000000000000000027034        170272810627     
0010001300330U 060000000000000000000000000000000000000000000000000000000000000000000000108390000000000105690000000000000000000000000000000501202606012026            000000000000000                              000                           
0010001300331T 060424980000000031720 28106278201783463   78201783463     04022026000000000010839001005967                         0900000000000010040000000000000000000000000000000000000   000000000000000000000027034        170272810627     
0010001300332U 060000000000000000000000000000000000000000000000000000000000000000000000108390000000000105690000000000000000000000000000000501202606012026            000000000000000                              000                           
0010001300333T 060424980000000031720 28106278201783478   78201783478     1501202600000000001083900101981X                         0900000000000010610000000000000000000000000000000000000   000000000000000000000022561        170272810627     
0010001300334U 060000000000000000000000000000000000000000000000000000000000000000000000108390000000000106140000000000000000000000000000000501202605012026            000000000000000                              000                           
0010001300335T 060424980000000031720 28106278201783483   78201783483     15012026000000000010839323000010                         0900000000000010610000000000000000000000000000000000000   000000000000000000000022561        170272810627     
0010001300336U 060000000000000000000000000000000000000000000000000000000000000000000000108390000000000106140000000000000000000000000000000501202605012026            000000000000000                              000                           
0010001300337T 060424980000000031720 28106278201783485   78201783485     15012026000000000010839208000200                         0900000000000010610000000000000000000000000000000000000   000000000000000000000022561        170272810627     
0010001300338U 060000000000000000000000000000000000000000000000000000000000000000000000108390000000000106140000000000000000000000000000000501202605012026            000000000000000                              000                           
0010001300339T 060424980000000031720 28106278201783488   78201783488     15012026000000000010839237004050                         0900000000000010100000000000000000000000000000000000000   000000000000000000000027004        170272810627     
0010001300340U 060000000000000000000000000000000000000000000000000000000000000000000000108390000000000105690000000000000000000000000000000501202606012026            000000000000000                              000                           
0010001300341T 060424980000000031720 28106278201783500   78201783500     15012026000000000010839001001066                         0900000000000010040000000000000000000000000000000000000   000000000000000000000027034        170272810627     
0010001300342U 060000000000000000000000000000000000000000000000000000000000000000000000108390000000000105690000000000000000000000000000000501202606012026            000000000000000                              000                           
0010001300343T 060424980000000031720 28106278201783503   78201783503     15012026000000000010839077000010                         0900000000000010610000000000000000000000000000000000000   000000000000000000000022561        170272810627     
0010001300344U 060000000000000000000000000000000000000000000000000000000000000000000000108390000000000106140000000000000000000000000000000501202605012026            000000000000000                              000                           
0010001300345T 060424980000000031720 28106278201783505   78201783505     15012026000000000028559104034360                         0900000000000010610000000000000000000000000000000000000   000000000000000000000022561        170272810627     
0010001300346U 060000000000000000000000000000000000000000000000000000000000000000000000285590000000000283340000000000000000000000000000000501202605012026            000000000000000                              000                           
0010001300347T 060424980000000031720 28106278201783528   78201783528     1501202600000000001083900101981X                         0900000000000010610000000000000000000000000000000000000   000000000000000000000022561        170272810627     
0010001300348U 060000000000000000000000000000000000000000000000000000000000000000000000108390000000000106140000000000000000000000000000000501202605012026            000000000000000                              000                           
0010001300349T 060424980000000031720 28106278201783530   78201783530     15012026000000000010839104007280                         0900000000000010610000000000000000000000000000000000000   000000000000000000000022561        170272810627     
0010001300350U 060000000000000000000000000000000000000000000000000000000000000000000000108390000000000106140000000000000000000000000000000501202605012026            000000000000000                              000                           
0010001300351T 060424980000000031720 28106278201783532   78201783532     15012026000000000010839104006390                         0900000000000010610000000000000000000000000000000000000   000000000000000000000022561        170272810627     
0010001300352U 060000000000000000000000000000000000000000000000000000000000000000000000108390000000000106140000000000000000000000000000000501202605012026            000000000000000                              000                           
0010001300353T 060424980000000031720 28106278201783543   78201783543     1501202600000000001083900103178X                         0900000000000010060000000000000000000000000000000000000   000000000000000000000027033        170272810627     
0010001300354U 060000000000000000000000000000000000000000000000000000000000000000000000108390000000000105690000000000000000000000000000000501202606012026            000000000000000                              000                           
0010001300355T 060424980000000031720 28106278201783544   78201783544     15012026000000000010839033037570                         0900000000000010100000000000000000000000000000000000000   000000000000000000000027004        170272810627     
0010001300356U 060000000000000000000000000000000000000000000000000000000000000000000000108390000000000105690000000000000000000000000000000501202606012026            000000000000000                              000                           
0010001300357T 060424980000000031720 28106278201783545   78201783545     15012026000000000010839077000010                         0900000000000010100000000000000000000000000000000000000   000000000000000000000027004        170272810627     
0010001300358U 060000000000000000000000000000000000000000000000000000000000000000000000108390000000000105690000000000000000000000000000000501202606012026            000000000000000                              000                           
0010001300359T 060424980000000031720 28106278201783555   78201783555     15012026000000000010839001047104                         0900000000000010060000000000000000000000000000000000000   000000000000000000000027033        170272810627     
0010001300360U 060000000000000000000000000000000000000000000000000000000000000000000000108390000000000105690000000000000000000000000000000501202606012026            000000000000000                              000                           
0010001300361T 060424980000000031720 28106278201783557   78201783557     1501202600000000001083900101981X                         0900000000000010610000000000000000000000000000000000000   000000000000000000000022561        170272810627     
0010001300362U 060000000000000000000000000000000000000000000000000000000000000000000000108390000000000106140000000000000000000000000000000501202605012026            000000000000000                              000                           
0010001300363T 060424980000000031720 28106278201783601   78201783601     15012026000000000010839364000010                         0900000000000010100000000000000000000000000000000000000   000000000000000000000027004        170272810627     
0010001300364U 060000000000000000000000000000000000000000000000000000000000000000000000108390000000000105690000000000000000000000000000000501202606012026            000000000000000                              000                           
0010001300365T 060424980000000031720 28106278201783613   78201783613     15012026000000000010839104007280                         0900000000000010610000000000000000000000000000000000000   000000000000000000000022561        170272810627     
0010001300366U 060000000000000000000000000000000000000000000000000000000000000000000000108390000000000106140000000000000000000000000000000501202605012026            000000000000000                              000                           
0010001300367T 060424980000000031720 28106278201783615   78201783615     15012026000000000010839104007280                         0900000000000010610000000000000000000000000000000000000   000000000000000000000022561        170272810627     
0010001300368U 060000000000000000000000000000000000000000000000000000000000000000000000108390000000000106140000000000000000000000000000000501202605012026            000000000000000                              000                           
0010001300369T 060424980000000031720 28106278201783624   78201783624     15012026000000000010839104007280                         0900000000000010610000000000000000000000000000000000000   000000000000000000000022561        170272810627     
0010001300370U 060000000000000000000000000000000000000000000000000000000000000000000000108390000000000106140000000000000000000000000000000501202605012026            000000000000000                              000                           
0010001300371T 060424980000000031720 28106278201783625   78201783625     15012026000000000028559104034360                         0900000000000010610000000000000000000000000000000000000   000000000000000000000022561        170272810627     
0010001300372U 060000000000000000000000000000000000000000000000000000000000000000000000285590000000000283340000000000000000000000000000000501202605012026            000000000000000                              000                           
0010001300373T 060424980000000031720 28106278201783627   78201783627     15012026000000000010839104007280                         0900000000000010610000000000000000000000000000000000000   000000000000000000000022561        170272810627     
0010001300374U 060000000000000000000000000000000000000000000000000000000000000000000000108390000000000106140000000000000000000000000000000501202605012026            000000000000000                              000                           
0010001300375T 060424980000000031720 28106278201783628   78201783628     15012026000000000010839001002542                         0900000000000010060000000000000000000000000000000000000   000000000000000000000027033        170272810627     
0010001300376U 060000000000000000000000000000000000000000000000000000000000000000000000108390000000000105690000000000000000000000000000000501202606012026            000000000000000                              000                           
0010001300377T 060424980000000031720 28106278201783629   78201783629     15012026000000000010839104006390                         0900000000000010610000000000000000000000000000000000000   000000000000000000000022561        170272810627     
0010001300378U 060000000000000000000000000000000000000000000000000000000000000000000000108390000000000106140000000000000000000000000000000501202605012026            000000000000000                              000                           
0010001300379T 060424980000000031720 28106278201783630   78201783630     15012026000000000010839104007280                         0900000000000010610000000000000000000000000000000000000   000000000000000000000022561        170272810627     
0010001300380U 060000000000000000000000000000000000000000000000000000000000000000000000108390000000000106140000000000000000000000000000000501202605012026            000000000000000                              000                           
0010001300381T 060424980000000031720 28106278201783631   78201783631     15012026000000000010839104006390                         0900000000000010610000000000000000000000000000000000000   000000000000000000000022561        170272810627     
0010001300382U 060000000000000000000000000000000000000000000000000000000000000000000000108390000000000106140000000000000000000000000000000501202605012026            000000000000000                              000                           
0010001300383T 060424980000000031720 28106278201783632   78201783632     15012026000000000010839001002542                         0900000000000010060000000000000000000000000000000000000   000000000000000000000027033        170272810627     
0010001300384U 060000000000000000000000000000000000000000000000000000000000000000000000108390000000000105690000000000000000000000000000000501202606012026            000000000000000                              000                           
0010001300385T 060424980000000031720 28106278201783633   78201783633     15012026000000000010839104007280                         0900000000000010610000000000000000000000000000000000000   000000000000000000000022561        170272810627     
0010001300386U 060000000000000000000000000000000000000000000000000000000000000000000000108390000000000106140000000000000000000000000000000501202605012026            000000000000000                              000                           
0010001300387T 060424980000000031720 28106278201783635   78201783635     15012026000000000010839077000010                         0900000000000010610000000000000000000000000000000000000   000000000000000000000022561        170272810627     
0010001300388U 060000000000000000000000000000000000000000000000000000000000000000000000108390000000000106140000000000000000000000000000000501202605012026            000000000000000                              000                           
0010001300389T 060424980000000031720 28106278201783640   78201783640     15012026000000000010839380000010                         0900000000000010610000000000000000000000000000000000000   000000000000000000000022561        170272810627     
0010001300390U 060000000000000000000000000000000000000000000000000000000000000000000000108390000000000106140000000000000000000000000000000501202605012026            000000000000000                              000                           
0010001300391T 060424980000000031720 28106278201783642   78201783642     1501202600000000002855900101981X                         0900000000000010610000000000000000000000000000000000000   000000000000000000000022561        170272810627     
0010001300392U 060000000000000000000000000000000000000000000000000000000000000000000000285590000000000283340000000000000000000000000000000501202605012026            000000000000000                              000                           
0010001300393T 060424980000000031720 28106278201783645   78201783645     15012026000000000010839077000010                         0900000000000010610000000000000000000000000000000000000   000000000000000000000022561        170272810627     
0010001300394U 060000000000000000000000000000000000000000000000000000000000000000000000108390000000000106140000000000000000000000000000000501202605012026            000000000000000                              000                           
0010001300395T 060424980000000031720 28106278201783649   78201783649     15012026000000000010839104007280                         0900000000000010610000000000000000000000000000000000000   000000000000000000000022561        170272810627     
0010001300396U 060000000000000000000000000000000000000000000000000000000000000000000000108390000000000106140000000000000000000000000000000501202605012026            000000000000000                              000                           
0010001300397T 060424980000000031720 28106278201783651   78201783651     15012026000000000010839260000010                         0900000000000010610000000000000000000000000000000000000   000000000000000000000022561        170272810627     
0010001300398U 060000000000000000000000000000000000000000000000000000000000000000000000108390000000000106140000000000000000000000000000000501202605012026            000000000000000                              000                           
0010001300399T 060575090000000001945 37110568306709486   78306709486     03012026000000000010303237017660                         0900000000000010610000000000000000000000000000000000000   000000000000000000000018361        170273711056     
0010001300400U 060000000000000000000000000000000000000000000000000000000000000000000000103030000000000101200000000000000000000000000000000501202606012026            000000000000000                              000                           
0010001300401T 060424980000000031720 28106278201783654   78201783654     15012026000000000010839033023080                         0900000000000010100000000000000000000000000000000000000   000000000000000000000027004        170272810627     
0010001300402U 060000000000000000000000000000000000000000000000000000000000000000000000108390000000000105690000000000000000000000000000000501202606012026            000000000000000                              000                           
0010001300403T 060575090000000001945 37110568306709711   78306709711     05012026000000000010303633000010                         0900000000000010100000000000000000000000000000000000000   000000000000000000000018304        170273711056     
0010001300404U 060000000000000000000000000000000000000000000000000000000000000000000000103030000000000101200000000000000000000000000000000501202606012026            000000000000000                              000                           
0010001300405T 060424980000000031720 28106278201783655   78201783655     15012026000000000028559461000010                         0900000000000010610000000000000000000000000000000000000   000000000000000000000022561        170272810627     
0010001300406U 060000000000000000000000000000000000000000000000000000000000000000000000285590000000000283340000000000000000000000000000000501202605012026            000000000000000                              000                           
0010001300407T 060575090000000001945 37110568306709713   78306709713     05012026000000000010303033047340                         0900000000000010100000000000000000000000000000000000000   000000000000000000000018304        170273711056     
0010001300408U 060000000000000000000000000000000000000000000000000000000000000000000000103030000000000101200000000000000000000000000000000501202606012026            000000000000000                              000                           
0010001300409T 060424980000000031720 28106278201783662   78201783662     15012026000000000010839104070230                         0900000000000010610000000000000000000000000000000000000   000000000000000000000022561        170272810627     
0010001300410U 060000000000000000000000000000000000000000000000000000000000000000000000108390000000000106140000000000000000000000000000000501202605012026            000000000000000                              000                           
0010001300411T 060575090000000001945 37110568306709715   78306709715     05012026000000000010303033047340                         0900000000000010100000000000000000000000000000000000000   000000000000000000000018304        170273711056     
0010001300412U 060000000000000000000000000000000000000000000000000000000000000000000000103030000000000101200000000000000000000000000000000501202606012026            000000000000000                              000                           
