02RETORNO01COBRANCA       33820000052841000000MUTUA DE ASSISTENCIA DOS PROFI001BANCO DO BRASIL1501260004170                      000005610303877689  2832092                                                                                                                                                                                                                                              000001
700000000000000000071X0003029532835965                         2835965820857833670000001AI 02700000000000 17061501268208578336                    150126000000002100023736860011901260000355000000000000000000000000000000000000000000000000000000000000000000000000021000000000000000000000000000000000000000000000000002064520000000000000          0000000000000000000000000000000000000000000000001010000002
700000000000000000071X0003029532835965                         2835965820858153370000401AI 02700000000000 17061501268208581533                    19012600000000108390011981X011501260000290000000000000000000000000000000000000000000000000000000000000000000000000010839000000000000000000000000000000000000000000000001054920000000000000          0000000000000000000000000000000000000000000000001061000003
700000000000000000071X0003029532835965                         2835965820859210870000701AI 02700000000000 17061501268208592108                    220126000000001083903332700011501260000290000000000000000000000000000000000000000000000000000000000000000000000000010839000000000000000000000000000000000000000000000001054920000000000000          0000000000000000000000000000000000000000000000001061000004
700000000000000000071X0003029532835965                         2835965820859229270000601AI 02700000000000 17061501268208592292                    210126000000001083900300440011901260000355000000000000000000000000000000000000000000000000000000000000000000000000010839000000000000000000000000000000000000000000000001048420000000000000          0000000000000000000000000000000000000000000000001010000005
700000000000000000071X0003029532835965                         2835965820859261070004301AI 02700000000000 17061501268208592610                    270226000000001974000108141011901260000355000000000000000000000000000000000000000000000000000000000000000000000000019740000000000000000000000000000000000000000000000001938520000000000000          0000000000000000000000000000000000000000000000001006000006
700000000000000000071X0003029532835965                         2835965820859290170000801AI 02700000000000 17061501268208592901                    230126000000001083900145209011901260000355000000000000000000000000000000000000000000000000000000000000000000000000010839000000000000000000000000000000000000000000000001048420000000000000          0000000000000000000000000000000000000000000000001004000007
700000000000000000071X0003029532835965                         2835965820859310870001501AI 02700000000000 17061501268208593108                    300126000000001974000108141011901260000355000000000000000000000000000000000000000000000000000000000000000000000000019740000000000000000000000000000000000000000000000001938520000000000000          0000000000000000000000000000000000000000000000001006000008
700000000000000000071X0003029532835965                         2835965820859313370000901AI 02700000000000 17061501268208593133                    24012600000000108390011981X011501260000290000000000000000000000000000000000000000000000000000000000000000000000000010839000000000000000000000000000000000000000000000001054920000000000000          0000000000000000000000000000000000000000000000001061000009
700000000000000000071X0003029532835965                         2835965820859337670000901AI 02700000000000 17061501268208593376                    240126000000002855900134150011901260000355000000000000000000000000000000000000000000000000000000000000000000000000028559000000000000000000000000000000000000000000000002820420000000000000          0000000000000000000000000000000000000000000000001004000010
700000000000000000071X0003029532835965                         2835965820859337970000901AI 02700000000000 17061501268208593379                    240126000000001083934181740011901260000355000000000000000000000000000000000000000000000000000000000000000000000000010839000000000000000000000000000000000000000000000001048420000000000000          0000000000000000000000000000000000000000000000001010000011
700000000000000000071X0003029532835965                         2835965820859338970000901AI 02700000000000 17061501268208593389                    240126000000001083934181740011901260000355000000000000000000000000000000000000000000000000000000000000000000000000010839000000000000000000000000000000000000000000000001048420000000000000          0000000000000000000000000000000000000000000000001010000012
700000000000000000071X0003029532835965                         2835965820859339070000901AI 02700000000000 17061501268208593390                    240126000000001083934181740011901260000355000000000000000000000000000000000000000000000000000000000000000000000000010839000000000000000000000000000000000000000000000001048420000000000000          0000000000000000000000000000000000000000000000001010000013
700000000000000000071X0003029532835965                         2835965820859339270000901AI 02700000000000 17061501268208593392                    24012600000000108390011981X011501260000290000000000000000000000000000000000000000000000000000000000000000000000000010839000000000000000000000000000000000000000000000001054920000000000000          0000000000000000000000000000000000000000000000001061000014
700000000000000000071X0003029532835965                         2835965820859339470000901AI 02700000000000 17061501268208593394                    240126000000001083934181740011901260000355000000000000000000000000000000000000000000000000000000000000000000000000010839000000000000000000000000000000000000000000000001048420000000000000          0000000000000000000000000000000000000000000000001010000015
700000000000000000071X0003029532835965                         2835965820859339870000901AI 02700000000000 17061501268208593398                    24012600000000285590011981X011501260000290000000000000000000000000000000000000000000000000000000000000000000000000028559000000000000000000000000000000000000000000000002826920000000000000          0000000000000000000000000000000000000000000000001061000016
700000000000000000071X0003029532835965                         2835965820859340170000901AI 02700000000000 17061501268208593401                    240126000000001083934181740011901260000355000000000000000000000000000000000000000000000000000000000000000000000000010839000000000000000000000000000000000000000000000001048420000000000000          0000000000000000000000000000000000000000000000001010000017
700000000000000000071X0003029532835965                         2835965820859340570000901AI 02700000000000 17061501268208593405                    24012600000000108390011981X011501260000290000000000000000000000000000000000000000000000000000000000000000000000000010839000000000000000000000000000000000000000000000001054920000000000000          0000000000000000000000000000000000000000000000001061000018
700000000000000000071X0003029532835965                         2835965820859341470000901AI 02700000000000 17061501268208593414                    24012600000000108390011981X011501260000290000000000000000000000000000000000000000000000000000000000000000000000000010839000000000000000000000000000000000000000000000001054920000000000000          0000000000000000000000000000000000000000000000001061000019
700000000000000000071X0003029532835965                         2835965820859343670000901AI 02700000000000 17061501268208593436                    240126000000001083926000010011501260000290000000000000000000000000000000000000000000000000000000000000000000000000010839000000000000000000000000000000000000000000000001054920000000000000          0000000000000000000000000000000000000000000000001061000020
700000000000000000071X0003029532835965                         2835965820859343870001001AI 02700000000000 17061501268208593438                    250126000000001083933600010011501260000290000000000000000000000000000000000000000000000000000000000000000000000000010839000000000000000000000000000000000000000000000001054920000000000000          0000000000000000000000000000000000000000000000001061000021
700000000000000000071X0003029532835965                         2835965820859343970001001AI 02700000000000 17061501268208593439                    250126000000001083910404080011501260000290000000000000000000000000000000000000000000000000000000000000000000000000010839000000000000000000000000000000000000000000000001054920000000000000          0000000000000000000000000000000000000000000000001061000022
700000000000000000071X0003029532835965                         2835965820859346470001001AI 02700000000000 17061501268208593464                    25012600000000108390011981X011501260000290000000000000000000000000000000000000000000000000000000000000000000000000010839000000000000000000000000000000000000000000000001054920000000000000          0000000000000000000000000000000000000000000000001061000023
700000000000000000071X0003029532835965                         2835965820859346670001001AI 02700000000000 17061501268208593466                    25012600000000108390011981X011501260000290000000000000000000000000000000000000000000000000000000000000000000000000010839000000000000000000000000000000000000000000000001054920000000000000          0000000000000000000000000000000000000000000000001061000024
70000000000000000379740000036033556968                         3556968820798104870000001AI 02700000000000 17061501268207981048                    150126000000001083900118678011901260000150000000000000000000000000000000000000000000000000000000000000000000000000010839000000000000000000000000000000000000000000000001068920000000000000          0000000000000000000000000000000000000000000000001006000025
700000000000000000071X0003029532835965                         2835965820859346770001001AI 02700000000000 17061501268208593467                    25012600000000108390011981X011501260000290000000000000000000000000000000000000000000000000000000000000000000000000010839000000000000000000000000000000000000000000000001054920000000000000          0000000000000000000000000000000000000000000000001061000026
70000000000000000379740000036033556968                         3556968820798146570000001AI 02700000000000 17061501268207981465                    150126000000001083975648990011901260000150000000000000000000000000000000000000000000000000000000000000000000000000010839000000000000000000000000000000000000000000000001068920000000000000          0000000000000000000000000000000000000000000000001010000027
700000000000000000071X0003029532835965                         2835965820859346870001001AI 02700000000000 17061501268208593468                    25012600000000108390011981X011501260000290000000000000000000000000000000000000000000000000000000000000000000000000010839000000000000000000000000000000000000000000000001054920000000000000          0000000000000000000000000000000000000000000000001061000028
70000000000000000379740000036033556968                         3556968820798198670000101AI 02700000000000 17061501268207981986                    160126000000002855934118030011901260000150000000000000000000000000000000000000000000000000000000000000000000000000028559000000000000000000000000000000000000000000000002840920000000000000          0000000000000000000000000000000000000000000000001010000029
700000000000000000071X0003029532835965                         2835965820859349270001001AI 02700000000000 17061501268208593492                    25012600000000108390011981X011501260000290000000000000000000000000000000000000000000000000000000000000000000000000010839000000000000000000000000000000000000000000000001054920000000000000          0000000000000000000000000000000000000000000000001061000030
70000000000000000379740000036033556968                         3556968820798282570000401AI 02700000000000 17061501268207982825                    190126000000001083934100710011901260000150000000000000000000000000000000000000000000000000000000000000000000000000010839000000000000000000000000000000000000000000000001068920000000000000          0000000000000000000000000000000000000000000000001010000031
70000000000000000282580005729692828039                         2828039997914018570000001AI 04300000000000 17061501269979140185                    150126000000001083900138601011901260000301000000000000000000000000000000000000000000000000000000000000000000000000010839000000000000000000000000000000000000000000000001083920000000000000          0000000000000000000000000000000000000000000000001004000032
700000000000000000071X0003029532835965                         2835965820859350670001001AI 02700000000000 17061501268208593506                    25012600000000108390011981X011501260000290000000000000000000000000000000000000000000000000000000000000000000000000010839000000000000000000000000000000000000000000000001054920000000000000          0000000000000000000000000000000000000000000000001061000033
70000000000000000379740000036033556968                         3556968820798619870000801AI 02700000000000 17061501268207986198                    23012600000000285590011981X011901260000150000000000000000000000000000000000000000000000000000000000000000000000000028559000000000000000000000000000000000000000000000002840920000000000000          0000000000000000000000000000000000000000000000001061000034
70000000000000000282580005729692828039                         2828039997914137570000401AI 04300000000000 17061501269979141375                    19012600000000108390013990X011901260000301000000000000000000000000000000000000000000000000000000000000000000000000010839000000000000000000000000000000000000000000000001083920000000000000          0000000000000000000000000000000000000000000000001006000035
700000000000000000071X0003029532835965                         2835965820859351470001001AI 02700000000000 17061501268208593514                    250126000000001083910408030011901260000355000000000000000000000000000000000000000000000000000000000000000000000000010839000000000000000000000000000000000000000000000001048420000000000000          0000000000000000000000000000000000000000000000001010000036
70000000000000000379740000036033556968                         3556968820798641670000901AI 02700000000000 17061501268207986416                    240126000000001083919700010011901260000150000000000000000000000000000000000000000000000000000000000000000000000000010839000000000000000000000000000000000000000000000001068920000000000000          0000000000000000000000000000000000000000000000001061000037
70000000000000000282580005729692828039                         2828039997914504570000601AI 04300000000000 17061501269979145045                    21012600000000108390011981X011501260000283000000000000000000000000000000000000000000000000000000000000000000000000010839000000000000000000000000000000000000000000000001083920000000000000          0000000000000000000000000000000000000000000000001061000038
700000000000000000071X0003029532835965                         2835965820859354070001001AI 02700000000000 17061501268208593540                    25012600000000285590011981X011501260000290000000000000000000000000000000000000000000000000000000000000000000000000028559000000000000000000000000000000000000000000000002826920000000000000          0000000000000000000000000000000000000000000000001061000039
70000000000000000379740000036033556968                         3556968820798658170000901AI 02700000000000 17061501268207986581                    240126000000001083926000010011901260000150000000000000000000000000000000000000000000000000000000000000000000000000010839000000000000000000000000000000000000000000000001068920000000000000          0000000000000000000000000000000000000000000000001010000040
70000000000000000282580005729692828039                         2828039997914504670000601AI 04300000000000 17061501269979145046                    21012600000000108390011981X011501260000283000000000000000000000000000000000000000000000000000000000000000000000000010839000000000000000000000000000000000000000000000001083920000000000000          0000000000000000000000000000000000000000000000001061000041
700000000000000000071X0003029532835965                         2835965820859355670001001AI 02700000000000 17061501268208593556                    250126000000001083900300440011901260000355000000000000000000000000000000000000000000000000000000000000000000000000010839000000000000000000000000000000000000000000000001048420000000000000          0000000000000000000000000000000000000000000000001010000042
70000000000000000379740000036033556968                         3556968820798658470000901AI 02700000000000 17061501268207986584                    240126000000002855903337370011901260000150000000000000000000000000000000000000000000000000000000000000000000000000028559000000000000000000000000000000000000000000000002840920000000000000          0000000000000000000000000000000000000000000000001010000043
70000000000000000282580005729692828039                         2828039997914525070000701AI 04300000000000 17061501269979145250                    220126000000001083975648710011901260000301000000000000000000000000000000000000000000000000000000000000000000000000010839000000000000000000000000000000000000000000000001083920000000000000          0000000000000000000000000000000000000000000000001010000044
700000000000000000071X0003029532835965                         2835965820859355970001001AI 02700000000000 17061501268208593559                    250126000000001083907700010011501260000290000000000000000000000000000000000000000000000000000000000000000000000000010839000000000000000000000000000000000000000000000001054920000000000000          0000000000000000000000000000000000000000000000001061000045
70000000000000000379740000036033556968                         3556968820798663570000901AI 02700000000000 17061501268207986635                    240126000000002855903337370011901260000150000000000000000000000000000000000000000000000000000000000000000000000000028559000000000000000000000000000000000000000000000002840920000000000000          0000000000000000000000000000000000000000000000001010000046
70000000000000000282580005729692828039                         2828039997914534970000701AI 04300000000000 17061501269979145349                    220126000000001083926000010011501260000283000000000000000000000000000000000000000000000000000000000000000000000000010839000000000000000000000000000000000000000000000001083920000000000000          0000000000000000000000000000000000000000000000001061000047
700000000000000000071X0003029532835965                         2835965820859356170001001AI 02700000000000 17061501268208593561                    250126000000001083926000010011501260000290000000000000000000000000000000000000000000000000000000000000000000000000010839000000000000000000000000000000000000000000000001054920000000000000          0000000000000000000000000000000000000000000000001061000048
70000000000000000379740000036033556968                         3556968820798665670000901AI 02700000000000 17061501268207986656                    240126000000001083934109100011901260000150000000000000000000000000000000000000000000000000000000000000000000000000010839000000000000000000000000000000000000000000000001068920000000000000          0000000000000000000000000000000000000000000000001010000049
70000000000000000282580005729692828039                         2828039997914565670000801AI 04300000000000 17061501269979145656                    230126000000001083903312730011901260000301000000000000000000000000000000000000000000000000000000000000000000000000010839000000000000000000000000000000000000000000000001083920000000000000          0000000000000000000000000000000000000000000000001010000050
700000000000000000071X0003029532835965                         2835965820859356370001501AI 02700000000000 17061501268208593563                    30012600000000108390011981X011501260000290000000000000000000000000000000000000000000000000000000000000000000000000010839000000000000000000000000000000000000000000000001054920000000000000          0000000000000000000000000000000000000000000000001061000051
70000000000000000379740000036033556968                         3556968820798665970000901AI 02700000000000 17061501268207986659                    240126000000002855903337370011901260000150000000000000000000000000000000000000000000000000000000000000000000000000028559000000000000000000000000000000000000000000000002840920000000000000          0000000000000000000000000000000000000000000000001010000052
70000000000000000282580005729692828039                         2828039997914565770000801AI 04300000000000 17061501269979145657                    230126000000001083934111380011501260000283000000000000000000000000000000000000000000000000000000000000000000000000010839000000000000000000000000000000000000000000000001083920000000000000          0000000000000000000000000000000000000000000000001061000053
700000000000000000071X0003029532835965                         2835965820859358270001001AI 02700000000000 17061501268208593582                    25012600000000108390011981X011501260000290000000000000000000000000000000000000000000000000000000000000000000000000010839000000000000000000000000000000000000000000000001054920000000000000          0000000000000000000000000000000000000000000000001061000054
70000000000000000379740000036033556968                         3556968820798671670000901AI 02700000000000 17061501268207986716                    240126000000001083900157800011901260000150000000000000000000000000000000000000000000000000000000000000000000000000010839000000000000000000000000000000000000000000000001068920000000000000          0000000000000000000000000000000000000000000000001006000055
70000000000000000282580005729692828039                         2828039997914566070000801AI 04300000000000 17061501269979145660                    230126000000001083923720080011501260000283000000000000000000000000000000000000000000000000000000000000000000000000010839000000000000000000000000000000000000000000000001083920000000000000          0000000000000000000000000000000000000000000000001061000056
700000000000000000071X0003029532835965                         2835965820859371170001001AI 02700000000000 17061501268208593711                    250126000000001083900123582011901260000355000000000000000000000000000000000000000000000000000000000000000000000000010839000000000000000000000000000000000000000000000001048420000000000000          0000000000000000000000000000000000000000000000001002000057
70000000000000000379740000036033556968                         3556968820798671870001001AI 02700000000000 17061501268207986718                    25012600000000108390011981X011901260000150000000000000000000000000000000000000000000000000000000000000000000000000010839000000000000000000000000000000000000000000000001068920000000000000          0000000000000000000000000000000000000000000000001061000058
70000000000000000282580005729692828039                         2828039997914572870000901AI 04300000000000 17061501269979145728                    240126000000001083975648710011901260000301000000000000000000000000000000000000000000000000000000000000000000000000010839000000000000000000000000000000000000000000000001083920000000000000          0000000000000000000000000000000000000000000000001010000059
700000000000000000071X0003029532835965                         2835965820859371370001001AI 02700000000000 17061501268208593713                    250126000000002100000142056011901260000355000000000000000000000000000000000000000000000000000000000000000000000000021000000000000000000000000000000000000000000000000002064520000000000000          0000000000000000000000000000000000000000000000001004000060
70000000000000000379740000036033556968                         3556968820798671970004301AI 02700000000000 17061501268207986719                    27022600000000108390011981X011901260000150000000000000000000000000000000000000000000000000000000000000000000000000010839000000000000000000000000000000000000000000000001068920000000000000          0000000000000000000000000000000000000000000000001061000061
70000000000000000282580005729692828039                         2828039997914579770000901AI 04300000000000 17061501269979145797                    24012600000000108390013990X011901260000301000000000000000000000000000000000000000000000000000000000000000000000000010839000000000000000000000000000000000000000000000001083920000000000000          0000000000000000000000000000000000000000000000001006000062
700000000000000000071X0003029532835965                         2835965820859371670001001AI 02700000000000 17061501268208593716                    250126000000001083932300010011501260000290000000000000000000000000000000000000000000000000000000000000000000000000010839000000000000000000000000000000000000000000000001054920000000000000          0000000000000000000000000000000000000000000000001061000063
70000000000000000379740000036033556968                         3556968820798674770001001AI 02700000000000 17061501268207986747                    250126000000002855903337370011901260000150000000000000000000000000000000000000000000000000000000000000000000000000028559000000000000000000000000000000000000000000000002840920000000000000          0000000000000000000000000000000000000000000000001010000064
70000000000000000282580005729692828039                         2828039997914589770000801AI 04300000000000 17061501269979145897                    230126000000001083903312460011501260000283000000000000000000000000000000000000000000000000000000000000000000000000010839000000000000000000000000000000000000000000000001083920000000000000          0000000000000000000000000000000000000000000000001061000065
700000000000000000071X0003029532835965                         2835965820859371770001001AI 02700000000000 17061501268208593717                    250126000000001083926000010011501260000290000000000000000000000000000000000000000000000000000000000000000000000000010839000000000000000000000000000000000000000000000001054920000000000000          0000000000000000000000000000000000000000000000001061000066
70000000000000000379740000036033556968                         3556968820798674870001001AI 02700000000000 17061501268207986748                    250126000000001083903300370011901260000150000000000000000000000000000000000000000000000000000000000000000000000000010839000000000000000000000000000000000000000000000001068920000000000000          0000000000000000000000000000000000000000000000001010000067
70000000000000000282580005729692828039                         2828039997914592970000901AI 04300000000000 17061501269979145929                    240126000000001083926000010011501260000283000000000000000000000000000000000000000000000000000000000000000000000000010839000000000000000000000000000000000000000000000001083920000000000000          0000000000000000000000000000000000000000000000001061000068
700000000000000000071X0003029532835965                         2835965820859372070001001AI 02700000000000 17061501268208593720                    250126000000001083910422780011501260000290000000000000000000000000000000000000000000000000000000000000000000000000010839000000000000000000000000000000000000000000000001054920000000000000          0000000000000000000000000000000000000000000000001061000069
70000000000000000379740000036033556968                         3556968820798677870001001AI 02700000000000 17061501268207986778                    250126000000002855903337370011901260000150000000000000000000000000000000000000000000000000000000000000000000000000028559000000000000000000000000000000000000000000000002840920000000000000          0000000000000000000000000000000000000000000000001010000070
70000000000000000282580005729692828039                         2828039997914594370000901AI 04300000000000 17061501269979145943                    240126000000001083907700010011501260000283000000000000000000000000000000000000000000000000000000000000000000000000010839000000000000000000000000000000000000000000000001083920000000000000          0000000000000000000000000000000000000000000000001061000071
700000000000000000071X0003029532835965                         2835965820859372270001001AI 02700000000000 17061501268208593722                    250126000000001083933600010011501260000290000000000000000000000000000000000000000000000000000000000000000000000000010839000000000000000000000000000000000000000000000001054920000000000000          0000000000000000000000000000000000000000000000001061000072
70000000000000000379740000036033556968                         3556968820798680570001001AI 02700000000000 17061501268207986805                    250126000000001083900118627011901260000150000000000000000000000000000000000000000000000000000000000000000000000000010839000000000000000000000000000000000000000000000001068920000000000000          0000000000000000000000000000000000000000000000001002000073
70000000000000000282580005729692828039                         2828039997914594570000901AI 04300000000000 17061501269979145945                    240126000000001083900148755011901260000301000000000000000000000000000000000000000000000000000000000000000000000000010839000000000000000000000000000000000000000000000001083920000000000000          0000000000000000000000000000000000000000000000001006000074
700000000000000000071X0003029532835965                         2835965820859372370001001AI 02700000000000 17061501268208593723                    250126000000001083910437060011501260000290000000000000000000000000000000000000000000000000000000000000000000000000010839000000000000000000000000000000000000000000000001054920000000000000          0000000000000000000000000000000000000000000000001061000075
70000000000000000379740000036033556968                         3556968820798680670001001AI 02700000000000 17061501268207986806                    250126000000001083903329860011901260000150000000000000000000000000000000000000000000000000000000000000000000000000010839000000000000000000000000000000000000000000000001068920000000000000          0000000000000000000000000000000000000000000000001010000076
70000000000000000282580005729692828039                         2828039997914595970000901AI 04300000000000 17061501269979145959                    240126000000001083907700010011501260000283000000000000000000000000000000000000000000000000000000000000000000000000010839000000000000000000000000000000000000000000000001083920000000000000          0000000000000000000000000000000000000000000000001061000077
700000000000000000071X0003029532835965                         2835965820859374570001001AI 02700000000000 17061501268208593745                    25012600000000108390011981X011501260000290000000000000000000000000000000000000000000000000000000000000000000000000010839000000000000000000000000000000000000000000000001054920000000000000          0000000000000000000000000000000000000000000000001061000078
70000000000000000379740000036033556968                         3556968820798680770001001AI 02700000000000 17061501268207986807                    250126000000002855903329860011901260000150000000000000000000000000000000000000000000000000000000000000000000000000028559000000000000000000000000000000000000000000000002840920000000000000          0000000000000000000000000000000000000000000000001010000079
70000000000000000282580005729692828039                         2828039997914596170000901AI 04300000000000 17061501269979145961                    240126000000001083923757180011901260000301000000000000000000000000000000000000000000000000000000000000000000000000010839000000000000000000000000000000000000000000000001083920000000000000          0000000000000000000000000000000000000000000000001010000080
700000000000000000071X0003029532835965                         2835965820859374770001001AI 02700000000000 17061501268208593747                    250126000000001083910408030011901260000355000000000000000000000000000000000000000000000000000000000000000000000000010839000000000000000000000000000000000000000000000001048420000000000000          0000000000000000000000000000000000000000000000001010000081
70000000000000000379740000036033556968                         3556968820798698970001001AI 02700000000000 17061501268207986989                    250126000000001083932300010011901260000150000000000000000000000000000000000000000000000000000000000000000000000000010839000000000000000000000000000000000000000000000001068920000000000000          0000000000000000000000000000000000000000000000001061000082
70000000000000000282580005729692828039                         2828039997914596270000901AI 04300000000000 17061501269979145962                    240126000000001083934184540011901260000301000000000000000000000000000000000000000000000000000000000000000000000000010839000000000000000000000000000000000000000000000001083920000000000000          0000000000000000000000000000000000000000000000001010000083
700000000000000000071X0003029532835965                         2835965820859375070001001AI 02700000000000 17061501268208593750                    250126000000001083926000010011501260000290000000000000000000000000000000000000000000000000000000000000000000000000010839000000000000000000000000000000000000000000000001054920000000000000          0000000000000000000000000000000000000000000000001061000084
70000000000000000379740000036033556968                         3556968820798699070001001AI 02700000000000 17061501268207986990                    250126000000002855932300010011901260000150000000000000000000000000000000000000000000000000000000000000000000000000028559000000000000000000000000000000000000000000000002840920000000000000          0000000000000000000000000000000000000000000000001061000085
70000000000000000282580005729692828039                         2828039997914598770000901AI 04300000000000 17061501269979145987                    240126000000001083900144350011901260000301000000000000000000000000000000000000000000000000000000000000000000000000010839000000000000000000000000000000000000000000000001083920000000000000          0000000000000000000000000000000000000000000000001006000086
700000000000000000071X0003029532835965                         2835965820859375170001001AI 02700000000000 17061501268208593751                    25012600000000285590011981X011501260000290000000000000000000000000000000000000000000000000000000000000000000000000028559000000000000000000000000000000000000000000000002826920000000000000          0000000000000000000000000000000000000000000000001061000087
70000000000000000379740000036033556968                         3556968820798699470001001AI 02700000000000 17061501268207986994                    250126000000001083963700010011901260000150000000000000000000000000000000000000000000000000000000000000000000000000010839000000000000000000000000000000000000000000000001068920000000000000          0000000000000000000000000000000000000000000000001061000088
70000000000000000282580005729692828039                         2828039997914599170000901AI 04300000000000 17061501269979145991                    240126000000001083923733810011901260000301000000000000000000000000000000000000000000000000000000000000000000000000010839000000000000000000000000000000000000000000000001083920000000000000          0000000000000000000000000000000000000000000000001010000089
700000000000000000071X0003029532835965                         2835965820859375270001001AI 02700000000000 17061501268208593752                    250126000000002855903332700011501260000290000000000000000000000000000000000000000000000000000000000000000000000000028559000000000000000000000000000000000000000000000002826920000000000000          0000000000000000000000000000000000000000000000001061000090
70000000000000000379740000036033556968                         3556968820798702470001001AI 02700000000000 17061501268207987024                    250126000000001083919700010011901260000150000000000000000000000000000000000000000000000000000000000000000000000000010839000000000000000000000000000000000000000000000001068920000000000000          0000000000000000000000000000000000000000000000001061000091
70000000000000000282580005729692828039                         2828039997914599270000901AI 04300000000000 17061501269979145992                    240126000000001083923733810011901260000301000000000000000000000000000000000000000000000000000000000000000000000000010839000000000000000000000000000000000000000000000001083920000000000000          0000000000000000000000000000000000000000000000001010000092
700000000000000000071X0003029532835965                         2835965820859375370001001AI 02700000000000 17061501268208593753                    25012600000000285590011981X011501260000290000000000000000000000000000000000000000000000000000000000000000000000000028559000000000000000000000000000000000000000000000002826920000000000000          0000000000000000000000000000000000000000000000001061000093
70000000000000000379740000036033556968                         3556968820798702570001001AI 02700000000000 17061501268207987025                    25012600000000108390011981X011901260000150000000000000000000000000000000000000000000000000000000000000000000000000010839000000000000000000000000000000000000000000000001068920000000000000          0000000000000000000000000000000000000000000000001061000094
70000000000000000282580005729692828039                         2828039997914599370000901AI 04300000000000 17061501269979145993                    240126000000001083923733810011901260000301000000000000000000000000000000000000000000000000000000000000000000000000010839000000000000000000000000000000000000000000000001083920000000000000          0000000000000000000000000000000000000000000000001010000095
700000000000000000071X0003029532835965                         2835965820859375470001001AI 02700000000000 17061501268208593754                    25012600000000108390011981X011501260000290000000000000000000000000000000000000000000000000000000000000000000000000010839000000000000000000000000000000000000000000000001054920000000000000          0000000000000000000000000000000000000000000000001061000096
70000000000000000379740000036033556968                         3556968820798703370001001AI 02700000000000 17061501268207987033                    25012600000000285590011981X011901260000150000000000000000000000000000000000000000000000000000000000000000000000000028559000000000000000000000000000000000000000000000002840920000000000000          0000000000000000000000000000000000000000000000001061000097
70000000000000000282580005729692828039                         2828039997914599570000901AI 04300000000000 17061501269979145995                    240126000000001083923733810011901260000301000000000000000000000000000000000000000000000000000000000000000000000000010839000000000000000000000000000000000000000000000001083920000000000000          0000000000000000000000000000000000000000000000001010000098
700000000000000000071X0003029532835965                         2835965820859375570001001AI 02700000000000 17061501268208593755                    250126000000001083920800500011501260000290000000000000000000000000000000000000000000000000000000000000000000000000010839000000000000000000000000000000000000000000000001054920000000000000          0000000000000000000000000000000000000000000000001061000099
70000000000000000379740000036033556968                         3556968820798708270001001AI 02700000000000 17061501268207987082                    25012600000000108390011981X011901260000150000000000000000000000000000000000000000000000000000000000000000000000000010839000000000000000000000000000000000000000000000001068920000000000000          0000000000000000000000000000000000000000000000001061000100
70000000000000000282580005729692828039                         2828039997914600670000901AI 04300000000000 17061501269979146006                    240126000000001083923733810011901260000301000000000000000000000000000000000000000000000000000000000000000000000000010839000000000000000000000000000000000000000000000001083920000000000000          0000000000000000000000000000000000000000000000001010000101
700000000000000000071X0003029532835965                         2835965820859375670001001AI 02700000000000 17061501268208593756                    250126000000001083920800500011501260000290000000000000000000000000000000000000000000000000000000000000000000000000010839000000000000000000000000000000000000000000000001054920000000000000          0000000000000000000000000000000000000000000000001061000102
70000000000000000379740000036033556968                         3556968820798708370001001AI 02700000000000 17061501268207987083                    25012600000000108390011981X011901260000150000000000000000000000000000000000000000000000000000000000000000000000000010839000000000000000000000000000000000000000000000001068920000000000000          0000000000000000000000000000000000000000000000001061000103
70000000000000000282580005729692828039                         2828039997914600770000901AI 04300000000000 17061501269979146007                    240126000000001083923733810011901260000301000000000000000000000000000000000000000000000000000000000000000000000000010839000000000000000000000000000000000000000000000001083920000000000000          0000000000000000000000000000000000000000000000001010000104
70000000000000000379740000036033556968                         3556968820798709070001001AI 02700000000000 17061501268207987090                    25012600000000108390010250X011901260000150000000000000000000000000000000000000000000000000000000000000000000000000010839000000000000000000000000000000000000000000000001068920000000000000          0000000000000000000000000000000000000000000000001004000105
70000000000000000282580005729692828039                         2828039997914600870000901AI 04300000000000 17061501269979146008                    240126000000001083923733810011901260000301000000000000000000000000000000000000000000000000000000000000000000000000010839000000000000000000000000000000000000000000000001083920000000000000          0000000000000000000000000000000000000000000000001010000106
70000000000000000379740000036033556968                         3556968820798712670001001AI 02700000000000 17061501268207987126                    250126000000002855926000010011901260000150000000000000000000000000000000000000000000000000000000000000000000000000028559000000000000000000000000000000000000000000000002840920000000000000          0000000000000000000000000000000000000000000000001061000107
70000000000000000282580005729692828039                         2828039997914600970000901AI 04300000000000 17061501269979146009                    240126000000001083923733810011901260000301000000000000000000000000000000000000000000000000000000000000000000000000010839000000000000000000000000000000000000000000000001083920000000000000          0000000000000000000000000000000000000000000000001010000108
70000000000000000379740000036033556968                         3556968820798713070001001AI 02700000000000 17061501268207987130                    250126000000001083900126174011901260000150000000000000000000000000000000000000000000000000000000000000000000000000010839000000000000000000000000000000000000000000000001068920000000000000          0000000000000000000000000000000000000000000000001004000109
70000000000000000282580005729692828039                         2828039997914601070001001AI 04300000000000 17061501269979146010                    250126000000001083900159293011901260000301000000000000000000000000000000000000000000000000000000000000000000000000010839000000000000000000000000000000000000000000000001083920000000000000          0000000000000000000000000000000000000000000000001006000110
70000000000000000379740000036033556968                         3556968820798713670001001AI 02700000000000 17061501268207987136                    25012600000000285590011981X011901260000150000000000000000000000000000000000000000000000000000000000000000000000000028559000000000000000000000000000000000000000000000002840920000000000000          0000000000000000000000000000000000000000000000001061000111
70000000000000000282580005729692828039                         2828039997914601470001001AI 04300000000000 17061501269979146014                    25012600000000108390011981X011501260000283000000000000000000000000000000000000000000000000000000000000000000000000010839000000000000000000000000000000000000000000000001083920000000000000          0000000000000000000000000000000000000000000000001061000112
70000000000000000379740000036033556968                         3556968820798713870001001AI 02700000000000 17061501268207987138                    250126000000001083919700010011901260000150000000000000000000000000000000000000000000000000000000000000000000000000010839000000000000000000000000000000000000000000000001068920000000000000          0000000000000000000000000000000000000000000000001061000113
70000000000000000282580005729692828039                         2828039997914601570001001AI 04300000000000 17061501269979146015                    250126000000001083900145446011901260000301000000000000000000000000000000000000000000000000000000000000000000000000010839000000000000000000000000000000000000000000000001083920000000000000          0000000000000000000000000000000000000000000000001004000114
70000000000000000379740000036033556968                         3556968820798713970001001AI 02700000000000 17061501268207987139                    25012600000000108390011981X011901260000150000000000000000000000000000000000000000000000000000000000000000000000000010839000000000000000000000000000000000000000000000001068920000000000000          0000000000000000000000000000000000000000000000001061000115
70000000000000000282580005729692828039                         2828039997914601670001001AI 04300000000000 17061501269979146016                    250126000000001083900181221011901260000301000000000000000000000000000000000000000000000000000000000000000000000000010839000000000000000000000000000000000000000000000001083920000000000000          0000000000000000000000000000000000000000000000001006000116
70000000000000000379740000036033556968                         3556968820798714070001001AI 02700000000000 17061501268207987140                    25012600000000108390011981X011901260000150000000000000000000000000000000000000000000000000000000000000000000000000010839000000000000000000000000000000000000000000000001068920000000000000          0000000000000000000000000000000000000000000000001061000117
70000000000000000282580005729692828039                         2828039997914601770001001AI 04300000000000 17061501269979146017                    250126000000001083926000010011501260000283000000000000000000000000000000000000000000000000000000000000000000000000010839000000000000000000000000000000000000000000000001083920000000000000          0000000000000000000000000000000000000000000000001061000118
70000000000000000379740000036033556968                         3556968820798714170001001AI 02700000000000 17061501268207987141                    250126000000001083926000010011901260000150000000000000000000000000000000000000000000000000000000000000000000000000010839000000000000000000000000000000000000000000000001068920000000000000          0000000000000000000000000000000000000000000000001061000119
70000000000000000282580005729692828039                         2828039997914601970001001AI 04300000000000 17061501269979146019                    250126000000001083934184540011901260000301000000000000000000000000000000000000000000000000000000000000000000000000010839000000000000000000000000000000000000000000000001083920000000000000          0000000000000000000000000000000000000000000000001010000120
70000000000000000379740000036033556968                         3556968820798714270001001AI 02700000000000 17061501268207987142                    25012600000000108390011981X011901260000150000000000000000000000000000000000000000000000000000000000000000000000000010839000000000000000000000000000000000000000000000001068920000000000000          0000000000000000000000000000000000000000000000001061000121
70000000000000000282580005729692828039                         2828039997914602470001501AI 04300000000000 17061501269979146024                    30012600000000345790011981X011501260000283000000000000000000000000000000000000000000000000000000000000000000000000034579000000000000000000000000000000000000000000000003457920000000000000          0000000000000000000000000000000000000000000000001061000122
70000000000000000379740000036033556968                         3556968820798714370001001AI 02700000000000 17061501268207987143                    250126000000001083910442520011901260000150000000000000000000000000000000000000000000000000000000000000000000000000010839000000000000000000000000000000000000000000000001068920000000000000          0000000000000000000000000000000000000000000000001061000123
70000000000000000282580005729692828039                         2828039997914604770001001AI 04300000000000 17061501269979146047                    250126000000001083934185290011901260000301000000000000000000000000000000000000000000000000000000000000000000000000010839000000000000000000000000000000000000000000000001083920000000000000          0000000000000000000000000000000000000000000000001010000124
70000000000000000379740000036033556968                         3556968820798714470001001AI 02700000000000 17061501268207987144                    25012600000000108390011981X011901260000150000000000000000000000000000000000000000000000000000000000000000000000000010839000000000000000000000000000000000000000000000001068920000000000000          0000000000000000000000000000000000000000000000001061000125
70000000000000000282580005729692828039                         2828039997914607270001001AI 04300000000000 17061501269979146072                    250126000000001083926000010011501260000283000000000000000000000000000000000000000000000000000000000000000000000000010839000000000000000000000000000000000000000000000001083920000000000000          0000000000000000000000000000000000000000000000001061000126
70000000000000000379740000036033556968                         3556968820798714670001001AI 02700000000000 17061501268207987146                    250126000000001083900139934011901260000150000000000000000000000000000000000000000000000000000000000000000000000000010839000000000000000000000000000000000000000000000001068920000000000000          0000000000000000000000000000000000000000000000001006000127
70000000000000000282580005729692828039                         2828039997914608670001001AI 04300000000000 17061501269979146086                    25012600000000285590011981X011501260000283000000000000000000000000000000000000000000000000000000000000000000000000028559000000000000000000000000000000000000000000000002855920000000000000          0000000000000000000000000000000000000000000000001061000128
70000000000000000379740000036033556968                         3556968820798714770001001AI 02700000000000 17061501268207987147                    25012600000000108390011981X011901260000150000000000000000000000000000000000000000000000000000000000000000000000000010839000000000000000000000000000000000000000000000001068920000000000000          0000000000000000000000000000000000000000000000001061000129
70000000000000000282580005729692828039                         2828039997914609770001001AI 04300000000000 17061501269979146097                    250126000000001083950900010011901260000301000000000000000000000000000000000000000000000000000000000000000000000000010839000000000000000000000000000000000000000000000001083920000000000000          0000000000000000000000000000000000000000000000001010000130
70000000000000000379740000036033556968                         3556968820798714870001001AI 02700000000000 17061501268207987148                    25012600000000108390010250X011901260000150000000000000000000000000000000000000000000000000000000000000000000000000010839000000000000000000000000000000000000000000000001068920000000000000          0000000000000000000000000000000000000000000000001004000131
70000000000000000282580005729692828039                         2828039997914611070001001AI 04300000000000 17061501269979146110                    250126000000001083934170300011501260000283000000000000000000000000000000000000000000000000000000000000000000000000010839000000000000000000000000000000000000000000000001083920000000000000          0000000000000000000000000000000000000000000000001061000132
70000000000000000379740000036033556968                         3556968820798714970001001AI 02700000000000 17061501268207987149                    250126000000001083910406530011901260000150000000000000000000000000000000000000000000000000000000000000000000000000010839000000000000000000000000000000000000000000000001068920000000000000          0000000000000000000000000000000000000000000000001010000133
70000000000000000282580005729692828039                         2828039997914613370001001AI 04300000000000 17061501269979146133                    250126000000002855910463500011501260000283000000000000000000000000000000000000000000000000000000000000000000000000028559000000000000000000000000000000000000000000000002855920000000000000          0000000000000000000000000000000000000000000000001061000134
70000000000000000379740000036033556968                         3556968820798715070001001AI 02700000000000 17061501268207987150                    250126000000001083910475540011901260000150000000000000000000000000000000000000000000000000000000000000000000000000010839000000000000000000000000000000000000000000000001068920000000000000          0000000000000000000000000000000000000000000000001061000135
70000000000000000282580005729692828039                         2828039997914616570001001AI 04300000000000 17061501269979146165                    250126000000001083923714700011501260000283000000000000000000000000000000000000000000000000000000000000000000000000010839000000000000000000000000000000000000000000000001083920000000000000          0000000000000000000000000000000000000000000000001061000136
70000000000000000379740000036033556968                         3556968820798715170001001AI 02700000000000 17061501268207987151                    25012600000000108390011981X011901260000150000000000000000000000000000000000000000000000000000000000000000000000000010839000000000000000000000000000000000000000000000001068920000000000000          0000000000000000000000000000000000000000000000001061000137
70000000000000000282580005729692828039                         2828039997914616870001001AI 04300000000000 17061501269979146168                    250126000000001083910406580011501260000283000000000000000000000000000000000000000000000000000000000000000000000000010839000000000000000000000000000000000000000000000001083920000000000000          0000000000000000000000000000000000000000000000001061000138
70000000000000000379740000036033556968                         3556968820798715370001001AI 02700000000000 17061501268207987153                    25012600000000108390011981X011901260000150000000000000000000000000000000000000000000000000000000000000000000000000010839000000000000000000000000000000000000000000000001068920000000000000          0000000000000000000000000000000000000000000000001061000139
70000000000000000282580005729692828039                         2828039997914617170001001AI 04300000000000 17061501269979146171                    250126000000001083900159293011901260000301000000000000000000000000000000000000000000000000000000000000000000000000010839000000000000000000000000000000000000000000000001083920000000000000          0000000000000000000000000000000000000000000000001006000140
70000000000000000379740000036033556968                         3556968820798715470001001AI 02700000000000 17061501268207987154                    250126000000001083923705220011901260000150000000000000000000000000000000000000000000000000000000000000000000000000010839000000000000000000000000000000000000000000000001068920000000000000          0000000000000000000000000000000000000000000000001010000141
70000000000000000282580005729692828039                         2828039997914617470001001AI 04300000000000 17061501269979146174                    250126000000001083934152760011501260000283000000000000000000000000000000000000000000000000000000000000000000000000010839000000000000000000000000000000000000000000000001083920000000000000          0000000000000000000000000000000000000000000000001061000142
70000000000000000379740000036033556968                         3556968820798715570001001AI 02700000000000 17061501268207987155                    25012600000000108390011981X011901260000150000000000000000000000000000000000000000000000000000000000000000000000000010839000000000000000000000000000000000000000000000001068920000000000000          0000000000000000000000000000000000000000000000001061000143
70000000000000000282580005729692828039                         2828039997914617670001001AI 04300000000000 17061501269979146176                    250126000000001083950900010011901260000301000000000000000000000000000000000000000000000000000000000000000000000000010839000000000000000000000000000000000000000000000001083920000000000000          0000000000000000000000000000000000000000000000001010000144
70000000000000000379740000036033556968                         3556968820798715970001001AI 02700000000000 17061501268207987159                    25012600000000108390011981X011901260000150000000000000000000000000000000000000000000000000000000000000000000000000010839000000000000000000000000000000000000000000000001068920000000000000          0000000000000000000000000000000000000000000000001061000145
70000000000000000282580005729692828039                         2828039997914618670001001AI 04300000000000 17061501269979146186                    250126000000001083950900010011901260000301000000000000000000000000000000000000000000000000000000000000000000000000010839000000000000000000000000000000000000000000000001083920000000000000          0000000000000000000000000000000000000000000000001010000146
70000000000000000379740000036033556968                         3556968820798716070001001AI 02700000000000 17061501268207987160                    25012600000000108390011981X011901260000150000000000000000000000000000000000000000000000000000000000000000000000000010839000000000000000000000000000000000000000000000001068920000000000000          0000000000000000000000000000000000000000000000001061000147
70000000000000000282580005729692828039                         2828039997914618770001001AI 04300000000000 17061501269979146187                    250126000000001083910431010011901260000301000000000000000000000000000000000000000000000000000000000000000000000000010839000000000000000000000000000000000000000000000001083920000000000000          0000000000000000000000000000000000000000000000001010000148
70000000000000000379740000036033556968                         3556968820798718870000001AI 02700000000000 17061501268207987188                    25012600000000108390011981X011901260000150000000000000000000000000000000000000000000000000000000000000000000000000010839000000000000000000000000000000000000000000000001068920000000000000          0000000000000000000000000000000000000000000000001061000149
70000000000000000282580005729692828039                         2828039997914618970001001AI 04300000000000 17061501269979146189                    25012600000000108390011981X011501260000283000000000000000000000000000000000000000000000000000000000000000000000000010839000000000000000000000000000000000000000000000001083920000000000000          0000000000000000000000000000000000000000000000001061000150
70000000000000000379740000036033556968                         3556968820798719170000001AI 02700000000000 17061501268207987191                    250126000000002855907700010011901260000150000000000000000000000000000000000000000000000000000000000000000000000000028559000000000000000000000000000000000000000000000002840920000000000000          0000000000000000000000000000000000000000000000001061000151
70000000000000000282580005729692828039                         2828039997914619870001001AI 04300000000000 17061501269979146198                    250126000000001083926000010011901260000301000000000000000000000000000000000000000000000000000000000000000000000000010839000000000000000000000000000000000000000000000001083920000000000000          0000000000000000000000000000000000000000000000001010000152
70000000000000000379740000036033556968                         3556968820798719470000001AI 02700000000000 17061501268207987194                    250126000000002855938000010011901260000150000000000000000000000000000000000000000000000000000000000000000000000000028559000000000000000000000000000000000000000000000002840920000000000000          0000000000000000000000000000000000000000000000001061000153
70000000000000000282580005729692828039                         2828039997914622170001001AI 04300000000000 17061501269979146221                    25012600000000108390011981X011501260000283000000000000000000000000000000000000000000000000000000000000000000000000010839000000000000000000000000000000000000000000000001083920000000000000          0000000000000000000000000000000000000000000000001061000154
70000000000000000282580005729692828039                         2828039997914622370001001AI 04300000000000 17061501269979146223                    250126000000001083933600010011501260000283000000000000000000000000000000000000000000000000000000000000000000000000010839000000000000000000000000000000000000000000000001083920000000000000          0000000000000000000000000000000000000000000000001061000155
70000000000000000001320000309022835375                         2835375830339939470000001AI 02700000000000 17061501268303399394                    150126000000002855923723730011601260000234000000000000000000000000000000000000000000000000000000000000000000000000028559000000000000000000000000000000000000000000000002832520000000000000          0000000000000000000000000000000000000000000000001010000156
70000000000000000001320000309022835375                         2835375830340017270000001AI 02700000000000 17061501268303400172                    150126000000002855910448060011601260000100000000000000000000000000000000000000000000000000000000000000000000000000028559000000000000000000000000000000000000000000000002845920000000000000          0000000000000000000000000000000000000000000000001061000157
70000000000000000001320000309022835375                         2835375830340037070000001AI 02700000000000 17061501268303400370                    150126000000002855910448060011601260000100000000000000000000000000000000000000000000000000000000000000000000000000028559000000000000000000000000000000000000000000000002845920000000000000          0000000000000000000000000000000000000000000000001061000158
70000000000000000001320000309022835375                         2835375830340037170000001AI 02700000000000 17061501268303400371                    150126000000002855910448060011601260000100000000000000000000000000000000000000000000000000000000000000000000000000028559000000000000000000000000000000000000000000000002845920000000000000          0000000000000000000000000000000000000000000000001061000159
70000000000000000001320000309022835375                         2835375830340087270000101AI 02700000000000 17061501268303400872                    160126000000002855900105428011601260000234000000000000000000000000000000000000000000000000000000000000000000000000028559000000000000000000000000000000000000000000000002832520000000000000          0000000000000000000000000000000000000000000000001004000160
70000000000000000001320000309022835375                         2835375830340252570000201AI 02700000000000 17061501268303402525                    170126000000001083900137214011601260000234000000000000000000000000000000000000000000000000000000000000000000000000010839000000000000000000000000000000000000000000000001060520000000000000          0000000000000000000000000000000000000000000000001006000161
70000000000000000001320000309022835375                         2835375830340281470000201AI 02700000000000 17061501268303402814                    170126000000002855907700010011601260000100000000000000000000000000000000000000000000000000000000000000000000000000028559000000000000000000000000000000000000000000000002845920000000000000          0000000000000000000000000000000000000000000000001061000162
70000000000000000001320000309022835375                         2835375830340314970000301AI 02700000000000 17061501268303403149                    180126000000002855910400560011601260000234000000000000000000000000000000000000000000000000000000000000000000000000028559000000000000000000000000000000000000000000000002832520000000000000          0000000000000000000000000000000000000000000000001010000163
70000000000000000001320000309022835375                         2835375830340315270000301AI 02700000000000 17061501268303403152                    18012600000000108390011981X011601260000100000000000000000000000000000000000000000000000000000000000000000000000000010839000000000000000000000000000000000000000000000001073920000000000000          0000000000000000000000000000000000000000000000001061000164
70000000000000000001320000309022835375                         2835375830340330770000301AI 02700000000000 17061501268303403307                    180126000000001083923739250011601260000100000000000000000000000000000000000000000000000000000000000000000000000000010839000000000000000000000000000000000000000000000001073920000000000000          0000000000000000000000000000000000000000000000001061000165
70000000000000000001320000309022835375                         2835375830340376670000301AI 02700000000000 17061501268303403766                    180126000000001083910400580011601260000100000000000000000000000000000000000000000000000000000000000000000000000000010839000000000000000000000000000000000000000000000001073920000000000000          0000000000000000000000000000000000000000000000001061000166
70000000000000000001320000309022835375                         2835375830340433770000401AI 02700000000000 17061501268303404337                    190126000000001083934107060011601260000234000000000000000000000000000000000000000000000000000000000000000000000000010839000000000000000000000000000000000000000000000001060520000000000000          0000000000000000000000000000000000000000000000001010000167
70000000000000000001320000309022835375                         2835375830340434170000401AI 02700000000000 17061501268303404341                    190126000000001083934107060011601260000234000000000000000000000000000000000000000000000000000000000000000000000000010839000000000000000000000000000000000000000000000001060520000000000000          0000000000000000000000000000000000000000000000001010000168
70000000000000000001320000309022835375                         2835375830340440870000401AI 02700000000000 17061501268303404408                    190126000000001083923723670011601260000234000000000000000000000000000000000000000000000000000000000000000000000000010839000000000000000000000000000000000000000000000001060520000000000000          0000000000000000000000000000000000000000000000001010000169
70000000000000000001320000309022835375                         2835375830341469370000601AI 02700000000000 17061501268303414693                    210126000000001083923739250011601260000100000000000000000000000000000000000000000000000000000000000000000000000000010839000000000000000000000000000000000000000000000001073920000000000000          0000000000000000000000000000000000000000000000001061000170
70000000000000000001320000309022835375                         2835375830341501570000701AI 02700000000000 17061501268303415015                    220126000000001083926000010011601260000234000000000000000000000000000000000000000000000000000000000000000000000000010839000000000000000000000000000000000000000000000001060520000000000000          0000000000000000000000000000000000000000000000001010000171
70000000000000000001320000309022835375                         2835375830341529370000701AI 02700000000000 17061501268303415293                    220126000000002855934101290011601260000234000000000000000000000000000000000000000000000000000000000000000000000000028559000000000000000000000000000000000000000000000002832520000000000000          0000000000000000000000000000000000000000000000001010000172
70000000000000000001320000309022835375                         2835375830341535270000701AI 02700000000000 17061501268303415352                    220126000000001083923733800011601260000234000000000000000000000000000000000000000000000000000000000000000000000000010839000000000000000000000000000000000000000000000001060520000000000000          0000000000000000000000000000000000000000000000001010000173
70000000000000000001320000309022835375                         2835375830341547270000701AI 02700000000000 17061501268303415472                    220126000000001083910435410011601260000234000000000000000000000000000000000000000000000000000000000000000000000000010839000000000000000000000000000000000000000000000001060520000000000000          0000000000000000000000000000000000000000000000001010000174
70000000000000000001320000309022835375                         2835375830341548470000701AI 02700000000000 17061501268303415484                    220126000000001083903330290011601260000100000000000000000000000000000000000000000000000000000000000000000000000000010839000000000000000000000000000000000000000000000001073920000000000000          0000000000000000000000000000000000000000000000001061000175
70000000000000000001320000309022835375                         2835375830341557970000701AI 02700000000000 17061501268303415579                    22012600000000108390011981X011601260000100000000000000000000000000000000000000000000000000000000000000000000000000010839000000000000000000000000000000000000000000000001073920000000000000          0000000000000000000000000000000000000000000000001061000176
70000000000000000001320000309022835375                         2835375830341560270000701AI 02700000000000 17061501268303415602                    220126000000001083900105428011601260000234000000000000000000000000000000000000000000000000000000000000000000000000010839000000000000000000000000000000000000000000000001060520000000000000          0000000000000000000000000000000000000000000000001006000177
70000000000000000001320000309022835375                         2835375830341567470000701AI 02700000000000 17061501268303415674                    220126000000001083923739250011601260000100000000000000000000000000000000000000000000000000000000000000000000000000010839000000000000000000000000000000000000000000000001073920000000000000          0000000000000000000000000000000000000000000000001061000178
70000000000000000001320000309022835375                         2835375830341567570000701AI 02700000000000 17061501268303415675                    220126000000001083923739250011601260000100000000000000000000000000000000000000000000000000000000000000000000000000010839000000000000000000000000000000000000000000000001073920000000000000          0000000000000000000000000000000000000000000000001061000179
70000000000000000001320000309022835375                         2835375830341572870000801AI 02700000000000 17061501268303415728                    230126000000001083934155840011601260000100000000000000000000000000000000000000000000000000000000000000000000000000010839000000000000000000000000000000000000000000000001073920000000000000          0000000000000000000000000000000000000000000000001061000180
70000000000000000001320000309022835375                         2835375830341577670000801AI 02700000000000 17061501268303415776                    230126000000001083934155840011601260000100000000000000000000000000000000000000000000000000000000000000000000000000010839000000000000000000000000000000000000000000000001073920000000000000          0000000000000000000000000000000000000000000000001061000181
70000000000000000001320000309022835375                         2835375830341581270000801AI 02700000000000 17061501268303415812                    230126000000001083910463380011601260000100000000000000000000000000000000000000000000000000000000000000000000000000010839000000000000000000000000000000000000000000000001073920000000000000          0000000000000000000000000000000000000000000000001061000182
70000000000000000001320000309022835375                         2835375830341581370000801AI 02700000000000 17061501268303415813                    230126000000001083910400560011601260000234000000000000000000000000000000000000000000000000000000000000000000000000010839000000000000000000000000000000000000000000000001060520000000000000          0000000000000000000000000000000000000000000000001010000183
70000000000000000001320000309022835375                         2835375830341581570000801AI 02700000000000 17061501268303415815                    230126000000001083934155840011601260000100000000000000000000000000000000000000000000000000000000000000000000000000010839000000000000000000000000000000000000000000000001073920000000000000          0000000000000000000000000000000000000000000000001061000184
70000000000000000001320000309022835375                         2835375830341585170000801AI 02700000000000 17061501268303415851                    230126000000001083903337370011601260000100000000000000000000000000000000000000000000000000000000000000000000000000010839000000000000000000000000000000000000000000000001073920000000000000          0000000000000000000000000000000000000000000000001061000185
70000000000000000001320000309022835375                         2835375830341586770000801AI 02700000000000 17061501268303415867                    230126000000001083910400580011601260000100000000000000000000000000000000000000000000000000000000000000000000000000010839000000000000000000000000000000000000000000000001073920000000000000          0000000000000000000000000000000000000000000000001061000186
70000000000000000001320000309022835375                         2835375830341592570000801AI 02700000000000 17061501268303415925                    230126000000002855900116071011601260000234000000000000000000000000000000000000000000000000000000000000000000000000028559000000000000000000000000000000000000000000000002832520000000000000          0000000000000000000000000000000000000000000000001009000187
70000000000000000001320000309022835375                         2835375830341599970000801AI 02700000000000 17061501268303415999                    230126000000001083974828220011601260000234000000000000000000000000000000000000000000000000000000000000000000000000010839000000000000000000000000000000000000000000000001060520000000000000          0000000000000000000000000000000000000000000000001010000188
70000000000000000001320000309022835375                         2835375830341622570000801AI 02700000000000 17061501268303416225                    230126000000001083900104529011601260000234000000000000000000000000000000000000000000000000000000000000000000000000010839000000000000000000000000000000000000000000000001060520000000000000          0000000000000000000000000000000000000000000000001009000189
70000000000000000001320000309022835375                         2835375830341661070000901AI 02700000000000 17061501268303416610                    240126000000001083934170230011601260000234000000000000000000000000000000000000000000000000000000000000000000000000010839000000000000000000000000000000000000000000000001060520000000000000          0000000000000000000000000000000000000000000000001010000190
70000000000000000001320000309022835375                         2835375830341661870000901AI 02700000000000 17061501268303416618                    240126000000001083923739250011601260000100000000000000000000000000000000000000000000000000000000000000000000000000010839000000000000000000000000000000000000000000000001073920000000000000          0000000000000000000000000000000000000000000000001061000191
70000000000000000001320000309022835375                         2835375830341670370000901AI 02700000000000 17061501268303416703                    240126000000002855934182930011601260000234000000000000000000000000000000000000000000000000000000000000000000000000028559000000000000000000000000000000000000000000000002832520000000000000          0000000000000000000000000000000000000000000000001010000192
70000000000000000361530000614763398378                         3398378998161315870000001AI 01900000000000 17061501269981613158                    150126000000001092000106386011601260000130000000000000000000000000000000000000000000000000000000000000000000000000010920000000000000000000000000000000000000000000000001079020000000000000          0000000000000000000000000000000000000000000000001006000193
70000000000000000001320000309022835375                         2835375830341692970000901AI 02700000000000 17061501268303416929                    240126000000002855934105010011601260000234000000000000000000000000000000000000000000000000000000000000000000000000028559000000000000000000000000000000000000000000000002832520000000000000          0000000000000000000000000000000000000000000000001010000194
70000000000000000361530000614763398378                         3398378998161316870000001AI 01900000000000 17061501269981613168                    150126000000001092000106386011601260000130000000000000000000000000000000000000000000000000000000000000000000000000010920000000000000000000000000000000000000000000000001079020000000000000          0000000000000000000000000000000000000000000000001006000195
70000000000000000001320000309022835375                         2835375830341697070000901AI 02700000000000 17061501268303416970                    240126000000001083934155840011601260000100000000000000000000000000000000000000000000000000000000000000000000000000010839000000000000000000000000000000000000000000000001073920000000000000          0000000000000000000000000000000000000000000000001061000196
70000000000000000361530000614763398378                         3398378998161317270000001AI 01900000000000 17061501269981613172                    150126000000001092000106386011601260000130000000000000000000000000000000000000000000000000000000000000000000000000010920000000000000000000000000000000000000000000000001079020000000000000          0000000000000000000000000000000000000000000000001006000197
70000000000000000001320000309022835375                         2835375830341697970000901AI 02700000000000 17061501268303416979                    240126000000002855923727650011601260000234000000000000000000000000000000000000000000000000000000000000000000000000028559000000000000000000000000000000000000000000000002832520000000000000          0000000000000000000000000000000000000000000000001010000198
70000000000000000361530000614763398378                         3398378998161320170000001AI 01900000000000 17061501269981613201                    150126000000001092000106386011601260000130000000000000000000000000000000000000000000000000000000000000000000000000010920000000000000000000000000000000000000000000000001079020000000000000          0000000000000000000000000000000000000000000000001006000199
70000000000000000001320000309022835375                         2835375830341700770000901AI 02700000000000 17061501268303417007                    24012600000000108390012662X011601260000234000000000000000000000000000000000000000000000000000000000000000000000000010839000000000000000000000000000000000000000000000001060520000000000000          0000000000000000000000000000000000000000000000001001000200
70000000000000000361530000614763398378                         3398378998161321170000001AI 01900000000000 17061501269981613211                    150126000000001092000106386011601260000130000000000000000000000000000000000000000000000000000000000000000000000000010920000000000000000000000000000000000000000000000001079020000000000000          0000000000000000000000000000000000000000000000001006000201
70000000000000000001320000309022835375                         2835375830341707570000901AI 02700000000000 17061501268303417075                    24012600000000108390012662X011601260000234000000000000000000000000000000000000000000000000000000000000000000000000010839000000000000000000000000000000000000000000000001060520000000000000          0000000000000000000000000000000000000000000000001001000202
70000000000000000361530000614763398378                         3398378998161321370000001AI 01900000000000 17061501269981613213                    150126000000001092000106386011601260000130000000000000000000000000000000000000000000000000000000000000000000000000010920000000000000000000000000000000000000000000000001079020000000000000          0000000000000000000000000000000000000000000000001006000203
70000000000000000001320000309022835375                         2835375830341713570000901AI 02700000000000 17061501268303417135                    24012600000000108390011981X011601260000100000000000000000000000000000000000000000000000000000000000000000000000000010839000000000000000000000000000000000000000000000001073920000000000000          0000000000000000000000000000000000000000000000001061000204
70000000000000000361530000614763398378                         3398378998161400070000001AI 01900000000000 17061501269981614000                    150126000000002855900119135011601260000130000000000000000000000000000000000000000000000000000000000000000000000000028559000000000000000000000000000000000000000000000002842920000000000000          0000000000000000000000000000000000000000000000001009000205
70000000000000000001320000309022835375                         2835375830341714570000901AI 02700000000000 17061501268303417145                    240126000000001083907700010011601260000100000000000000000000000000000000000000000000000000000000000000000000000000010839000000000000000000000000000000000000000000000001073920000000000000          0000000000000000000000000000000000000000000000001061000206
70000000000000000361530000614763398378                         3398378998161440270000001AI 01900000000000 17061501269981614402                    15012600000000285590011981X011601260000100000000000000000000000000000000000000000000000000000000000000000000000000028559000000000000000000000000000000000000000000000002845920000000000000          0000000000000000000000000000000000000000000000001061000207
70000000000000000001320000309022835375                         2835375830341717370000901AI 02700000000000 17061501268303417173                    240126000000002855926000010011601260000100000000000000000000000000000000000000000000000000000000000000000000000000028559000000000000000000000000000000000000000000000002845920000000000000          0000000000000000000000000000000000000000000000001061000208
70000000000000000361530000614763398378                         3398378998161442270000001AI 01900000000000 17061501269981614422                    15012600000000285590011981X011601260000100000000000000000000000000000000000000000000000000000000000000000000000000028559000000000000000000000000000000000000000000000002845920000000000000          0000000000000000000000000000000000000000000000001061000209
70000000000000000001320000309022835375                         2835375830341719770000901AI 02700000000000 17061501268303417197                    240126000000001083933600010011601260000100000000000000000000000000000000000000000000000000000000000000000000000000010839000000000000000000000000000000000000000000000001073920000000000000          0000000000000000000000000000000000000000000000001061000210
70000000000000000361530000614763398378                         3398378998161446470000001AI 01900000000000 17061501269981614464                    15012600000000285590011981X011601260000100000000000000000000000000000000000000000000000000000000000000000000000000028559000000000000000000000000000000000000000000000002845920000000000000          0000000000000000000000000000000000000000000000001061000211
70000000000000000001320000309022835375                         2835375830341722870000901AI 02700000000000 17061501268303417228                    240126000000001083903324260011601260000234000000000000000000000000000000000000000000000000000000000000000000000000010839000000000000000000000000000000000000000000000001060520000000000000          0000000000000000000000000000000000000000000000001010000212
70000000000000000361530000614763398378                         3398378998161456570000001AI 01900000000000 17061501269981614565                    15012600000000285590011981X011601260000100000000000000000000000000000000000000000000000000000000000000000000000000028559000000000000000000000000000000000000000000000002845920000000000000          0000000000000000000000000000000000000000000000001061000213
70000000000000000001320000309022835375                         2835375830341726070000901AI 02700000000000 17061501268303417260                    240126000000001083937600010011601260000234000000000000000000000000000000000000000000000000000000000000000000000000010839000000000000000000000000000000000000000000000001060520000000000000          0000000000000000000000000000000000000000000000001010000214
70000000000000000361530000614763398378                         3398378998161540370000001AI 01900000000000 17061501269981615403                    150126000000002835000143486011601260000130000000000000000000000000000000000000000000000000000000000000000000000000028350000000000000000000000000000000000000000000000002822020000000000000          0000000000000000000000000000000000000000000000001004000215
70000000000000000001320000309022835375                         2835375830341726170000901AI 02700000000000 17061501268303417261                    240126000000001083910435410011601260000234000000000000000000000000000000000000000000000000000000000000000000000000010839000000000000000000000000000000000000000000000001060520000000000000          0000000000000000000000000000000000000000000000001010000216
70000000000000000361530000614763398378                         3398378998161578370000001AI 01900000000000 17061501269981615783                    15012600000000285590011981X011601260000100000000000000000000000000000000000000000000000000000000000000000000000000028559000000000000000000000000000000000000000000000002845920000000000000          0000000000000000000000000000000000000000000000001061000217
70000000000000000001320000309022835375                         2835375830341727170000901AI 02700000000000 17061501268303417271                    240126000000002855974827710011601260000234000000000000000000000000000000000000000000000000000000000000000000000000028559000000000000000000000000000000000000000000000002832520000000000000          0000000000000000000000000000000000000000000000001010000218
70000000000000000361530000614763398378                         3398378998161578470000001AI 01900000000000 17061501269981615784                    15012600000000285590011981X011601260000100000000000000000000000000000000000000000000000000000000000000000000000000028559000000000000000000000000000000000000000000000002845920000000000000          0000000000000000000000000000000000000000000000001061000219
70000000000000000001320000309022835375                         2835375830341728670000901AI 02700000000000 17061501268303417286                    240126000000002855910411060011601260000234000000000000000000000000000000000000000000000000000000000000000000000000028559000000000000000000000000000000000000000000000002832520000000000000          0000000000000000000000000000000000000000000000001010000220
70000000000000000361530000614763398378                         3398378998161578570000001AI 01900000000000 17061501269981615785                    15012600000000285590011981X011601260000100000000000000000000000000000000000000000000000000000000000000000000000000028559000000000000000000000000000000000000000000000002845920000000000000          0000000000000000000000000000000000000000000000001061000221
70000000000000000001320000309022835375                         2835375830341732170000901AI 02700000000000 17061501268303417321                    240126000000001083923732310011601260000234000000000000000000000000000000000000000000000000000000000000000000000000010839000000000000000000000000000000000000000000000001060520000000000000          0000000000000000000000000000000000000000000000001010000222
70000000000000000361530000614763398378                         3398378998161767870000101AI 01900000000000 17061501269981617678                    160126000000001083940300010011601260000100000000000000000000000000000000000000000000000000000000000000000000000000010839000000000000000000000000000000000000000000000001073920000000000000          0000000000000000000000000000000000000000000000001061000223
70000000000000000001320000309022835375                         2835375830341734670000901AI 02700000000000 17061501268303417346                    240126000000001083910400560011601260000234000000000000000000000000000000000000000000000000000000000000000000000000010839000000000000000000000000000000000000000000000001060520000000000000          0000000000000000000000000000000000000000000000001010000224
70000000000000000361530000614763398378                         3398378998161780070000101AI 01900000000000 17061501269981617800                    160126000000001083933600010011601260000100000000000000000000000000000000000000000000000000000000000000000000000000010839000000000000000000000000000000000000000000000001073920000000000000          0000000000000000000000000000000000000000000000001061000225
70000000000000000001320000309022835375                         2835375830341745570000901AI 02700000000000 17061501268303417455                    240126000000001083923732310011601260000234000000000000000000000000000000000000000000000000000000000000000000000000010839000000000000000000000000000000000000000000000001060520000000000000          0000000000000000000000000000000000000000000000001010000226
70000000000000000361530000614763398378                         3398378998161898970000201AI 01900000000000 17061501269981618989                    170126000000001083923715540011601260000100000000000000000000000000000000000000000000000000000000000000000000000000010839000000000000000000000000000000000000000000000001073920000000000000          0000000000000000000000000000000000000000000000001061000227
70000000000000000001320000309022835375                         2835375830341747670000901AI 02700000000000 17061501268303417476                    240126000000001083903324260011601260000234000000000000000000000000000000000000000000000000000000000000000000000000010839000000000000000000000000000000000000000000000001060520000000000000          0000000000000000000000000000000000000000000000001010000228
70000000000000000361530000614763398378                         3398378998161936370000201AI 01900000000000 17061501269981619363                    170126000000001083907700010011601260000100000000000000000000000000000000000000000000000000000000000000000000000000010839000000000000000000000000000000000000000000000001073920000000000000          0000000000000000000000000000000000000000000000001061000229
70000000000000000001320000309022835375                         2835375830341753870000901AI 02700000000000 17061501268303417538                    240126000000001083910411330011601260000234000000000000000000000000000000000000000000000000000000000000000000000000010839000000000000000000000000000000000000000000000001060520000000000000          0000000000000000000000000000000000000000000000001010000230
70000000000000000361530000614763398378                         3398378998161993470000201AI 01900000000000 17061501269981619934                    170126000000001083974810840011601260000130000000000000000000000000000000000000000000000000000000000000000000000000010839000000000000000000000000000000000000000000000001070920000000000000          0000000000000000000000000000000000000000000000001010000231
70000000000000000001320000309022835375                         2835375830341754170000901AI 02700000000000 17061501268303417541                    240126000000001083903345410011601260000234000000000000000000000000000000000000000000000000000000000000000000000000010839000000000000000000000000000000000000000000000001060520000000000000          0000000000000000000000000000000000000000000000001010000232
70000000000000000361530000614763398378                         3398378998162001670000201AI 01900000000000 17061501269981620016                    170126000000001083900118678011601260000130000000000000000000000000000000000000000000000000000000000000000000000000010839000000000000000000000000000000000000000000000001070920000000000000          0000000000000000000000000000000000000000000000001004000233
70000000000000000001320000309022835375                         2835375830341754370000901AI 02700000000000 17061501268303417543                    240126000000001083900108249011601260000234000000000000000000000000000000000000000000000000000000000000000000000000010839000000000000000000000000000000000000000000000001060520000000000000          0000000000000000000000000000000000000000000000001006000234
70000000000000000361530000614763398378                         3398378998162026470000301AI 01900000000000 17061501269981620264                    180126000000002835034190490011601260000130000000000000000000000000000000000000000000000000000000000000000000000000028350000000000000000000000000000000000000000000000002822020000000000000          0000000000000000000000000000000000000000000000001010000235
70000000000000000001320000309022835375                         2835375830341754870000901AI 02700000000000 17061501268303417548                    240126000000002855907003770011601260000234000000000000000000000000000000000000000000000000000000000000000000000000028559000000000000000000000000000000000000000000000002832520000000000000          0000000000000000000000000000000000000000000000001010000236
70000000000000000361530000614763398378                         3398378998162126170000301AI 01900000000000 17061501269981621261                    180126000000001083934192780011601260000130000000000000000000000000000000000000000000000000000000000000000000000000010839000000000000000000000000000000000000000000000001070920000000000000          0000000000000000000000000000000000000000000000001010000237
70000000000000000001320000309022835375                         2835375830341754970000901AI 02700000000000 17061501268303417549                    240126000000001083903345410011601260000234000000000000000000000000000000000000000000000000000000000000000000000000010839000000000000000000000000000000000000000000000001060520000000000000          0000000000000000000000000000000000000000000000001010000238
70000000000000000361530000614763398378                         3398378998162174670000401AI 01900000000000 17061501269981621746                    190126000000001083974893730011601260000130000000000000000000000000000000000000000000000000000000000000000000000000010839000000000000000000000000000000000000000000000001070920000000000000          0000000000000000000000000000000000000000000000001010000239
70000000000000000001320000309022835375                         2835375830341755070000901AI 02700000000000 17061501268303417550                    240126000000001083910436930011601260000234000000000000000000000000000000000000000000000000000000000000000000000000010839000000000000000000000000000000000000000000000001060520000000000000          0000000000000000000000000000000000000000000000001010000240
70000000000000000361530000614763398378                         3398378998162205070000401AI 01900000000000 17061501269981622050                    190126000000001083974893730011601260000130000000000000000000000000000000000000000000000000000000000000000000000000010839000000000000000000000000000000000000000000000001070920000000000000          0000000000000000000000000000000000000000000000001010000241
70000000000000000001320000309022835375                         2835375830341755170000901AI 02700000000000 17061501268303417551                    240126000000001083934155840011601260000234000000000000000000000000000000000000000000000000000000000000000000000000010839000000000000000000000000000000000000000000000001060520000000000000          0000000000000000000000000000000000000000000000001010000242
70000000000000000361530000614763398378                         3398378998162211570000401AI 01900000000000 17061501269981622115                    190126000000001083974893730011601260000130000000000000000000000000000000000000000000000000000000000000000000000000010839000000000000000000000000000000000000000000000001070920000000000000          0000000000000000000000000000000000000000000000001010000243
70000000000000000001320000309022835375                         2835375830341755270000901AI 02700000000000 17061501268303417552                    240126000000001083903345410011601260000234000000000000000000000000000000000000000000000000000000000000000000000000010839000000000000000000000000000000000000000000000001060520000000000000          0000000000000000000000000000000000000000000000001010000244
70000000000000000361530000614763398378                         3398378998162213670000401AI 01900000000000 17061501269981622136                    190126000000001083974893730011601260000130000000000000000000000000000000000000000000000000000000000000000000000000010839000000000000000000000000000000000000000000000001070920000000000000          0000000000000000000000000000000000000000000000001010000245
70000000000000000001320000309022835375                         2835375830341760370000901AI 02700000000000 17061501268303417603                    240126000000001083934155840011601260000100000000000000000000000000000000000000000000000000000000000000000000000000010839000000000000000000000000000000000000000000000001073920000000000000          0000000000000000000000000000000000000000000000001061000246
70000000000000000361530000614763398378                         3398378998162251770000401AI 01900000000000 17061501269981622517                    190126000000001083910434640011601260000100000000000000000000000000000000000000000000000000000000000000000000000000010839000000000000000000000000000000000000000000000001073920000000000000          0000000000000000000000000000000000000000000000001061000247
70000000000000000001320000309022835375                         2835375830341764070000901AI 02700000000000 17061501268303417640                    240126000000001083934155840011601260000100000000000000000000000000000000000000000000000000000000000000000000000000010839000000000000000000000000000000000000000000000001073920000000000000          0000000000000000000000000000000000000000000000001061000248
70000000000000000361530000614763398378                         3398378998162254170000401AI 01900000000000 17061501269981622541                    190126000000001083910434640011601260000100000000000000000000000000000000000000000000000000000000000000000000000000010839000000000000000000000000000000000000000000000001073920000000000000          0000000000000000000000000000000000000000000000001061000249
